:020000040000fa
:080000000002040000000000f2
:020000040000fa
:0400080004040000ec
:020000040000fa
:04000c0004040000e8
:020000040000fa
:0400100004040000e4
:020000040000fa
:0400140004040000e0
:020000040000fa
:0400180004040000dc
:020000040000fa
:04001c0004040000d8
:020000040000fa
:0400200004040000d4
:020000040000fa
:0400240004040000d0
:020000040000fa
:0400280004040000cc
:020000040000fa
:04002c0004040000c8
:020000040000fa
:0400300004040000c4
:020000040000fa
:04003400fa020000cc
:020000040000fa
:0400380004040000bc
:020000040000fa
:04003c0004040000b8
:020000040000fa
:0400400004040000b4
:020000040000fa
:0400440004040000b0
:020000040000fa
:040048001c03000095
:020000040000fa
:04004c0004040000a8
:020000040000fa
:0400500004040000a4
:020000040000fa
:04005400bc030000e9
:020000040000fa
:040058009003000011
:020000040000fa
:04005c006a03000033
:020000040000fa
:040060000404000094
:020000040000fa
:040064000404000090
:020000040000fa
:04006800040400008c
:020000040000fa
:04006c000404000088
:020000040000fa
:040070000404000084
:020000040000fa
:040074000404000080
:020000040000fa
:04007800040400007c
:020000040000fa
:04007c000404000078
:020000040000fa
:040080000404000074
:020000040000fa
:040084000404000070
:020000040000fa
:04008800040400006c
:020000040000fa
:04008c000404000068
:020000040000fa
:040090000404000064
:020000040000fa
:04009400260300003f
:020000040000fa
:04009800040400005c
:020000040000fa
:04009c000404000058
:020000040000fa
:0400a0000404000054
:020000040000fa
:0400a4000404000050
:020000040000fa
:0400a800040400004c
:020000040000fa
:0400ac000404000048
:020000040000fa
:0400b0000404000044
:020000040000fa
:0400b4000404000040
:020000040000fa
:0400b800040400003c
:020000040000fa
:0400bc000404000038
:020000040000fa
:0400c0000404000034
:020000040000fa
:0400c4000404000030
:020000040000fa
:0400c800040400002c
:020000040000fa
:0400cc000404000028
:020000040000fa
:0400d0000404000024
:020000040000fa
:0400d4000404000020
:020000040000fa
:0400d800040400001c
:020000040000fa
:0400dc000404000018
:020000040000fa
:0400e0000404000014
:020000040000fa
:0400e4000404000010
:020000040000fa
:0400e800040400000c
:020000040000fa
:0400ec000404000008
:020000040000fa
:0400f0000404000004
:020000040000fa
:0400f4000404000000
:020000040000fa
:0400f80004040000fc
:020000040000fa
:0400fc0004040000f8
:020000040000fa
:0401000004040000f3
:020000040000fa
:0401040004040000ef
:020000040000fa
:0401080004040000eb
:020000040000fa
:04010c0004040000e7
:020000040000fa
:0401100004040000e3
:020000040000fa
:0401140004040000df
:020000040000fa
:0401180004040000db
:020000040000fa
:04011c0004040000d7
:020000040000fa
:0401200004040000d3
:020000040000fa
:0401240004040000cf
:020000040000fa
:0401280004040000cb
:020000040000fa
:04012c0004040000c7
:020000040000fa
:0401300004040000c3
:020000040000fa
:0401340004040000bf
:020000040000fa
:0401380004040000bb
:020000040000fa
:04013c0004040000b7
:020000040000fa
:0401400004040000b3
:020000040000fa
:0401440004040000af
:020000040000fa
:0401480004040000ab
:020000040000fa
:04014c0004040000a7
:020000040000fa
:0401500004040000a3
:020000040000fa
:04015400040400009f
:020000040000fa
:04015800040400009b
:020000040000fa
:04015c000404000097
:020000040000fa
:040160000404000093
:020000040000fa
:04016400040400008f
:020000040000fa
:04016800040400008b
:020000040000fa
:04016c000404000087
:020000040000fa
:040170000404000083
:020000040000fa
:04017400040400007f
:020000040000fa
:04017800040400007b
:020000040000fa
:04017c000404000077
:020000040000fa
:040180000404000073
:020000040000fa
:04018400040400006f
:020000040000fa
:04018800040400006b
:020000040000fa
:04018c000404000067
:020000040000fa
:040190000404000063
:020000040000fa
:04019400040400005f
:020000040000fa
:04019800040400005b
:020000040000fa
:04019c000404000057
:020000040000fa
:0401a0000404000053
:020000040000fa
:0401a400040400004f
:020000040000fa
:0401a800040400004b
:020000040000fa
:0401ac000404000047
:020000040000fa
:0401b0000404000043
:020000040000fa
:0401b400040400003f
:020000040000fa
:0401b800040400003b
:020000040000fa
:0401bc000404000037
:020000040000fa
:0401c0000404000033
:020000040000fa
:0401c400040400002f
:020000040000fa
:0401c800040400002b
:020000040000fa
:0401cc000404000027
:020000040000fa
:0401d0000404000023
:020000040000fa
:0401d400040400001f
:020000040000fa
:0401d800040400001b
:020000040000fa
:0401dc000404000017
:020000040000fa
:0401e0000404000013
:020000040000fa
:0401e400040400000f
:020000040000fa
:0401e800040400000b
:020000040000fa
:0401ec000404000007
:020000040000fa
:0401f0000404000003
:020000040000fa
:0401f40004040000ff
:020000040000fa
:0401f80004040000fb
:020000040000fa
:0401fc0004040000f7
:020000040000fa
:0402000004040000f2
:020000040000fa
:0402040004040000ee
:020000040000fa
:0402080004040000ea
:020000040000fa
:04020c0004040000e6
:020000040000fa
:0402100004040000e2
:020000040000fa
:0402140004040000de
:020000040000fa
:0402180004040000da
:020000040000fa
:04021c0004040000d6
:020000040000fa
:0402200004040000d2
:020000040000fa
:0402240004040000ce
:020000040000fa
:0402280004040000ca
:020000040000fa
:04022c0004040000c6
:020000040000fa
:0402300004040000c2
:020000040000fa
:0402340004040000be
:020000040000fa
:0402380004040000ba
:020000040000fa
:04023c0004040000b6
:020000040000fa
:0402400004040000b2
:020000040000fa
:0402440004040000ae
:020000040000fa
:0402480004040000aa
:020000040000fa
:04024c0004040000a6
:020000040000fa
:0402500004040000a2
:020000040000fa
:04025400040400009e
:020000040000fa
:04025800040400009a
:020000040000fa
:04025c000404000096
:020000040000fa
:040260000404000092
:020000040000fa
:04026400040400008e
:020000040000fa
:100400008f1f21000eff27000e0188000000000052
:10041000000020000000e000020032000001200087
:100420002002880014000700070107000000e00018
:1004300003003a00a0df2100010020000200370085
:100440000000200001002000810f70000100320038
:100450000f000700000020000000e0000200320052
:100460000000020000000000940c020000000000e8
:100470000040da000000fe00200020000000e00044
:1004800002003200100020009001880000000600e9
:10049000a1028800800478000000eb001f003700f4
:1004a000e284440054a0b4009905ba00e2844400f8
:1004b00054a0b4009906ba00e284440054a0b400e9
:1004c0000006eb00476fde00fd07b200ae018800ba
:1004d000636ce10003003a000ad801000000eb0061
:1004e0000e003700606ce10008003a00004deb00a0
:1004f0000a05e800020039003420ec000af0a000f0
:100500008b05e900f9ff3e00040037006168e10057
:10051000010032000086eb000b00070019c7ba008b
:100520000e04e0001905ba0003003a000a00e000da
:10053000dbff3a0000000600fe07b200ae028800b2
:100540008a047800f5ff37000cd0a300e20f4d00bd
:100550001c003b0089027800354dba000a05e8000e
:10056000020039003420ec000af0a0008b05e900fd
:100570000f003200254dba000a05e80002003900dc
:100580003420ec000af0a0008b05e90008003200de
:100590000c00e0000600320015cdba000a05e800a4
:1005a000020039003420ec000af0a0008b05e900bd
:1005b0008984e80054a0b4000b00e000e2ff3a0098
:1005c000000006009902ba00055d78008b05e9007d
:1005d000f7ff3200c82ade00055d78008b05e900d0
:1005e000f3ff32000c00e000f1ff320019ddba0029
:1005f000eeff37003600f800809fbe00829fbe00ed
:10060000849fbe00869fbe000000fa000068a9001b
:1006100000090700600c0700000000000080fa00dd
:100620004f03be004f02be004f01be004f00be0090
:100630003600f900004006000000fa000108a90099
:10064000000000000080fa00004006003600f800bc
:10065000809fbe00829fbe00849fbe00869fbe001a
:100660000000fa000368a900d0808000e1808000cb
:1006700061004000e0804800d0808800e180880070
:1006800090808000a180800061004000e0804800f0
:1006900090808800a1808800b0808000c1808000a8
:1006a00061004000e0804800b0808800c180880080
:1006b000c1050700000000000080fa004f03be00e3
:1006c0004f02be004f01be004f00be003600f900d1
:1006d00000400600801f78000000fa0001a8a90071
:1006e00000188000708f880010188000808f8800ac
:1006f00020188000908f880030188000a08f88001c
:1007000040188000b08f880010c0b30045f0b700db
:10071000000000000080fa004f0078000040060052
:100720003600f800809fbe00829fbe00849fbe00fe
:10073000869fbe000000fa000188a90001818000a8
:10074000f0808000808f500002003200ab0b070069
:10075000010037002670ef00000000000080fa0062
:100760004f03be004f02be004f01be004f00be004f
:100770003600f900004006003600f800809fbe00f9
:10078000829fbe00849fbe00869fbe000000fa00cc
:100790000168a900101180004200de006140600085
:1007a000e14f500001003a002242a90010118000e0
:1007b0000000d10061406000e14f500005003a00a8
:1007c0002222a90003003700301180000040780089
:1007d000510c07001011800000407800614060005b
:1007e000e14f5000f8ff3200000000000080fa00e6
:1007f0004f03be004f02be004f01be004f00be00bf
:100800003600f900004006000040da000000fe005b
:10081000f03fb1000180b10006003500ee03090091
:1008200000000000403fb1000180b100fbff3d002f
:100830001000b000203fb000020035000080090029
:100840000000000000000600000005001400200069
:10085000ad033700f4ff2f00ab0337000001be00eb
:100860003f0007000470a70003f0a1006509b10074
:10087000160032000d0035006828e1000600350042
:10088000f0ff2f00f1ff27000300e00013003b0002
:1008900001002800000005000000400081804800a1
:1008a0008502e900fcff3a0008003700f88f42009b
:1008b00002003c008000eb00000005008100d10038
:1008c0000080d3008502e800fcff3a000300e0004e
:1008d00002003b0060001000e080180000000600ed
:1008e0000001be001e0007000470a70003f0a10075
:1008f00003f8a30013003a006509b10010003200ac
:10090000090035006928e1000200350001002800d7
:100910000000050000004000818048008502e900d9
:10092000fcff3a0000000600f88f42000500350089
:100930008100d1000080d3008502e800fcff3a006e
:10094000000006008000eb00000005004f89de007b
:1009500082017800870337006011b80095033700e3
:10096000c70ade00f107b200f50fb200080032003e
:10097000e1cf4200020032000170a0002400050017
:10098000810f7000010032000408050044000500da
:10099000810f700002003a00140005008502e90092
:1009a0000000400081c04800fcff3b000170a00037
:1009b0002400050007f82700078361000638e100de
:1009c00004003a00f7072000878361008703710065
:1009d00001003a0003f0a200889fbe008a9fbe007b
:1009e0008c9fbe00470ade000480a100c71ade000b
:1009f0000580a10007002800078560008785610049
:100a0000f70f20000720e1009e0032000728e100d8
:100a10009c003200010678000400e000b4003200bf
:100a2000f7072000878060000170a0000500e0004b
:100a3000c0003200f7072000878161000370a0002a
:100a4000050652000f003a000b50e1000b00320087
:100a50000308e10002003a000200e1007e003200db
:100a60000204500083845800040031000001fd009e
:100a70008101fd008402fd008a05fd006044b8008c
:100a8000210037000520e10005003d000001fd00c8
:100a90008101fd008402fd008a05fd00050652006b
:100aa0007a60e100050035000170a1004722dd00f9
:100ab000848070008a807000630037006044b80052
:100ac000ef02660007ff2f00070666000500e00042
:100ad00006003400f08312008714dd000511de00eb
:100ae000071bdd00060171008519de007060e10062
:100af00005003500090478008204780003017800bd
:100b00008001eb00700656000b50e10003003a0034
:100b10000200400083804800040037006004140095
:100b2000e0841c0002005800838058000188a30064
:100b3000060032008100d1000080d3008984d300f8
:100b40000884d3000402e800270037000178a300de
:100b500025003a000100e000030032008186cf004a
:100b6000698656000a0037008c0020000000e00073
:100b700004003a0009007800880478000004eb00c3
:100b8000700252008086cf000d0646000c06e90078
:100b90007060e100060035008000780009007800f0
:100ba000880478000004eb007006560070025200c2
:100bb0000c00e0000c0034008c08dd00f00316008f
:100bc0000703de00868070000c00dd00074bde00ae
:100bd000060070008c4cdd000743de008684740044
:100be0000c44dd000c0252006120e10020003500c1
:100bf000610160000700280087816400f7ff27007b
:100c000087836400070374000300e00006003200dd
:100c100082037300040032000000e800e080480016
:100c20000188a3000e003a00f70f20000720e10022
:100c30004a003d000170a1004722dd0081007200e2
:100c40008a8070000000be004f06be004f05be0047
:100c50004f04be00000006006000b800faff370035
:100c60008100d1000080d3000402e800eeff3700cd
:100c70000401780089017400a10107008a807000d6
:100c8000f1ff3700f7010700070278000001fd00bf
:100c90008101fd00f30107008702780085037200df
:100ca0000778a300040032000001fd008101fd006f
:100cb00006020700e4ff3700850362000768a3000f
:100cc000080032000b50e10003003200f0ff2f005b
:100cd000f1ff2700dcff37000001fd008101fd006e
:100ce000d9ff37000468a300d7ff3200faff3700ae
:100cf000f8ff2700888360000b003a000000e00046
:100d000009003a008303640082837300020032000a
:100d10000200be00ccff37000b50e100ceff3a00ce
:100d20000200be00c8ff37001400200081006400ec
:100d30003eff3700f8ff27008883610004003a0077
:100d40000200e00002003a008c007800beff37008d
:100d5000150020008301640039ff370001f82700e7
:100d60000000200081007500b7ff3700889fbe009b
:100d70008a9fbe008c9fbe001b0020000202be00a6
:100d80000586680006002800060666004709de00a2
:100d9000f20fb200820032000243e800800032000d
:100da000c729de00f30fb2007d0032000343e800e4
:100db0007b003200f107b2000170a000f507b2001d
:100dc0000570a000c708dd004903de0086807000c2
:100dd0004700dd00c72add004923de00868272005d
:100de0004722dd00030551000403500085835800ad
:100df0000300310000004000818048000a05e9003e
:100e00008c1f78008a9fbe00040050008580580027
:100e10000402420085824a000000400081804800b0
:100e20000005eb000004be006033b8000406be00fd
:100e30000d48e10056003100110009004dccd800ea
:100e40000c01b8000d02b8008481410060824a00a4
:100e50008283530003045c0084845c0060055d00b1
:100e60000a00e00025003a00800578000d40e1000e
:100e7000490031008800780007007800110009005f
:100e80004d88d8000c01b8000d02b80084814100e3
:100e900060824a006003110083835b0004045c00ed
:100ea000e0845c000900e00021003a004f01be0030
:100eb0000300e0002b003200e3016000070673002e
:100ec0008c81710001003200640070004200de007d
:100ed0004e5edd000c007000c258de0001e0a00094
:100ee00083010700cf017800818071004f06be00aa
:100ef0004f05be004f04be00000006008c83430077
:100f00000d044c00e0844c0060054d000000e90039
:100f10000a00e000d4ff32008c8343000d044c0033
:100f2000e0844c0060054d000000e900ceff370072
:100f30000c0343008d834b0060044c00e0844c00a4
:100f40000000e9000900e000d8ff32000c03430074
:100f50008d834b0060044c00e0844c000000e900ed
:100f6000d2ff37004200de004e5edd000c00700054
:100f7000c258de0001e0a000cf0178000300e000cd
:100f8000daff320060001000e0801800d7ff370061
:100f9000f0ff2f00aaff3700f0ff2f00b9ff370046
:100fa0000404be002f010700870678000004fd003e
:100fb0008104fd002b010700078366000678a3006b
:100fc000030032000960a7000800be002c003700b3
:100fd0000d78a300020032000800be002800370090
:100fe0000778a30026003a0001f0a10009f0a10053
:100ff0000668a30003003200f1ff2700f0ff2f0076
:10100000baff37000d68a300030032000800be00dd
:101010008c807000b5ff37000768a30007003a0016
:101020000648a30003003200f1ff2700f0ff2f0065
:10103000aeff37000d48a300030032006000b80087
:101040008c807000a9ff37000748a300040032001d
:1010500001f82700000020008c807000a3ff3700fb
:10106000760107000004fd008104fd000205780000
:10107000720107000802be008a01780059ff37009c
:101080000160a000120220003282880097ff370022
:101090000100e000120032000500e0001000320004
:1010a000889fbe008a9fbe008c9fbe000006eb009a
:1010b00001f8a3000300320060001000e080180077
:1010c0000cf0a00005f8a30003003200600212003b
:1010d000e0821a000cf0a2008005eb0041ff37000f
:1010e0006000b800020005000383680007002800c4
:1010f00007036300470ade000480a100c71ade0070
:101100000580a100f70f20000720e1004200320017
:101110000728e10040003200889fbe008a9fbe0081
:101120008c1f7800f107b200f307b2000400e00062
:10113000640032000170a0000500e0006800320089
:101140000370a00085054200eb07b1000204b8005f
:101150000302b8008484440060854a00020ab80093
:10116000848444000a854a00030ab8000405450047
:10117000040033000804d0008984d2000a85d2001c
:101180008b05e9006158e1003d00350002102000a8
:10119000090161000308200089816100f707200030
:1011a0008783640008867300c84cde00c853dd00e6
:1011b000878474004855de000300e000060032001a
:1011c00082037600040032008904e80060054d00c7
:1011d0000a88a3000c003a00f70f20000758e1002e
:1011e00044003d000a70a100c75ddd000a8575005e
:1011f0008a007300090078004f0678004f05be0092
:101200004f04be00000006000a05d1008984d30007
:101210008b05e800f0ff3700881f7800060478008f
:1012200090000700070278000001fd008101fd0029
:101230008c00070087027800850372000778a300fe
:10124000050032000001fd008101fd009f00070044
:101250004f04780000000600850372000748a300d1
:1012600003003200f0ff2f00f1ff2700f8ff3700e6
:101270000000200001f8270088807000f4ff37008c
:10128000880178004848dd00808171004848de0010
:10129000c850dd0001007000c850de000604780070
:1012a0000b0178001600070088807000d2ff37001d
:1012b0000500e00005003200170020003a0007009a
:1012c0009dff370081037000f9ff3a008600780027
:1012d0004f0678004f05be004f04be000000050019
:1012e00083037100f9ff3200270020002e00070061
:1012f00094ff370001f8270086807000f4ff370064
:101300000100e00026003200610111007810e100c8
:1013100023003c006022b8007010e100040035009a
:1013200080027800010078008000eb00700151001d
:101330000200e0000900340070031100062add00fd
:10134000822ade008603dd00878272000200de0052
:10135000860bdd00070070008208de0084817100ca
:10136000f4ff2700048262008481710004002800d9
:10137000848262006102600005f0a60000000600a1
:1013800004827100070032000000e800e08048009d
:10139000000006000002be006000b800efff37004a
:1013a0006000b80000000600889fbe000004eb004b
:1013b0006138e10016003a000100e00008003a0040
:1013c000c800de004800dd00880020000100e000c9
:1013d00003003a00c800de004800dd006804440055
:1013e0008184cf00e9845400060034008908dd00c0
:1013f000f08314008703de00878070000900dd00a1
:1014000009044400610214004f04be0000000600fd
:101410000300e00008003a00c811de004811dd00ba
:10142000880020000300e00003003a00c811de003d
:101430004811dd00680444008384cf00e98454002f
:10144000060034008919dd00f08314008713de00e4
:10145000878171000911dd0009044400e1021400d4
:10146000e9ff37002700200001f0a7001700200047
:10147000470bde00f60fb200040032000643e8001e
:101480000a0032004702b3000000060001037800a2
:10149000f607b2000603700002003a000703b3002b
:1014a000000006008702b300000006000103780078
:1014b000f607b20006037000020032000770a000b9
:1014c000000006000760a000000006000478a300ea
:1014d000040032000578a300030032000168a30075
:1014e00001003a000200be000160a00000000600fa
:1014f00081017000270032008002eb0001f8a30098
:101500000300320060001000e08018001500200089
:10151000f40720000202420020003400f7032000fc
:101520008703600006042000000363000208200017
:10153000000161004700de00c909dd000080710084
:10154000c708de000600e0000800320087037100d3
:10155000060032001000b0000180b0000188a30036
:1015600002003200c108de000402e800f107b20008
:10157000f30f20000320e10003003d004722dd00bf
:10158000810072002900370001f827000000eb00fd
:10159000260037006000b800000006006802120054
:1015a0007f20e100020034006000b8001f00370017
:1015b0006011b8007020e10004003500800178005f
:1015c000010078008000eb00700252000400e0008f
:1015d00009003400f00312000719dd008419de0051
:1015e0000703dd00868171000400de00070bdd00cb
:1015f000060070008408de00f7ff27008383630085
:10160000870371000600280003036300070032000f
:101610000700e00003003a006101600002817300ee
:10162000020032001000b0000180b0000500a600ea
:101630000000060001f0a000000006004f0ade00d6
:101640004709de00f107b200f20fb2000b003200d2
:10165000f207b1000170a000c708dd00c901de007b
:10166000838070004700dd000400a6000000060033
:1016700060001000e080180000000600810f70007c
:1016800001003a00000006008182cf000500e00062
:1016900010003e008082cf00ee8242007028e10000
:1016a0000400390007003e00800078000000eb00d5
:1016b0000e003700708312008600de000500dd009a
:1016c0000a003700708352008600dd000000eb0046
:1016d00006003700e28252008508dd0070831200a8
:1016e0000603de00868070000500dd007507b0008f
:1016f0000501ea000400a6000000060060001000da
:10170000e080180000000600889fbe008a9fbe008f
:10171000841f78007c0007004f0078001100330020
:10172000f0ff2f00838f6c0006003b00040565006e
:101730000a00a7000800370009f0a60010002000ea
:1017400008003700820f5400838f5c0003003900cb
:101750001000200001003e000000200009f0a7005a
:101760000000ea004f05be004f04be000000e0008c
:1017700000000600881f7800030478000300e000e2
:1017800007003d0060001000e080180060011900b3
:10179000e081190002003b0001f02d00030037003a
:1017a0000400070008f0a70001f0a0004f04780033
:1017b00000000600889fbe008a9fbe000082700065
:1017c0000402710004827100260032000004be0091
:1017d0000200be006011b8006b09200095022000d5
:1017e0000182cf000a0039000541b1000082cf001c
:1017f000070039000541b1000982cf00040039001b
:101800000541b1000882cf00010039000541b10057
:1018100005425200120032000a003b008281710032
:10182000610164008100d1000080d3008984d3006d
:101830000884d3008b05e8000442e800f7ff3a0073
:10184000070037000804440089844c000000480069
:10185000818048008b05e9000442e900f9ff3a0065
:10186000030007004f05be004f04be000000060045
:1018700081002000618055000b003d000b0020001e
:1018800061fe2f000100e1001d0034008281710023
:10189000610164008904d1000884d3000000e800dd
:1018a000faff3a007100200061006400030070003c
:1018b000020060000900320061044400e0844c0032
:1018c0000988a500050032008b05e8006808e100e2
:1018d00002003a008904d1000884d300f20f2000ee
:1018e0000258e10005003d00c75ddd00f907b200c8
:1018f0008980750008007800000006000bf82700ba
:101900008b007800000005000004be0014fc0700f6
:101910000003be000405be000200be0010fc07006c
:08192000844f75000000060071
:020000040000fa
:101928000a00fa00ac0707007c08070076020700e7
:101938006902070043030700580707003e0807002d
:101948009c070700e14f500009013a009d07070076
:1019580094070700100798001e00900010007800f8
:101968008000eb00fafb0700323323003305240024
:10197800dbfd070000017800010078008202780092
:1019880000027800020020000358240005007800b7
:10199800840078000000be00f2fc070020079800d1
:1019a800310798002e019000be0190000000200031
:1019b80081202400ebfc070000017800010078007a
:1019c800820278000002780002002000030a240046
:1019d80005007800840078000000be00f3fb0700d3
:1019e8008001780001017800030078008200780007
:1019f8000000be00508f8800618f88000e80e800cc
:101a08001080e800100078008000eb00d0fb070091
:101a18003233230033052400b1fd070000017800ac
:101a2800010078008202780000027800020020009d
:101a38000358240005007800840078000000be00e8
:101a4800c8fc070020079800310798002e01900075
:101a5800be0190000000200081202400c1fc070086
:101a68000001780001007800820278000002780006
:101a780002002000030a2400050078008400780092
:101a88000000be00c9fb0700800178000101780052
:101a980003007800820078000000be00308f8800c4
:101aa800418f88000e80e80041002000108040002f
:101ab800100078008000eb00a5fb070032332300fc
:101ac8003305240086fd0700000178000100780036
:101ad80082027800000278000200200003582400e7
:101ae80005007800840078000000be009dfc070017
:101af80020079800310798002e019000be01900041
:101b0800000020008120240096fc070000017800d6
:101b180001007800820278000002780002002000ac
:101b2800030a240005007800840078000000be0045
:101b38009efb07008001780001017800030078000f
:101b4800820078000000be00108f8800218f880076
:101b58000e80e8006100200010804000100078002e
:101b68008000eb007afb07003233230033052400a2
:101b78005bfd070000017800010078008202780010
:101b880000027800020020000358240005007800b5
:101b9800840078000000be0072fc0700200798004f
:101ba800310798002e019000be019000000020002f
:101bb800812024006bfc07000001780001007800f8
:101bc800820278000002780002002000030a240044
:101bd80005007800840078000000be0073fb070051
:101be8008001780001017800030078008200780005
:101bf8000000be00f08e8800018f88000e80e8008b
:101c08008100200010804000100078008000eb0068
:101c18004ffb0700323323003305240030fd070053
:101c28000001780001007800820278000002780044
:101c38000200200003582400050078008400780082
:101c48000000be0047fc07002007980031079800f5
:101c58002e019000be019000000020008120240089
:101c680040fc07000001780001007800820278003b
:101c78000002780002002000030a24000500780012
:101c8800840078000000be0048fb0700800178004f
:101c98000101780003007800820078000000be008f
:101ca800d08e8800e18e8800508f8000618f800080
:101cb80002002000031f2400e4fa07000000e000ef
:101cc8000200340084cea9000100370084cea800a9
:101cd800308f8000418f800002002000031f240005
:101ce800dafa07000000e0000200340084aea90020
:101cf8000100370084aea800108f8000218f80007b
:101d080002002000031f2400d0fa07000000e000b2
:101d180002003400848ea90001003700848ea800d8
:101d2800f08e8000018f800002002000031f240035
:101d3800c6fa07000000e00002003400856ea90022
:101d480001003700856ea800d08e8000e18e8000eb
:101d580002002000031f2400bcfa07000000e00076
:101d680002003400754ea90001003700754ea80026
:101d78000000eb00000f780005003700f8060700a8
:101d8800004f98000e489000d20407001e0fe8008c
:101d98000d0707009e007800808f5000f7ff350080
:101da800007122000100200097fa0700e4fe3700c6
:101db8000000fa000ed0bf000080fb006100b900ef
:101dc800b200200003002000820f5000838f5800cb
:101dd8006e003e00000601000b00370014003700bb
:101de8001d00370027003700280037003100370072
:101df800320037003b0037003c0037004d00370009
:101e08004e0037005f0037001a30ef001c30ef003b
:101e18000001eb006000b800e70207001200200094
:101e28006000b800e402070010c0b3000ef0b7006d
:101e3800d2808000e3808000803e200001002000e6
:101e4800800f5100818f59005200360020c0b30026
:101e58000ef0b7004f0037000001eb000000200033
:101e6800011f2400d40207001200200000002000f7
:101e7800011f2400d002070030c0b3000ef0b700e5
:101e8800490037004b000700470037000001eb000e
:101e98000000200001172400c702070012002000dc
:101ea8006000b800c402070050c0b3000ef0b700cd
:101eb8003d0037003f0007003b0037000001eb0002
:101ec8006000b800bc0207001200200000002000db
:101ed80001172400b802070070c0b3000ef0b70065
:101ee80031003700330007002f0037000001eb00f6
:101ef8000000200001172400af0207001200200094
:101f08000000200001172c00ab020700b2808000ff
:101f1800c3808000401f200001002000800f510076
:101f2800818f59001d00360090c0b3000ef0b70035
:101f38001a0037001f0007001b0037000001eb00e4
:101f48000000200001172c009b020700120020004f
:101f580000002000011724009702070092808000eb
:101f6800a3808000401f200001002000800f510046
:101f7800818f59000b003600b0c0b3000ef0b700d7
:101f8800080037000b000700070037000e70ef004d
:101f980005003700000000000300370000000000c3
:101fa8000100370000000000000000000080fa0077
:101fb800000006000000fa000c30ef00508f80008f
:101fc800618f800002002000c32024001dfa070052
:101fd8000000e00003003d00608080000000a000d9
:101fe80060808800308f8000418f800002002000d0
:101ff8000322240013fa07000000e00003003d005c
:10200800608080000010a00060808800108f800031
:10201800218f8000020020000322240009fa070013
:102028000000e00003003d00608080000020a00068
:1020380060808800f08e8000018f80000200200000
:1020480003222400fff907000000e00003003d0020
:10205800608080000030a00060808800d08e800002
:10206800e18e800002002000c3202400f5f907005b
:102078000000e00003003d00608080000040a000f8
:1020880060808800608080008000eb00f201200002
:1020980003002000820f5000838f580081003e000b
:1020a800000601001f003700210037002300370019
:1020b8002500370027003700290037002b0037009c
:1020c8002d0037002f00370031003700330037006c
:1020d8003500370037003700390037003b0037003c
:1020e8003d0037003f00370041003700430037000c
:1020f8004500370047003700490037004b003700dc
:102108004d0037004f0037005100370053003700ab
:102118005500370057003700590037005b0037007b
:102128005d00370020c0b3000af0b7005d0037003b
:1021380020c0b3000af0b7005a00370060c0b300ef
:102148000af0b7005700370060c0b3000af0b700c4
:1021580054003700a0c0b3000af0b70051003700a0
:10216800a0c0b3000af0b7004e003700a0c0b3000b
:102178000af0b7004b003700a0c0b3000af0b70060
:102188004800370040c0b3000af0b70045003700e8
:1021980060c0b3000af0b7004200370060c0b30067
:1021a8000af0b7003f00370060c0b3000af0b7007c
:1021b8003c003700a0c0b3000af0b7003900370070
:1021c800a0c0b3000af0b70036003700a0c0b300c3
:1021d8000af0b70033003700a0c0b3000af0b70018
:1021e8003000370020c0b3000af0b7002d003700d8
:1021f80020c0b3000af0b7002a00370040c0b3007f
:102208000af0b70027003700a0c0b3000af0b700f3
:1022180024003700a0c0b3000af0b700210037003f
:10222800a0c0b3000af0b7001e003700a0c0b3007a
:102238000af0b7001b003700a0c0b3000af0b700cf
:102248001800370040c0b3000af0b7001500370087
:10225800a0c0b3000af0b70012003700a0c0b30056
:102268000af0b7000f003700a0c0b3000af0b700ab
:102278000c003700a0c0b3000af0b700090037000f
:10228800a0c0b3000af0b70006003700a0c0b30032
:102298000af0b70003003700a0c0b3000af0b70087
:1022a800000000000ad0bf000080fb00e100210010
:1022b800914078008180fb008100e900810f500087
:1022c800020032000ad0bf000ef0b7000000000084
:1022d8000080fa00000006000000fa0005e1a900ed
:1022e8000421a9000068a9002068a80005e1a80049
:1022f80060818000718180001d00070000000000df
:102308000080fa00000006000000fa0013e1a900ae
:1023180011e1a9001061a8001021a900800880001f
:102328000040a1000050a100800888000a21ef00a9
:102338000621ef00707220007008880000e020007d
:1023480060088800204280000000a0000010a10062
:102358000020a100204288000108a9002108a80047
:1023680011e1a800000000000080fa00000006004b
:102378000400fa00008fbe00200880000040a10081
:102388000050a100200888001e0178009e019000de
:10239800001c2e0041c6240072fa070000017800d4
:1023a80001007800820278000002780002f02f0015
:1023b800f377240005007800840078000000be0050
:1023c80022f907000000e0008d003400200880009a
:1023d8000040a0000050a100200888001e017800dd
:1023e8009e019000001c2e0041c624005dfa0700e3
:1023f800000178000100780082027800000278006d
:1024080002002000031024000500780084007800f2
:102418000000be0053fa07000001780001007800b0
:10242800820278000002780002f02f00f37724007f
:1024380005007800840078000000be0003f907005a
:102448000000e00055003400200880000040a10092
:102458000050a000200888001e0178009e0190000e
:10246800001c2e0041c624003efa07000001780037
:102478000100780082027800000278000200200043
:102488000328240005007800840078000000be00be
:1024980034fa070000017800010078008202780011
:1024a8000002780002f02f00f3772400050078007e
:1024b800840078000000be00e4f807000000e00097
:1024c8001d003400200880000040a0000050a0003b
:1024d800200888001e0178009e019000001c2e0034
:1024e80041c624001ffa07000001780001007800a7
:1024f80082027800000278000200200003382400dd
:1025080005007800840078000000be0015fa070076
:10251800000178000100780082017800000178004d
:1025280003007800820078000000be00c9f80700a8
:1025380010088800400037001e0178009e019000b6
:10254800001c2e0041c6240006fa0700000178008e
:102558000100780082027800000278000200200062
:102568000328240005007800840078000000be00dd
:10257800fcf907000001780001007800820178006a
:102588000001780003007800820078000000be0097
:10259800b0f8070010088800270037001e017800ef
:1025a8009e019000001c2e0041c62400edf9070092
:1025b80000017800010078008202780000027800ab
:1025c8000200200003102400050078008400780031
:1025d8000000be00e3f90700000178000100780060
:1025e80082017800000178000300780082007800fa
:1025f8000000be0097f80700100888000e0037009a
:102608001e0178009e019000001c2e0041c6240087
:10261800d4f90700000178000100780082017800f1
:102628000001780003007800820078000000be00f6
:1026380088f8070010088800000000000080fa00f1
:10264800000006000000fa001fe1a9001e21a900f1
:102658000368a9002368a8001fe1a8004081800042
:102668005181800003000700000000000080fa008c
:10267800000006000400fa00008fbe002008800059
:102688000040a1000050a100200888001e01780029
:102698009e019000001c2e0041c62400b1f90700dd
:1026a80000017800010078008202780000027800ba
:1026b80002f02f00f37724000500780084007800ea
:1026c8000000be0061f807000000e0008d00340043
:1026d800200880000040a0000050a10020088800c9
:1026e8001e0178009e019000001c2e0041c62400a7
:1026f8009cf9070000017800010078008202780048
:102708000002780002002000031024000500780071
:10271800840078000000be0092f9070000017800ec
:1027280001007800820278000002780002f02f0091
:10273800f377240005007800840078000000be00cc
:1027480042f807000000e00055003400200880002f
:102758000040a1000050a000200888001e01780059
:102768009e019000001c2e0041c624007df9070040
:1027780000017800010078008202780000027800e9
:102788000200200003282400050078008400780057
:102798000000be0073f9070000017800010078000e
:1027a800820278000002780002f02f00f3772400fc
:1027b80005007800840078000000be0023f80700b8
:1027c8000000e0001d003400200880000040a00048
:1027d8000050a000200888001e0178009e0190008b
:1027e800001c2e0041c624005ef907000001780095
:1027f80001007800820278000002780002002000c0
:102808000338240005007800840078000000be002a
:1028180054f907000001780001007800820178006f
:102828000001780003007800820078000000be00f4
:1028380008f80700d0088800400037001e0178001b
:102848009e019000001c2e0041c6240045f9070097
:102858000001780001007800820278000002780008
:102868000200200003282400050078008400780076
:102878000000be003bf90700000178000100780065
:102888008201780000017800030078008200780057
:102898000000be00eff70700d008880027003700c7
:1028a8001e0178009e019000001c2e0041c62400e5
:1028b8002cf90700000178000100780082027800f6
:1028c80000027800020020000310240005007800b0
:1028d800840078000000be0022f90700000178009b
:1028e8000100780082017800000178000300780078
:1028f800820078000000be00d6f70700d0088800e4
:102908000e0037001e0178009e019000001c2e006a
:1029180041c6240013f9070000017800010078007f
:1029280082017800000178000300780082007800b6
:102938000000be00c7f70700d008880000000000ac
:102948000080fa00000006000000fa0002ccbf0078
:102958000000a1000010a1000020a10002ecb700b7
:1029680000962000206088001061800000a0a00070
:1029780000b0a0001061880023cca80023eca800b8
:1029880030002000206188001062800000a0a000b4
:1029980000b0a0001062880043cca80043eca80057
:1029a800300020002062880001eca8000000000030
:1029b8000080fa00000006000600fa00008fbe0042
:1029c800220798002e009000e10f500005003a0001
:1029d8001e0178009e019000528e8800638e880048
:1029e800070037002e0090000000e00004003a00c5
:1029f8001e0178009e019000928e8800a38e8800a8
:102a0800000000000080fa00000006000000fa0044
:102a1800889fbe008a9fbe00748e8000858e8000cd
:102a2800508e8000618e80000001be000400be0050
:102a380084f707000000e00015003d00588e800074
:102a4800698e80007a8e80008b8e8000e081800005
:102a58006100b900bbf707000001be000a00be0014
:102a6800dbf7070000017800010078008202780097
:102a7800000278000801be00050078008400780094
:102a88000000be002a020700708e8800818e880030
:102a9800748e8000858e8000508e8000618e80004c
:102aa8000001be000400be0068f707000000e00057
:102ab80015003400588e8000698e80007a8e800060
:102ac8008b8e8000e08180006100b9009df70700cf
:102ad8000001be000a00be00b4f70700000178003c
:102ae8000100780082027800000278000801be0028
:102af80005007800840078000000be00f50107009a
:102b0800708e8800818e8800708e8000818e800093
:102b18006011b8004df707000000e0001e00340007
:102b2800708e8000818e800002002000031c24002b
:102b38006bf9070000017800010078008202780034
:102b480000027800c0818000d18180000001be00b1
:102b580005007800840078000000be009cf707009c
:102b680000017800010078008201780000017800f7
:102b780003007800820078000000be0056f70700c6
:102b880030618800c0818000d181800052f7070041
:102b9800706188001e003700c0818000d1818000ec
:102ba8004df7070030618800708e8000818e8000ac
:102bb80001f0a20002002000031c240048f90700cd
:102bc8000001780001007800820278000002780095
:102bd800c0818000d18180000001be00050078001e
:102be800840078000000be0079f707000001780033
:102bf8000100780082017800000178000300780065
:102c0800820078000000be0033f70700706188007a
:102c1800b48e8000c58e8000908e8000a18e8000ca
:102c28000001be000400be0006f707000000e00037
:102c380015003d00988e8000a98e8000ba8e800015
:102c4800cb8e8000e08180006100b9003df707006d
:102c58000001be000a00be005df707000001780011
:102c68000100780082027800000278000801be00a6
:102c780005007800840078000000be00ac01070061
:102c8800b08e8800c18e8800b48e8000c58e80000a
:102c9800908e8000a18e80000001be000400be005e
:102ca800eaf607000000e00015003400988e800066
:102cb800a98e8000ba8e8000cb8e8000e0818000d3
:102cc8006100b9001ff707000001be000a00be003e
:102cd80036f70700000178000100780082027800ca
:102ce800000278000801be00050078008400780022
:102cf8000000be0077010700b08e8800c18e8800f2
:102d0800b08e8000c18e80006011b800cff6070039
:102d18000000e0001e003500b08e8000c18e8000eb
:102d280002002000031c2400edf8070000017800d1
:102d3800010078008202780000027800c0818000db
:102d4800d18180000001be00050078008400780071
:102d58000000be001ef7070000017800010078009f
:102d68008201780000017800030078008200780072
:102d78000000be00d8f6070070628800c08180009d
:102d8800d1818000d4f60700306288001e00370029
:102d9800c0818000d1818000cff607007062880072
:102da800b08e8000c18e800001f0a20002002000d9
:102db800031c2400caf8070000017800010078000d
:102dc8008202780000027800c0818000d1818000f2
:102dd8000001be0005007800840078000000be00f5
:102de800fbf60700000178000100780082017800f6
:102df8000001780003007800820078000000be001f
:102e0800b5f6070030628800000000004f05be00dc
:102e18004f04be000080fa00000006000a00fa0015
:102e28002007980031079800420798000040eb00ff
:102e3800004f78009e407800e0cfb30000c06800e3
:102e4800004f78002e0090004800de008040780097
:102e58001e40780000c06800004f78002e009000e7
:102e6800804078001e40780000c06800004f78005d
:102e78003e0090004800de00804078001e40780048
:102e880000c06800004f78003e0090008040780045
:102e98001e40780000c06800004f78000000eb007a
:102ea800100798000c0037001e009000e80047004b
:102eb80011004000104078009e40780000c0680073
:102ec800004f78000e80e8008e80e8001108e800c6
:102ed80090007800110798009e0090003e00900036
:102ee800808f5000f0ff35001e4078000080fa0007
:102ef800000006001200fa00889fbe0060079800d4
:102f080071079800020f98000f0478000f007800ee
:102f18008004780064004700ee004700620020004b
:102f28001108410090017800230798002e009000b6
:102f38008000e900310798000000e8000000d10097
:102f4800800040000f007800818747006000400043
:102f5800400798000000eb00100798009e009000c2
:102f68000e80e8000108e8001001780012079800b8
:102f78004e00900001004000e1cfb3000148780006
:102f88006e009000c880de001e0190000e80e800f0
:102f98000208e80090017800130798008140780043
:102fa8004e00900002004000014878009e0090000a
:102fb8000e80e8000108e800100178001207980068
:102fc8006e009000004178004e0090000100400023
:102fd800024878007e009000c880de001e01900044
:102fe8000e80e8000208e8009001780013079800b6
:102ff800814078004e0090000200400001487800af
:103008009e0090000e80e8000108e800100178009a
:10301800120798007e009000004178004e00900052
:1030280001004000024878000000eb00000f780023
:103038000d0037001e007800f000470091004000a6
:103048001e0190000e80e8000208e8009001780058
:1030580013079800914078004e009000020040004d
:10306800014878001e0fe8007e0090009e0078005e
:10307800808f5000efff35000e099000fe00900091
:103088006e00900065ff0700204f98009e0090009a
:103098000e80e8000108e800100178001207980087
:1030a8004e00900001004000ae49900003487800af
:1030b8004e009000ae0090000e01070089077800ce
:1030c80000000000880778004f04be000080fa0066
:1030d800000006000400fa0020479800b081800034
:1030e800e30f500026003200e30f500007003c00b9
:1030f800e10f500013003200e10f500018003c00af
:103108000000e0000800320053003700e50f5000cf
:1031180031003200e50f500020003500e60f500066
:103128003b0032004c0037002e409000e24f400038
:1031380046003a003430ef0010002000b0818800cb
:10314800420037000e80e8001080fb004800dd00d8
:103158008081880020002000b08188003e00370070
:103168000e80e8001080fb008181800000807000e4
:103178008081880030002000b08188003600370048
:103188000e80e8001080fb004800dd009081880078
:1031980040002000b08188002f0037000e80e80032
:1031a8001080fb0091818000008070009081880071
:1031b8003430ef00908180000000e00003003a0006
:1031c80060002000b08188002300370050002000f4
:1031d800b081880020003700a18180000100e8004c
:1031e800a08188008014210001004000ae409000ba
:1031f80001487800a181800090818000808f500074
:103208001400350060002000b081880011003700ec
:10321800918180008081800082142100fffe0700d8
:10322800004f78002e4090009e40780080cf5000dc
:1032380004003a009181800080818000821421007e
:10324800080007003630ef000300370000000000d8
:103258000100370000000000000000000080fa00b4
:10326800000006000600fa00000f78001107980019
:1032780022079800000000000080fa000000060005
:103288000400fa00008fbe006011b8001e0078002c
:103298009e0090006df507000000e0000300350077
:1032a8001e0078009e009000030037001e00780082
:1032b8009e00900001f0a2008001780001017800d2
:1032c80003007800820078000000be000080fa0049
:1032d800000006000800fa00008fbe0022079800d0
:1032e800330798002e019000be0190001e00780060
:1032f8009e00900055f507000000e0000300340030
:103308009e0078001e00900002003700ae0090007a
:103318003e009000810178000001780003007800e9
:10332800820078000000be000080fa00000006005d
:103338000800fa00008fbe002207980033079800a3
:103348002e019000be0190001e0078009e009000a3
:103358003cf507000000e00003003d009e007800f7
:103368001e00900002003700ae0090003e00900062
:10337800810178000001780003007800820078005d
:103388000000be000080fa00000006000c00fa00f1
:10339800008fbe0022079800330798004407980062
:1033a800550798004e019000de0190001e0078003d
:1033b8009e00900025f507000000e000040034009e
:1033c8004e019000de019000028fbe000a00370017
:1033d8002e019000be0190001e0078009e00900013
:1033e80018f507000000e00003003d002e019000e2
:1033f800be019000028fbe009e0078001e00900063
:1034080081017800000178000300780082007800cc
:103418000000be000080fa00000006000400fa0068
:10342800008fbe00b2fd2000930424001e00780027
:103438009e0090004bf6070000017800010078001c
:103448008202780000027800020020004333240042
:1034580005007800840078000000be0020f707000f
:10346800000178000100780082007800810178006e
:103478000001780003007800820078000000be0098
:103488000080fa00000006000400fa00008fbe0069
:10349800b2fd2000930424001e0078009e009000d6
:1034a8000ff7070000017800010078008202780019
:1034b8000002780002002000433324000500780051
:1034c800840078000000be0026f60700000178009e
:1034d80001007800820078008101780000017800fe
:1034e80003007800820078000000be000080fa0027
:1034f800000006000600fa0010079800210798004f
:103508000040eb00004f78005b000700ae00900021
:10351800808f500013003d000040eb00004f780002
:10352800080037001e80fb008e80e8001100400074
:10353800104078000e0007001e4078000040e800a8
:10354800004f78001e80fb00ae009000808f500076
:10355800f4ff3c00310007000004e00001003a00dd
:1035680024000700000000000080fa0000000600a8
:103578000200fa00004f7800f180800080042100ea
:10358800010040001e487800f08080000000e8003c
:10359800f0808800f1808000f0072000808f5000c4
:1035a800010034001e30ef00000000000080fa0027
:1035b800000006000200fa0001818000800421005a
:1035c80001004000104f7800008180000000e800f2
:1035d8000081880001818000f0072000808f500062
:1035e800010034002030ef001e4078000080fa000f
:1035f800000006000200fa0010c0b30026f0b70071
:10360800ecff0700004f78001e80fb0020118800a7
:10361800000000000080fa00000006000000fa0028
:1036280026d0bf000080fa00000006000200fa0061
:10363800f180800000818000808f500005003500f7
:10364800f18080000081800000805000000f780029
:103658000600370001818000f080800080805000e3
:103668000008200001005000000f78001e007800bc
:103678000080fa00000006000200fa00ebff0700d5
:10368800800078000008200001005000000f78003a
:103698001e0078000080fa00000006000000fa0012
:1036a80021e3a9002143a800001980000080a1009f
:1036b8000090a100001988002043a900001980008b
:1036c8000050a0000060a0000070a0000019880051
:1036d8001019800000d0a10000e0a10000f0a100b6
:1036e800101988002343a800101980000080a10049
:1036f8000090a100101988001119800030f82f00df
:10370800008060000040a000101988002203a90072
:103718002223a90025e3a900f0c0b30024e3b700e1
:1037280021198000f00f2e008080600000f020003a
:1037380001007000201988003303a9001e0ea8009c
:103748001f0ea8001f2ea8001f4ea8001f6ea8005d
:103758003003a8003103a8003123a8003143a80092
:103768003163a8004119800000fe2f00008060002e
:103778004019880028e3a90001a8a90021a8a800e9
:1037880021e3a800000000000080fa000000060005
:103798000000fa002023a800000000000080fa00c2
:1037a800000006000000fa00e01e21000080fa0078
:1037b800000006000000fa0045d0bf000080fa00b3
:1037c800000006000000fa004570ef00000000004d
:1037d8000080fa00000006000000fa008174200052
:1037e8009140780000ccb30000c060007041b30085
:1037f80048e7b700313a800000e02f008080600081
:103808008005200001007000303a8800203a8000ce
:103818000060a1000070a100203a8800213a8000d1
:1038280000fe2f00008060000000a000203a880001
:1038380012c0b30080c7b300a1c9b300337420001d
:10384800804978008149780082497800103a8000e0
:1038580000407800004178000204a00060c4b30072
:1038680071c5b3002374200080497800814978002d
:103878008249780000000000103a80004c00de0009
:1038880067406000e14f5000fbff3a005927a8004d
:10389800c03a80000000a0000010a1000020a10094
:1038a800c03a88005ac7bf000000a0000010a0005e
:1038b8000020a0005ae7b700c03a80000050a100dd
:1038c8000060a0000070a000c03a880059a7a800b6
:1038d80059e7a80000000000c03a80004e00de0052
:1038e80061406000e14f5000fbff3a00000000001b
:1038f800103a80004500de0061406000e14f500052
:10390800fbff3a00000000000080fa0000000600fb
:103918000200fa00004f78003e0007000000e000b7
:103928000c003400f1818000800c2100010040006f
:103938001e487800f08180000000e800f0818800cf
:10394800f1818000f0072000808f500001003400d2
:103958003e30ef00000000000080fa000000060082
:103968000200fa0001828000800c21000100400062
:10397800104f7800008280000000e8000082880074
:1039880001828000f0072000808f50000100340081
:103998004030ef001e4078000080fa00000006006a
:1039a8000000fa00f181800000828000808f5000c2
:1039b8000200320010c0b300010037000040eb00e5
:1039c8000080fa00000006000200fa00f181800081
:1039d80000828000808f500005003500f181800052
:1039e8000082800000805000000f78000600370039
:1039f80001828000f0818000808050000008200053
:103a080001005000000f78001e0078000080fa00c6
:103a1800000006000200fa00ebff070080007800b3
:103a28000008200001005000000f78001e007800f8
:103a38000080fa00000006000000fa002002a90039
:103a4800001180000010a1000020a10000118800d2
:103a580020a2a9002062a8001008200040118800b8
:103a680023a2a90023e2a9000188a9002188a800af
:103a7800101180000060a1000070a10010118800e2
:103a88000168a9002168a80021e2a8002342a80033
:103a9800000000000080fa00000006000600fa009e
:103aa80010079800210798000040eb00004f7800ad
:103ab8000040eb00004f78001100370000000000c4
:103ac800101180004900de00614060000004e00041
:103ad800fbff3a009e0090000e80e8000108e80015
:103ae8001001780012079800114078000080fb0050
:103af800201188001e4078000040e800004f780040
:103b08001e80fb00ae009000808f5000ebff3c0051
:103b1800000000000080fa00000006000000fa0023
:103b28000e2eef001e2eef003e2eef002e2eef0081
:103b38004e2eef006e2eef0080cea90080aea900b9
:103b4800808ea900816ea900714ea900000ea900ff
:103b5800012ea90091eea900014ea900706ea900de
:103b6800180007002136800000f82f000080600050
:103b78002001b300203688008134800000fc2f002b
:103b8800008060000000a000803488000300070067
:103b9800000000000080fa00000006000000fa00a3
:103ba80021742000620420007305200082487800f8
:103bb8008348780042c7a800000000000080fa008f
:103bc800000006000000fa002174200062042000b2
:103bd80073052000824878008348780042c7a9000e
:0c3be800000000000080fa000000060051
:020000040000fa
:103bf40000100000100000008000000042100000cf
:103c0400020000008200000067060000101000009f
:103c14000e000000800000002810000008000000d2
:103c24008200000000007a004400000048420000c6
:103c3400c8110000260000008000000038100000b9
:103c44000600000082000000000048004205000059
:103c5400ee1100000a000000800000004410000083
:103c640002000000800000004810000080000000f6
:103c7400800000001e1000000a0000008000000008
:103c8400c810000080000000800000003e1000000a
:103c940004000000800000004811000080000000c3
:103ca40080000000301000000800000080000000c8
:103cb4004610000002000000800000000000000028
:020000040000fa
:0200000401f009
:04000800cfffff0027
:020000040000fa
:0200000401f009
:04000c00f9ffff00f9
:020000040000fa
:0200000401f009
:040010005bffff0093
:020000040000fa
:0200000401f009
:040014007fffff006b
:020000040000fa
:0200000401f009
:04001800cfffff0017
:020000040000fa
:0200000401f009
:04001c00deffff0004
:020000040000fa
:0200000401f009
:04002000cfffff000f
:00000001FF
