:020000040000fa
:080000000002040000000000f2
:020000040000fa
:04000800f8030000f9
:020000040000fa
:04000c00f8030000f5
:020000040000fa
:04001000f8030000f1
:020000040000fa
:04001400f8030000ed
:020000040000fa
:04001800f8030000e9
:020000040000fa
:04001c00f8030000e5
:020000040000fa
:04002000f8030000e1
:020000040000fa
:04002400f8030000dd
:020000040000fa
:04002800f8030000d9
:020000040000fa
:04002c00f8030000d5
:020000040000fa
:04003000f8030000d1
:020000040000fa
:04003400fa020000cc
:020000040000fa
:04003800f8030000c9
:020000040000fa
:04003c00f8030000c5
:020000040000fa
:04004000f8030000c1
:020000040000fa
:04004400f8030000bd
:020000040000fa
:040048003a03000077
:020000040000fa
:04004c00f8030000b5
:020000040000fa
:04005000f8030000b1
:020000040000fa
:04005400b0030000f5
:020000040000fa
:04005800840300001d
:020000040000fa
:04005c005e0300003f
:020000040000fa
:04006000f8030000a1
:020000040000fa
:04006400f80300009d
:020000040000fa
:04006800f803000099
:020000040000fa
:04006c00f803000095
:020000040000fa
:04007000f803000091
:020000040000fa
:04007400f80300008d
:020000040000fa
:04007800f803000089
:020000040000fa
:04007c00f803000085
:020000040000fa
:04008000f803000081
:020000040000fa
:04008400f80300007d
:020000040000fa
:04008800f803000079
:020000040000fa
:04008c00f803000075
:020000040000fa
:04009000f803000071
:020000040000fa
:040094004403000021
:020000040000fa
:04009800f803000069
:020000040000fa
:04009c00f803000065
:020000040000fa
:0400a000f803000061
:020000040000fa
:0400a400f80300005d
:020000040000fa
:0400a800f803000059
:020000040000fa
:0400ac00f803000055
:020000040000fa
:0400b000f803000051
:020000040000fa
:0400b400f80300004d
:020000040000fa
:0400b800f803000049
:020000040000fa
:0400bc00f803000045
:020000040000fa
:0400c000f803000041
:020000040000fa
:0400c400f80300003d
:020000040000fa
:0400c800f803000039
:020000040000fa
:0400cc00f803000035
:020000040000fa
:0400d000f803000031
:020000040000fa
:0400d400f80300002d
:020000040000fa
:0400d800f803000029
:020000040000fa
:0400dc00f803000025
:020000040000fa
:0400e000f803000021
:020000040000fa
:0400e400f80300001d
:020000040000fa
:0400e800f803000019
:020000040000fa
:0400ec00f803000015
:020000040000fa
:0400f000f803000011
:020000040000fa
:0400f400f80300000d
:020000040000fa
:0400f800f803000009
:020000040000fa
:0400fc00f803000005
:020000040000fa
:04010000f803000000
:020000040000fa
:04010400f8030000fc
:020000040000fa
:04010800f8030000f8
:020000040000fa
:04010c00f8030000f4
:020000040000fa
:04011000f8030000f0
:020000040000fa
:04011400f8030000ec
:020000040000fa
:04011800f8030000e8
:020000040000fa
:04011c00f8030000e4
:020000040000fa
:04012000f8030000e0
:020000040000fa
:04012400f8030000dc
:020000040000fa
:04012800f8030000d8
:020000040000fa
:04012c00f8030000d4
:020000040000fa
:04013000f8030000d0
:020000040000fa
:04013400f8030000cc
:020000040000fa
:04013800f8030000c8
:020000040000fa
:04013c00f8030000c4
:020000040000fa
:04014000f8030000c0
:020000040000fa
:04014400f8030000bc
:020000040000fa
:04014800f8030000b8
:020000040000fa
:04014c00f8030000b4
:020000040000fa
:04015000f8030000b0
:020000040000fa
:04015400f8030000ac
:020000040000fa
:04015800f8030000a8
:020000040000fa
:04015c00f8030000a4
:020000040000fa
:04016000f8030000a0
:020000040000fa
:04016400f80300009c
:020000040000fa
:04016800f803000098
:020000040000fa
:04016c00f803000094
:020000040000fa
:04017000f803000090
:020000040000fa
:04017400f80300008c
:020000040000fa
:04017800f803000088
:020000040000fa
:04017c00f803000084
:020000040000fa
:04018000f803000080
:020000040000fa
:04018400f80300007c
:020000040000fa
:04018800f803000078
:020000040000fa
:04018c00f803000074
:020000040000fa
:04019000f803000070
:020000040000fa
:04019400f80300006c
:020000040000fa
:04019800f803000068
:020000040000fa
:04019c00f803000064
:020000040000fa
:0401a000f803000060
:020000040000fa
:0401a400f80300005c
:020000040000fa
:0401a800f803000058
:020000040000fa
:0401ac00f803000054
:020000040000fa
:0401b000f803000050
:020000040000fa
:0401b400f80300004c
:020000040000fa
:0401b800f803000048
:020000040000fa
:0401bc00f803000044
:020000040000fa
:0401c000f803000040
:020000040000fa
:0401c400f80300003c
:020000040000fa
:0401c800f803000038
:020000040000fa
:0401cc00f803000034
:020000040000fa
:0401d000f803000030
:020000040000fa
:0401d400f80300002c
:020000040000fa
:0401d800f803000028
:020000040000fa
:0401dc00f803000024
:020000040000fa
:0401e000f803000020
:020000040000fa
:0401e400f80300001c
:020000040000fa
:0401e800f803000018
:020000040000fa
:0401ec00f803000014
:020000040000fa
:0401f000f803000010
:020000040000fa
:0401f400f80300000c
:020000040000fa
:0401f800f803000008
:020000040000fa
:0401fc00f803000004
:020000040000fa
:04020000f8030000ff
:020000040000fa
:04020400f8030000fb
:020000040000fa
:04020800f8030000f7
:020000040000fa
:04020c00f8030000f3
:020000040000fa
:04021000f8030000ef
:020000040000fa
:04021400f8030000eb
:020000040000fa
:04021800f8030000e7
:020000040000fa
:04021c00f8030000e3
:020000040000fa
:04022000f8030000df
:020000040000fa
:04022400f8030000db
:020000040000fa
:04022800f8030000d7
:020000040000fa
:04022c00f8030000d3
:020000040000fa
:04023000f8030000cf
:020000040000fa
:04023400f8030000cb
:020000040000fa
:04023800f8030000c7
:020000040000fa
:04023c00f8030000c3
:020000040000fa
:04024000f8030000bf
:020000040000fa
:04024400f8030000bb
:020000040000fa
:04024800f8030000b7
:020000040000fa
:04024c00f8030000b3
:020000040000fa
:04025000f8030000af
:020000040000fa
:04025400f8030000ab
:020000040000fa
:04025800f8030000a7
:020000040000fa
:04025c00f8030000a3
:020000040000fa
:04026000f80300009f
:020000040000fa
:04026400f80300009b
:020000040000fa
:100400002f4821000eff27000e0188000000000089
:10041000000020000000e000020032000001200087
:100420002002880014000700f30007000000e0002d
:1004300003003a00a00b2300010020000200370057
:100440000000200001002000810f70000100320038
:100450000f000700000020000000e0000200320052
:1004600000000200000000006e1102000000000009
:100470000040da000000fe00200020000000e00044
:1004800002003200100020009001880000000600e9
:10049000a1028800800478000000eb001f003700f4
:1004a000e284440054a0b4009905ba00e2844400f8
:1004b00054a0b4009906ba00e284440054a0b400e9
:1004c0000006eb00476fde00fd07b200ae018800ba
:1004d000636ce10003003a000ad801000000eb0061
:1004e0000e003700606ce10008003a00004deb00a0
:1004f0000a05e800020039003420ec000af0a000f0
:100500008b05e900f9ff3e00040037006168e10057
:10051000010032000086eb000b00070019c7ba008b
:100520000e04e0001905ba0003003a000a00e000da
:10053000dbff3a0000000600fe07b200ae028800b2
:100540008a047800f5ff37000cd0a300e20f4d00bd
:100550001c003b0089027800354dba000a05e8000e
:10056000020039003420ec000af0a0008b05e900fd
:100570000f003200254dba000a05e80002003900dc
:100580003420ec000af0a0008b05e90008003200de
:100590000c00e0000600320015cdba000a05e800a4
:1005a000020039003420ec000af0a0008b05e900bd
:1005b0008984e80054a0b4000b00e000e2ff3a0098
:1005c000000006009902ba00055d78008b05e9007d
:1005d000f7ff3200c82ade00055d78008b05e900d0
:1005e000f3ff32000c00e000f1ff320019ddba0029
:1005f000eeff37003600f800809fbe00829fbe00ed
:10060000849fbe00869fbe000000fa000068a9001b
:10061000e115070013110700c20e0700610a070069
:10062000208280008000e800218288009101200063
:1006300001017800110009000200d8008000fd00cf
:100640000000e00001003a00431207009912070081
:10065000d9130700000000000080fa004f03be001d
:100660004f02be004f01be004f00be003600f90031
:10067000004006000000fa000108a9000000000088
:100680000080fa0000400600809fbe000000fa00d3
:100690000368a900e0818000f181800061004000d2
:1006a000e0804800e0818800f181880000000000bf
:1006b0000080fa004f00be0000400600801f780056
:1006c0000000fa0001a8a90000188000c0a388005b
:1006d00010188000d0a3880020188000e0a38800b4
:1006e00030188000f0a388004018800000a4880023
:1006f00010c0b30053f0b700000000000080fa0003
:100700004f007800004006003600f800809fbe00d1
:10071000829fbe00849fbe00869fbe000000fa003c
:100720000188a9005181800040818000808f5000a5
:100730000200320031150700010037003070ef0071
:10074000000000000080fa004f03be004f02be0010
:100750004f01be004f00be003600f9000040060009
:100760003600f800809fbe00829fbe00849fbe00be
:10077000869fbe000000fa000168a90010118000e9
:100780004200de0061406000e14f500001003a008d
:100790002242a900101180000000d10061406000d9
:1007a000e14f500005003a002222a9000300370063
:1007b00030118000004078002416070010118000de
:1007c0000040780061406000e14f5000f8ff3200c7
:1007d000000000000080fa004f03be004f02be0080
:1007e0004f01be004f00be003600f9000040060079
:1007f0000040da000000fe000000050014002000a8
:10080000ad033700f4ff2f00ab0337000001be003b
:100810003f0007000470a70003f0a1006509b100c4
:10082000160032000d0035006828e1000600350092
:10083000f0ff2f00f1ff27000300e00013003b0052
:1008400001002800000005000000400081804800f1
:100850008502e900fcff3a0008003700f88f4200eb
:1008600002003c008000eb00000005008100d10088
:100870000080d3008502e800fcff3a000300e0009e
:1008800002003b0060001000e0801800000006003d
:100890000001be001e0007000470a70003f0a100c5
:1008a00003f8a30013003a006509b10010003200fc
:1008b000090035006928e100020035000100280028
:1008c0000000050000004000818048008502e9002a
:1008d000fcff3a0000000600f88f420005003500da
:1008e0008100d1000080d3008502e800fcff3a00bf
:1008f000000006008000eb00000005004f89de00cc
:1009000082017800870337006011b8009503370033
:10091000c70ade00f107b200f50fb200080032008e
:10092000e1cf4200020032000170a0002400050067
:10093000810f70000100320004080500440005002a
:10094000810f700002003a00140005008502e900e2
:100950000000400081c04800fcff3b000170a00087
:100960002400050007f82700078361000638e1002e
:1009700004003a00f70720008783610087037100b5
:1009800001003a0003f0a200889fbe008a9fbe00cb
:100990008c9fbe00470ade000480a100c71ade005b
:1009a0000580a10007002800078560008785610099
:1009b000f70f20000720e1009e0032000728e10029
:1009c0009c003200010678000400e000b400320010
:1009d000f7072000878060000170a0000500e0009c
:1009e000c0003200f7072000878161000370a0007b
:1009f000050652000f003a000b50e1000b003200d8
:100a00000308e10002003a000200e1007e0032002b
:100a10000204500083845800040031000001fd00ee
:100a20008101fd008402fd008a05fd006044b800dc
:100a3000210037000520e10005003d000001fd0018
:100a40008101fd008402fd008a05fd0005065200bb
:100a50007a60e100050035000170a1004722dd0049
:100a6000848070008a807000630037006044b800a2
:100a7000ef02660007ff2f00070666000500e00092
:100a800006003400f08312008714dd000511de003b
:100a9000071bdd00060171008519de007060e100b2
:100aa000050035000904780082047800030178000d
:100ab0008001eb00700656000b50e10003003a0085
:100ac00002004000838048000400370060041400e6
:100ad000e0841c0002005800838058000188a300b5
:100ae000060032008100d1000080d3008984d30049
:100af0000884d3000402e800270037000178a3002f
:100b000025003a000100e000030032008186cf009a
:100b1000698656000a0037008c0020000000e000c3
:100b200004003a0009007800880478000004eb0013
:100b3000700252008086cf000d0646000c06e900c8
:100b40007060e10006003500800078000900780040
:100b5000880478000004eb00700656007002520012
:100b60000c00e0000c0034008c08dd00f0031600df
:100b70000703de00868070000c00dd00074bde00fe
:100b8000060070008c4cdd000743de008684740094
:100b90000c44dd000c0252006120e1002000350011
:100ba000610160000700280087816400f7ff2700cb
:100bb00087836400070374000300e000060032002e
:100bc00082037300040032000000e800e080480067
:100bd0000188a3000e003a00f70f20000720e10073
:100be0004a003d000170a1004722dd008100720033
:100bf0008a8070000000be004f06be004f05be0098
:100c00004f04be00000006006000b800faff370085
:100c10008100d1000080d3000402e800eeff37001d
:100c20000401780089017400a10107008a80700026
:100c3000f1ff3700f7010700070278000001fd000f
:100c40008101fd00f301070087027800850372002f
:100c50000778a300040032000001fd008101fd00bf
:100c600006020700e4ff3700850362000768a3005f
:100c7000080032000b50e10003003200f0ff2f00ab
:100c8000f1ff2700dcff37000001fd008101fd00be
:100c9000d9ff37000468a300d7ff3200faff3700fe
:100ca000f8ff2700888360000b003a000000e00096
:100cb00009003a008303640082837300020032005b
:100cc0000200be00ccff37000b50e100ceff3a001f
:100cd0000200be00c8ff370014002000810064003d
:100ce0003eff3700f8ff27008883610004003a00c8
:100cf0000200e00002003a008c007800beff3700de
:100d0000150020008301640039ff370001f8270037
:100d10000000200081007500b7ff3700889fbe00eb
:100d20008a9fbe008c9fbe001b0020000202be00f6
:100d30000586680006002800060666004709de00f2
:100d4000f20fb200820032000243e800800032005d
:100d5000c729de00f30fb2007d0032000343e80034
:100d60007b003200f107b2000170a000f507b2006d
:100d70000570a000c708dd004903de008680700012
:100d80004700dd00c72add004923de0086827200ad
:100d90004722dd00030551000403500085835800fd
:100da0000300310000004000818048000a05e9008e
:100db0008c1f78008a9fbe00040050008580580078
:100dc0000402420085824a00000040008180480001
:100dd0000005eb000004be006033b8000406be004e
:100de0000d48e10056003100110009004dccd8003b
:100df0000c01b8000d02b8008481410060824a00f5
:100e00008283530003045c0084845c0060055d0001
:100e10000a00e00025003a00800578000d40e1005e
:100e200049003100880078000700780011000900af
:100e30004d88d8000c01b8000d02b8008481410033
:100e400060824a006003110083835b0004045c003d
:100e5000e0845c000900e00021003a004f01be0080
:100e60000300e0002b003200e3016000070673007e
:100e70008c81710001003200640070004200de00cd
:100e80004e5edd000c007000c258de0001e0a000e4
:100e900083010700cf017800818071004f06be00fa
:100ea0004f05be004f04be00000006008c834300c7
:100eb0000d044c00e0844c0060054d000000e9008a
:100ec0000a00e000d4ff32008c8343000d044c0084
:100ed000e0844c0060054d000000e900ceff3700c3
:100ee0000c0343008d834b0060044c00e0844c00f5
:100ef0000000e9000900e000d8ff32000c034300c5
:100f00008d834b0060044c00e0844c000000e9003d
:100f1000d2ff37004200de004e5edd000c007000a4
:100f2000c258de0001e0a000cf0178000300e0001d
:100f3000daff320060001000e0801800d7ff3700b1
:100f4000f0ff2f00aaff3700f0ff2f00b9ff370096
:100f50000404be002f010700870678000004fd008e
:100f60008104fd002b010700078366000678a300bb
:100f7000030032000960a7000800be002c00370003
:100f80000d78a300020032000800be0028003700e0
:100f90000778a30026003a0001f0a10009f0a100a3
:100fa0000668a30003003200f1ff2700f0ff2f00c6
:100fb000baff37000d68a300030032000800be002e
:100fc0008c807000b5ff37000768a30007003a0067
:100fd0000648a30003003200f1ff2700f0ff2f00b6
:100fe000aeff37000d48a300030032006000b800d8
:100ff0008c807000a9ff37000748a300040032006e
:1010000001f82700000020008c807000a3ff37004b
:10101000760107000004fd008104fd000205780050
:10102000720107000802be008a01780059ff3700ec
:101030000160a00012022000b282880097ff3700f2
:101040000100e000120032000500e0001000320054
:10105000889fbe008a9fbe008c9fbe000006eb00ea
:1010600001f8a3000300320060001000e0801800c7
:101070000cf0a00005f8a30003003200600212008b
:10108000e0821a000cf0a2008005eb0041ff37005f
:101090006000b80002000500038368000700280014
:1010a00007036300470ade000480a100c71ade00c0
:1010b0000580a100f70f20000720e1004200320068
:1010c0000728e10040003200889fbe008a9fbe00d2
:1010d0008c1f7800f107b200f307b2000400e000b3
:1010e000640032000170a0000500e00068003200da
:1010f0000370a00085054200eb07b1000204b800b0
:101100000302b8008484440060854a00020ab800e3
:10111000848444000a854a00030ab8000405450097
:10112000040033000804d0008984d2000a85d2006c
:101130008b05e9006158e1003d00350002102000f8
:10114000090161000308200089816100f707200080
:101150008783640008867300c84cde00c853dd0036
:10116000878474004855de000300e000060032006a
:1011700082037600040032008904e80060054d0017
:101180000a88a3000c003a00f70f20000758e1007e
:1011900044003d000a70a100c75ddd000a857500ae
:1011a0008a007300090078004f0678004f05be00e2
:1011b0004f04be00000006000a05d1008984d30058
:1011c0008b05e800f0ff3700881f780006047800e0
:1011d00090000700070278000001fd008101fd007a
:1011e0008c00070087027800850372000778a3004f
:1011f000050032000001fd008101fd009f00070095
:101200004f04780000000600850372000748a30021
:1012100003003200f0ff2f00f1ff2700f8ff370036
:101220000000200001f8270088807000f4ff3700dc
:10123000880178004848dd00808171004848de0060
:10124000c850dd0001007000c850de0006047800c0
:101250000b0178001600070088807000d2ff37006d
:101260000500e00005003200170020003a000700ea
:101270009dff370081037000f9ff3a008600780077
:101280004f0678004f05be004f04be000000050069
:1012900083037100f9ff3200270020002e000700b1
:1012a00094ff370001f8270086807000f4ff3700b4
:1012b0000100e00026003200610111007810e10019
:1012c00023003c006022b8007010e10004003500eb
:1012d00080027800010078008000eb00700151006e
:1012e0000200e0000900340070031100062add004e
:1012f000822ade008603dd00878272000200de00a3
:10130000860bdd00070070008208de00848171001a
:10131000f4ff270004826200848171000400280029
:10132000848262006102600005f0a60000000600f1
:1013300004827100070032000000e800e0804800ed
:10134000000006000002be006000b800efff37009a
:101350006000b80000000600889fbe000004eb009b
:101360006138e10016003a000100e00008003a0090
:10137000c800de004800dd00880020000100e00019
:1013800003003a00c800de004800dd0068044400a5
:101390008184cf00e9845400060034008908dd0010
:1013a000f08314008703de00878070000900dd00f1
:1013b00009044400610214004f04be00000006004e
:1013c0000300e00008003a00c811de004811dd000b
:1013d000880020000300e00003003a00c811de008e
:1013e0004811dd00680444008384cf00e984540080
:1013f000060034008919dd00f08314008713de0035
:10140000878171000911dd0009044400e102140024
:10141000e9ff37002700200001f0a7001700200097
:10142000470bde00f60fb200040032000643e8006e
:101430000a0032004702b3000000060001037800f2
:10144000f607b2000603700002003a000703b3007b
:10145000000006008702b3000000060001037800c8
:10146000f607b20006037000020032000770a00009
:10147000000006000760a000000006000478a3003a
:10148000040032000578a300030032000168a300c5
:1014900001003a000200be000160a000000006004a
:1014a00081017000270032008002eb0001f8a300e8
:1014b0000300320060001000e080180015002000da
:1014c000f40720000202420020003400f70320004d
:1014d0008703600006042000000363000208200068
:1014e000000161004700de00c909dd0000807100d5
:1014f000c708de000600e000080032008703710024
:10150000060032001000b0000180b0000188a30086
:1015100002003200c108de000402e800f107b20058
:10152000f30f20000320e10003003d004722dd000f
:10153000810072002900370001f827000000eb004d
:10154000260037006000b8000000060068021200a4
:101550007f20e100020034006000b8001f00370067
:101560006011b8007020e1000400350080017800af
:10157000010078008000eb00700252000400e000df
:1015800009003400f00312000719dd008419de00a1
:101590000703dd00868171000400de00070bdd001b
:1015a000060070008408de00f7ff270083836300d5
:1015b0008703710006002800030363000700320060
:1015c0000700e00003003a0061016000028173003f
:1015d000020032001000b0000180b0000500a6003b
:1015e0000000060001f0a000000006004f0ade0027
:1015f0004709de00f107b200f20fb2000b00320023
:10160000f207b1000170a000c708dd00c901de00cb
:10161000838070004700dd000400a6000000060083
:1016200060001000e080180000000600810f7000cc
:1016300001003a00000006008182cf000500e000b2
:1016400010003e008082cf00ee8242007028e10050
:101650000400390007003e00800078000000eb0025
:101660000e003700708312008600de000500dd00ea
:101670000a003700708352008600dd000000eb0096
:1016800006003700e28252008508dd0070831200f8
:101690000603de00868070000500dd007507b000df
:1016a0000501ea000400a60000000600600010002a
:1016b000e080180000000600889fbe008a9fbe00e0
:1016c000841f78007c0007004f0078001100330071
:1016d000f0ff2f00838f6c0006003b0004056500bf
:1016e0000a00a7000800370009f0a600100020003b
:1016f00008003700820f5400838f5c00030039001c
:101700001000200001003e000000200009f0a700aa
:101710000000ea004f05be004f04be000000e000dc
:1017200000000600881f7800030478000300e00032
:1017300007003d0060001000e08018006001190003
:10174000e081190002003b0001f02d00030037008a
:101750000400070008f0a70001f0a0004f04780083
:1017600000000600889fbe008a9fbe0000827000b5
:101770000402710004827100260032000004be00e1
:101780000200be006011b8006b0920009502200025
:101790000182cf000a0039000541b1000082cf006c
:1017a000070039000541b1000982cf00040039006b
:1017b0000541b1000882cf00010039000541b100a8
:1017c00005425200120032000a003b008281710083
:1017d000610164008100d1000080d3008984d300be
:1017e0000884d3008b05e8000442e800f7ff3a00c4
:1017f000070037000804440089844c0000004800ba
:10180000818048008b05e9000442e900f9ff3a00b5
:10181000030007004f05be004f04be000000060095
:1018200081002000618055000b003d000b0020006e
:1018300061fe2f000100e1001d0034008281710073
:10184000610164008904d1000884d3000000e8002d
:10185000faff3a007100200061006400030070008c
:10186000020060000900320061044400e0844c0082
:101870000988a500050032008b05e8006808e10032
:1018800002003a008904d1000884d300f20f20003e
:101890000258e10005003d00c75ddd00f907b20018
:1018a0008980750008007800000006000bf827000a
:1018b0008b007800000005000004be0014fc070047
:1018c0000003be000405be000200be0010fc0700bd
:1018d000844f7500000006000400fa000001780043
:1018e0008101780003f0a100a4fd200095f42300fd
:1018f000840f5100858f59000e003e00f4ff2f0029
:10190000f5972300840f5100858f59003a003e005f
:101910000200200003b827001bfc0700e0bf9f0067
:10192000f1bf9f000000200001f823000080fa00b2
:10193000000006004f0ade0005002000163d2500cd
:10194000b7072400860f5100878f59001b003e0007
:1019500036be2c0067012400860f5100878f590086
:101960000a003600b2fd2000930424000400e000c9
:101970000400320004fc07005b01070001f0a20034
:10198000eaff3700f7fb0700fbff37000400e00029
:1019900005003200b2fd200093fc2300fafb070093
:1019a000dc010700e1ff37000001be00b0fd2000b0
:1019b00091fc2300ebfb0700f9ff3700561d2300c5
:1019c000270e2400860f5100878f590014003e0017
:1019d000f6dd2e00f70a2400860f5100878f59008c
:1019e00009003600b2fd2000930c24000400e00042
:1019f00003003200e4fb07003b010700cbff370088
:101a0000d8fb0700fcff37000400e00001003200b3
:101a100001f0a20042be2c0063092400e5ff37005c
:101a2000f4ff2f00f5f72700840f5100858f590030
:101a3000040036000001be000200be00c9fb070022
:101a4000baff3700648157005b0107006301600043
:101a50006fb89700ffb89700e10f51000500320002
:101a6000e20f5100c4ff32000200e000ccff3a0058
:101a7000e1ff370001f0a200c9ff37000400fa00bf
:101a8000889fbe008a9fbe000203410083834900f5
:101a9000e00f5300e08f5b0010003200020278007c
:101aa0008302780005f0a1000800200009f8270053
:101ab000880f5200898f5a0008003e00a0bf9f0087
:101ac000b1bf9f00470dde000b002000f40f200087
:101ad0000a056200840f550007003a006efd0700fa
:101ae0000001be008dfc07004f05be004f04be0084
:101af0000080fa00000006000002400081824800d9
:101b0000840f5300858f5b0006003900840f53005b
:101b1000858f5b00f4ff3a006011b8005efd07009e
:101b2000f1ff37000a00e0004c003a002fbb97009d
:101b3000bfbb9700493add00c732de008502720064
:101b40004932dd00e00f5200e08f5a003f003d00b7
:101b5000610215002fbb9700bfbb970004047800fb
:101b60000804e900030033000603430087834b00a9
:101b7000fbff37000602be00471bde000700200007
:101b80000683fb000600e0003d003a00491cdd0032
:101b9000c714de00890474004914dd00e00f54000e
:101ba000e08f5c0032003d00e10313000204be0040
:101bb0008703e900030033000804440089844c00d3
:101bc000fbff37000801520089815a00860f55003b
:101bd0002f003c00e00f5100e08f59000400350059
:101be000e00f5100e08f5900cbff32000202be002f
:101bf0004728de0001002000e00f5000e08f580071
:101c00002e0032000a00e000300034000000200006
:101c100001f82f0004024000858248006150b9009d
:101c2000c700dd0000002000040070008580700007
:101c30006022b80002002800bfb99700830261004b
:101c40000000720081807200a7ff37000a05e900da
:101c50000402420085824a00baff37002fba97007b
:101c6000bfba9700f507b2000570a000c2ff3700a9
:101c70000603e9000804440089844c00c7ff3700cc
:101c80000204be00f907b2000970a000cdff3700c2
:101c9000e00f5100e08f590004003500e00f5100c3
:101ca000e08f59009cff32000202be000402420095
:101cb00085824a000a05e900c2ff3700040242009b
:101cc00085824a000a05e900c9ff37006105150051
:101cd0000400be000a05e900030033008100d100c2
:101ce0000080d300fbff3700d1ff37000400fa006b
:101cf000889fbe000004be008900780001f0a100aa
:101d0000a4fd200095f42300840f5000858f580017
:101d10001e003e00f4ff2f00f5972300840f5000b3
:101d2000858f580016003e006000b80003f82700b9
:101d300089806100e00f5000e08f58000b003a00ee
:101d400002002000033820000800be00d2fc07007b
:101d50000001be00c2bf9f00d3bf9f000800be00ad
:101d60004f04be000080fa000000060002002000c0
:101d700003b827000800be0003fb0700f4ff37008c
:101d80000800be00e3000700180037004f49de00de
:101d900003002000143d2500b5072400840f5000e7
:101da000858f58001d003e0034be2c0065012400c4
:101db000840f5000858f58000e003e000800be00c2
:101dc0000200e000b2fd200093fc23000500320079
:101dd000edfa0700440007000004be0009f0a2006d
:101de000deff3700dffa07003f0007000004be00f7
:101df000daff37000800be000200e000b2fd20005c
:101e00009304240003003200dffa070001f0a2006f
:101e1000dcff3700d3fa0700fcff3700541d230016
:101e2000250e2400840f5000858f580017003e00b7
:101e3000f4dd2e00f50a2400840f5000858f580031
:101e400009003e000800be000200e00042be2c0077
:101e50006309240002003200cbfa0700e2ff3700da
:101e6000c0fa0700dbff37000800be000200e000f8
:101e7000b2fd2000930c240002003200c2fa0700d9
:101e8000c0ff3700b7fa0700beff3700f2ff2f0090
:101e9000f3f72700820f5000838f580005003600ab
:101ea0000801be000800be00aefa07000004be0034
:101eb000aaff3700688157000800be003e000700f7
:101ec000630160004fb89700dfb89700e10f510041
:101ed000c5ff3200e20f5100ccff32000200e000eb
:101ee000bcff3a00a7ff37000400fa00889fbe003d
:101ef0008a9fbe008c9fbe000001be0066fc0700ea
:101f00000004be000001be0063fc07000005be0027
:101f10000200200003f02b000800be005efc07005a
:101f20000200200003f8230097fa07000006be0015
:101f3000f2a92a00a3d223000a00be0056fc070023
:101f40000001be000c00be008ffa07000002be00b8
:101f500072a12900c37c23000800be0084bf9f003b
:101f600095bf9f004cfc0700f243200063ab2300a9
:101f70007cfa07000006be000a01be000800be0091
:101f800045fc07000001be000c00be0042fc07003b
:101f90000001be000fba97009fba97000400be0070
:101fa00079fa07004f06be004f05be004f04be0081
:101fb0000080fa00000006000400fa00889fbe00be
:101fc0008a9fbe008c9fbe000006780081047800c6
:101fd0008206780001f0a100a2fd200093dc24001d
:101fe000820f5000838f580023003e0032982f004c
:101ff00023f223008900780027fc0700020020005c
:1020000003b4240060fa07000200200003b4240097
:1020100054fa07000005be00fcf907000004780030
:10202000a2fd200093fc23000a00be001afc07005a
:102030000001be000c0078008900780049fa070012
:102040000002be00325a2800832823000a00be0086
:1020500084bf9f0095bf9f000ffc07000001be00da
:102060000fba97009fba97000400be003dfa070020
:10207000808ebe000b003700f2ff2f00f3f7270021
:10208000820f5000838f58000c003600000178004a
:10209000890178008900780032fa0700808ebe003e
:1020a0000004eb00080078004f06be004f05be009c
:1020b0004f04be000080fa0000000600890078008e
:1020c0004c0007000005be0032982f0023f22300c9
:1020d000f1fb07000200200003f023002afa0700aa
:1020e00055000700000478008efd070032982f008d
:1020f00023f2230009fb07000001be000a00be0016
:1021000018fa07006000b800a0069800b106980011
:10211000d7ff37000400fa00889fbe008a9fbe00e8
:102120008c9fbe000006be000001be00dafb070067
:102130000004be000001be000c00be00d6fb07007c
:102140000005be000801be000800be00d2fb07006b
:102150000a01be00d0fb07000002be00c2c3260079
:10216000636323000800be0084bf9f0095bf9f00eb
:10217000c9fb0700f27c200003952300f9f9070052
:102180000001be000fba97009fba97000400be007e
:10219000c1fb07000002be004288280083c0230064
:1021a0000800be0084bf9f0095bf9f00bafb0700d8
:1021b000b2aa2a00a3e22300eaf907000a01be003e
:1021c000b5fb07000c01be00eff907000001be00df
:1021d0000fba97009fba97000400be00eaf9070003
:1021e0004f06be004f05be004f04be000080fa003f
:1021f000000006000400fa006011b800e2bf9f0072
:10220000f3bf9f006fbb9700ffbb97000002be00ab
:10221000f0ff2f00f1ff2f00f2ff2f00f3ff270048
:10222000000062008180620002016300838163001c
:102230000080fa00000006000003be00b4f90700a9
:102240006011b8000470a70007f0a1006509b10093
:102250001b00320012003500860220000628e10033
:1022600008003500f3ff2700f2ff2f006110b900ce
:102270000700e00018003b00030028006000b800e1
:102280000200050000004000818048000201490072
:10229000838149008502e900faff3a00080037000f
:1022a000f88f420002003c008000eb0000000500b7
:1022b0008100d1000080d3008502e800fcff3a00d5
:1022c0000700e00004003b0060001000e080180000
:0c22d00060011900e08119000000060008
:020000040000fa
:1022dc000a00fa00bf0e07000c0f07003e080700ab
:1022ec00310807000b090700820207006a0e07007d
:1022fc00da0f0700c8090700cf0907000600200005
:10230c00070024000400200005f823000200200030
:10231c0003f823006000b800450b0700854ea800a9
:10232c00802521008040eb0061689800a00e07001a
:10233c00e14f500009013a00a10e0700980e07006a
:10234c00100798001e009000100078008000eb0031
:10235c006af9070032332300330524004bfb0700d6
:10236c0000017800010078008202780000027800f9
:10237c000200200003582400050078008400780037
:10238c000000be0062fa0700200798003107980091
:10239c002e019000be01900000002000812024003e
:1023ac005bfa0700000178000100780082027800d7
:1023bc000002780002002000030a240005007800c7
:1023cc00840078000000be0063f9070080017800eb
:1023dc000101780003007800820078000000be0044
:1023ec0010948800219488000e80e8001080e8008a
:1023fc00100078008000eb0040f907003233230016
:10240c003305240021fb070000017800010078004f
:10241c008202780000027800020020000358240099
:10242c0005007800840078000000be0038fa070030
:10243c0020079800310798002e019000be019000f3
:10244c00000020008120240031fa070000017800f0
:10245c00010078008202780000027800020020005f
:10246c00030a240005007800840078000000be00f8
:10247c0039f9070080017800010178000300780029
:10248c00820078000000be00f09388000194880060
:10249c000e80e80041002000108040001000780001
:1024ac008000eb0015f907003233230033052400bc
:1024bc00f6fa07000001780001007800820278002b
:1024cc000002780002002000035824000500780068
:1024dc00840078000000be000dfa07002007980069
:1024ec00310798002e019000be01900000002000e2
:1024fc008120240006fa0700000178000100780012
:10250c00820278000002780002002000030a2400f6
:10251c0005007800840078000000be000ef907006a
:10252c0080017800010178000300780082007800b7
:10253c000000be00d0938800e19388000e80e80074
:10254c006100200010804000100078008000eb003b
:10255c00eaf807003233230033052400cbfa0700d6
:10256c0000017800010078008202780000027800f7
:10257c000200200003582400050078008400780035
:10258c000000be00e2f90700200798003107980010
:10259c002e019000be01900000002000812024003c
:1025ac00dbf9070000017800010078008202780056
:1025bc000002780002002000030a240005007800c5
:1025cc00840078000000be00e3f80700800178006a
:1025dc000101780003007800820078000000be0042
:1025ec00b0938800c19388000e80e8008100200021
:1025fc0010804000100078008000eb00bff807004e
:10260c003233230033052400a0fa070000017800c0
:10261c00010078008202780000027800020020009d
:10262c000358240005007800840078000000be00e8
:10263c00b7f9070020079800310798002e01900089
:10264c00be0190000000200081202400b0f907009a
:10265c000001780001007800820278000002780006
:10266c0002002000030a2400050078008400780092
:10267c000000be00b8f80700800178000101780066
:10268c0003007800820078000000be009093880060
:10269c00a1938800109480002194800002002000f7
:1026ac00031f240054f807000000e000020034006f
:1026bc0084cea9000100370084cea800f0938000de
:1026cc000194800002002000031f24004af8070038
:1026dc000000e0000200340084aea90001003700c5
:1026ec0084aea800d0938000e1938000020020000b
:1026fc00031f240040f807000000e0000200340033
:10270c00848ea90001003700848ea800b09380004d
:10271c00c193800002002000031f240036f807003c
:10272c000000e00002003400856ea90001003700b3
:10273c00856ea80090938000a19380000200200079
:10274c00031f24002cf807000000e00002003400f6
:10275c00754ea90001003700754ea8000000eb0073
:10276c00000f780005003700490e0700004f980055
:10277c000e4890002b0407001e0fe8005e0e0700a9
:10278c009e007800808f5000f7ff3500e7fe370081
:10279c000000fa0026d0bf000080fb006100b900e9
:1027ac00b200200003002000820f5000838f5800dd
:1027bc0073003e00000601000b00370011003700cb
:1027cc001e00370024003700290037003000370086
:1027dc00350037003c003700410037004e00370011
:1027ec0053003700600037003c30ef003e30ef0004
:1027fc006011b8006000b800eb02070010c0b30015
:10280c0026f0b7008025210060689000e14f500051
:10281c005d003a00e2818000f3818000803e200060
:10282c0001002000800f5100818f590056003600a6
:10283c0020c0b30026f0b700530037006011b80079
:10284c0000002000011f2400d702070030c0b30095
:10285c0026f0b7005b0037008025210060689000ef
:10286c00e14f50004a003a00590007004800370079
:10287c00c2d529009320240000002000010e240062
:10288c00c902070050c0b30026f0b7004d00370056
:10289c008025210060689000e14f50003e003a0016
:1028ac004b0007003c003700c2d5290093202c00b8
:1028bc0000002000010e2400bb02070070c0b30012
:1028cc0026f0b7003f00370080252100606890009b
:1028dc00e14f500032003a003d0007003000370055
:1028ec00c2d52900932824006000b800ae0207006e
:1028fc00e2818000f3818000401f20000100200055
:10290c00800f5100818f59002700360090c0b30012
:10291c0026f0b70024003700802521006068900065
:10292c00e14f500022003a00290007002000370038
:10293c00c2d5290093282c006000b8009a02070029
:10294c00e2818000f3818000401f20000100200004
:10295c00800f5100818f590017003600b0c0b300b2
:10296c0026f0b70014003700802521006068900025
:10297c00e14f500012003a0015000700100037001c
:10298c002670ef000f003700000000000d0037002c
:10299c00000000000b0037000000000009003700a9
:1029ac0000000000070037000000000005003700a1
:1029bc000000000003003700000000000100370099
:1029cc0000000000000000000080fa00000006007b
:1029dc000000fa002430ef00109480002194800055
:1029ec0002002000c320240081f707000000e00053
:1029fc0003003d00208180000000a00020818800a1
:102a0c00f093800001948000020020000322240037
:102a1c0077f707000000e00003003d0020818000f4
:102a2c000010a00020818800d0938000e1938000ea
:102a3c0002002000032224006df707000000e000d4
:102a4c0003003d00208180000020a0002081880030
:102a5c00b0938000c1938000020020000322240068
:102a6c0063f707000000e00003003d0020818000b8
:102a7c000030a0002081880090938000a1938000fa
:102a8c0002002000c320240059f707000000e000da
:102a9c0003003d00208180000040a00020818800c0
:102aac00208180008000eb00f20120000300200058
:102abc00820f5000838f580081003e0000060100f9
:102acc001f00370021003700230037002500370096
:102adc0027003700290037002b0037002d00370066
:102aec002f00370031003700330037003500370036
:102afc0037003700390037003b0037003d00370006
:102b0c003f003700410037004300370045003700d5
:102b1c0047003700490037004b0037004d003700a5
:102b2c004f00370051003700530037005500370075
:102b3c0057003700590037005b0037005d00370045
:102b4c0020c0b30022f0b7005d00370020c0b300f6
:102b5c0022f0b7005a00370060c0b30022f0b70073
:102b6c005700370060c0b30022f0b70054003700a4
:102b7c00a0c0b30022f0b70051003700a0c0b300d2
:102b8c0022f0b7004e003700a0c0b30022f0b7000f
:102b9c004b003700a0c0b30022f0b700480037004c
:102bac0040c0b30022f0b7004500370060c0b3004e
:102bbc0022f0b7004200370060c0b30022f0b7002b
:102bcc003f00370060c0b30022f0b7003c00370074
:102bdc00a0c0b30022f0b70039003700a0c0b3008a
:102bec0022f0b70036003700a0c0b30022f0b700c7
:102bfc0033003700a0c0b30022f0b700300037001c
:102c0c0020c0b30022f0b7002d00370020c0b30065
:102c1c0022f0b7002a00370040c0b30022f0b70002
:102c2c0027003700a0c0b30022f0b7002400370003
:102c3c00a0c0b30022f0b70021003700a0c0b30041
:102c4c0022f0b7001e003700a0c0b30022f0b7007e
:102c5c001b003700a0c0b30022f0b70018003700eb
:102c6c0040c0b30022f0b70015003700a0c0b3007d
:102c7c0022f0b70012003700a0c0b30022f0b7005a
:102c8c000f003700a0c0b30022f0b7000c003700d3
:102c9c00a0c0b30022f0b70009003700a0c0b300f9
:102cac0022f0b70006003700a0c0b30022f0b70036
:102cbc0003003700a0c0b30022f0b70000000000f2
:102ccc0022d0bf000080fb006102210091407800ff
:102cdc008180fb008100e900810f5000020032006e
:102cec0022d0bf0026f0b700000000000080fa00e0
:102cfc00000006000000fa0002ccbf000000a1009a
:102d0c000010a1000020a10002ecb70000962000ea
:102d1c00206088001061800000a0a00000b0a0001e
:102d2c001061880023cca80023eca8003000200000
:102d3c00206188001062800000a0a00000b0a000fc
:102d4c001062880043cca80043eca800300020009f
:102d5c002062880001eca800000000000080fa004e
:102d6c00000006000600fa00008fbe002207980043
:102d7c006011b8001e0078009e0090009cf60700c1
:102d8c000000e00043003d001e0078009e00900013
:102d9c0001f0a200008fbe002e009000e10f500049
:102dac001e003a0002002000031c24001e007800c4
:102dbc009e009000b5f80700000178000100780033
:102dcc00820278000002780030828000418280000c
:102ddc000001be0005007800840078000000be00f1
:102dec00e6f6070000017800010078008201780007
:102dfc000001780003007800820078000000be001b
:102e0c00a0f607007062880030828000418280004a
:102e1c009cf60700306288005c003700020020003e
:102e2c00031c24001e0078009e00900097f80700f9
:102e3c00000178000100780082027800000278001e
:102e4c0030828000418280000001be0005007800c5
:102e5c00840078000000be00c8f60700000178006e
:102e6c0001007800820178000001780003007800ee
:102e7c00820078000000be0082f6070030618800f6
:102e8c0030828000418280007ef6070070618800ed
:102e9c003e0037002e009000e10f50001e003a005b
:102eac0002002000031c24001e0078009e009000ed
:102ebc0076f80700000178000100780082027800a3
:102ecc000002780030828000418280000001be0048
:102edc0005007800840078000000be00a7f607000b
:102eec000001780001007800820178000001780070
:102efc0003007800820078000000be0061f6070035
:102f0c007061880030828000418280005df607008d
:102f1c00306188001d00370002002000031c2400d3
:102f2c001e0078009e00900058f807000001780001
:102f3c000100780082027800000278003082800064
:102f4c00418280000001be000500780084007800fa
:102f5c000000be0089f6070000017800010078002f
:102f6c00820178000001780003007800820078006c
:102f7c000000be0043f607003062880030828000fb
:102f8c00418280003ff6070070628800000000005c
:102f9c000080fa00000006000000fa00889fbe00c6
:102fac008a9fbe001493800025938000f0928000cd
:102fbc00019380000001be000400be000cf6070067
:102fcc000000e00015003d00f8928000099380009d
:102fdc001a9380002b938000508280006100b9000e
:102fec0043f607000001be000a00be0063f60700ae
:102ffc00000178000100780082027800000278005d
:10300c000801be0005007800840078000000be00b6
:10301c00a009070010938800219388001493800066
:10302c0025938000f0928000019380000001be0087
:10303c000400be00f0f507000000e00015003400ad
:10304c00f8928000099380001a9380002b938000e3
:10305c00508280006100b90025f607000001be0017
:10306c000a00be003cf60700000178000100780061
:10307c0082027800000278000801be00050078008a
:10308c00840078000000be006b09070010938800d4
:10309c002193880010938000219380006011b80068
:1030ac00d5f507000000e0001e00340010938000ee
:1030bc002193800002002000031c2400f3f707007a
:1030cc00000178000100780082027800000278008c
:1030dc0030828000418280000001be000500780033
:1030ec00840078000000be0024f607000001780080
:1030fc00010078008201780000017800030078005c
:10310c00820078000000be00def507003061880008
:10311c003082800041828000daf5070070618800ff
:10312c001e0037003082800041828000d5f50700f8
:10313c0030618800109380002193800001f0a20080
:10314c0002002000031c2400d0f7070000017800c7
:10315c000100780082027800000278003082800042
:10316c00418280000001be000500780084007800d8
:10317c000000be0001f60700000178000100780095
:10318c00820178000001780003007800820078004a
:10319c000000be00bbf507007061880074938000ce
:1031ac008593800050938000619380000001be00e5
:1031bc000400be008ef507000000e00015003d0085
:1031cc0058938000699380007a9380008b938000e1
:1031dc00508280006100b900c5f507000001be00f7
:1031ec000a00be00e5f50700000178000100780038
:1031fc0082027800000278000801be000500780009
:10320c00840078000000be0022090700709388003b
:10321c008193880074938000859380005093800084
:10322c00619380000001be000400be0072f507002f
:10323c000000e00015003400589380006993800072
:10324c007a9380008b938000508280006100b900db
:10325c00a7f507000001be000a00be00bef507007e
:10326c0000017800010078008202780000027800ea
:10327c000801be0005007800840078000000be0044
:10328c00ed0807007093880081938800709380008c
:10329c00819380006011b80057f507000000e00032
:1032ac001e00350070938000819380000200200086
:1032bc00031c240075f7070000017800010078005a
:1032cc008202780000027800308280004182800007
:1032dc000001be0005007800840078000000be00ec
:1032ec00a6f5070000017800010078008201780043
:1032fc000001780003007800820078000000be0016
:10330c0060f50700306288003082800041828000c6
:10331c005cf50700706288001e0037003082800068
:10332c004182800057f5070030628800709380005e
:10333c008193800001f0a20002002000031c2400f5
:10334c0052f7070000017800010078008202780033
:10335c000002780030828000418280000001be00b3
:10336c0005007800840078000000be0083f507009b
:10337c0000017800010078008201780000017800db
:10338c0003007800820078000000be003df50700c5
:10339c0070628800000000004f05be004f04be00a4
:1033ac000080fa00000006000800fa00008fbe0042
:1033bc00220798003307980042b62300f3e5230058
:1033cc002e009000be00900030f70700000178003e
:1033dc0001007800820278000002780002002000d0
:1033ec000300240005007800840078000000be0073
:1033fc0047f607000001780001007800820278008f
:10340c00000278001e0178009e01900005007800f3
:10341c00840078000000be0058f507008001780099
:10342c000101780003007800820078000000be00e3
:10343c00309388004193880042b62300f3e52300c3
:10344c002e009000be00900010f7070000017800dd
:10345c00010078008202780000027800020020004f
:10346c000300240005007800840078000000be00f2
:10347c0027f607000001780001007800820178002f
:10348c000001780003007800820078000001be0083
:10349c001e0078009e0090002ff507008001780038
:1034ac000101780003007800820078000000be0063
:1034bc00d0928800e1928800309380004193800084
:1034cc0002002000031e2c00f0f60700800178009b
:1034dc000101780003007800820078000000be0033
:1034ec005093880061938800d0928000e192800014
:1034fc0002002000031e2400e4f60700800178007f
:10350c000101780003007800820078000000be0002
:10351c00f0928800019388005093800061938000a2
:10352c0004002000852c240002002000832c2c0099
:10353c006f0807005093880061938800f092800018
:10354c000193800004002000852c24000200200040
:10355c00832c2c0066080700f092880001938800e9
:10356c00000000000080fa00000006000a00fa00cb
:10357c002007980031079800420798000040eb00a4
:10358c00004f78009e407800e0cfb30000c0680088
:10359c00004f78002e0090004800de00804078003c
:1035ac001e40780000c06800004f78002e0090008c
:1035bc00804078001e40780000c06800004f780002
:1035cc003e0090004800de00804078001e407800ed
:1035dc0000c06800004f78003e00900080407800ea
:1035ec001e40780000c06800004f78000000eb001f
:1035fc00100798000c0037001e009000e8004700f0
:10360c0011004000104078009e40780000c0680017
:10361c00004f78000e80e8008e80e8001108e8006a
:10362c0090007800110798009e0090003e009000da
:10363c00808f5000f0ff35001e4078000080fa00ab
:10364c00000006001200fa00889fbe006007980078
:10365c0071079800020f98000f0478000f00780093
:10366c008004780064004700ee00470062002000f0
:10367c001108410090017800230798002e0090005b
:10368c008000e900310798000000e8000000d1003c
:10369c00800040000f0078008187470060004000e8
:1036ac00400798000000eb00100798009e00900067
:1036bc000e80e8000108e80010017800120798005d
:1036cc004e00900001004000e1cfb30001487800ab
:1036dc006e009000c880de001e0190000e80e80095
:1036ec000208e800900178001307980081407800e8
:1036fc004e00900002004000014878009e009000af
:10370c000e80e8000108e80010017800120798000c
:10371c006e009000004178004e00900001004000c7
:10372c00024878007e009000c880de001e019000e8
:10373c000e80e8000208e80090017800130798005a
:10374c00814078004e009000020040000148780053
:10375c009e0090000e80e8000108e800100178003f
:10376c00120798007e009000004178004e009000f7
:10377c0001004000024878000000eb00000f7800c8
:10378c000d0037001e007800f0004700910040004b
:10379c001e0190000e80e8000208e80090017800fd
:1037ac0013079800914078004e00900002004000f2
:1037bc00014878001e0fe8007e0090009e00780003
:1037cc00808f5000efff35000e099000fe00900036
:1037dc006e00900065ff0700204f98009e0090003f
:1037ec000e80e8000108e80010017800120798002c
:1037fc004e00900001004000ae4990000348780054
:10380c004e0090009e009000b908070089077800d0
:10381c0000000000880778004f04be000080fa000a
:10382c00000006000400fa0020479800c0818000c8
:10383c00e30f500026003200e30f500007003c005d
:10384c00e10f500013003200e10f500018003c0053
:10385c000000e000080032005b003700e50f50006c
:10386c0037003200e50f500020003500e60f500005
:10387c0041003200540037002e409000e24f4000cf
:10388c004e003a003630ef0010002000c081880056
:10389c004a0037000e80e8001080fb004800dd0075
:1038ac009081880020002000c081880046003700ed
:1038bc000e80e8001080fb00918180000080700079
:1038cc009081880030002000c08188003e003700c5
:1038dc000e80e8001080fb004800dd00a08188000d
:1038ec0040002000c0818800370037000e80e800bf
:1038fc001080fb00a181800000807000a0818800f6
:10390c003630ef00a08180000000e00003003a0098
:10391c0060002000c08188002b003700a18180004e
:10392c00f03f2000808f500003003c00500020002e
:10393c00c0818800240037003830ef0022003700a7
:10394c00b18180000100e800b0818800c03c2100fa
:10395c0001004000ae40900001487800b181800029
:10396c00a0818000808f5000160035006000200080
:10397c00c081880013003700a181800090818000f5
:10398c00c23c2100f9fe0700004f78002e40900049
:10399c009e40780080cf500006003a00a081800045
:1039ac00804078009081800000407800c23c21006b
:1039bc00080007003830ef0003003700000000005b
:1039cc000100370000000000000000000080fa0039
:1039dc00000006000600fa00004f7800214798000e
:1039ec00220798001e80fb0001072000810f500069
:1039fc001100320001072000810f500007003c002d
:103a0c0011052000810f500011003200210520000b
:103a1c00810f5000120032001800370001082000fe
:103a2c00810f50000700320011092000810f500057
:103a3c000f003200110037002e0090002500070007
:103a4c000e0037002e009000910007000b0037008d
:103a5c002e009000104078000b0007000700370084
:103a6c002e00900010407800120007000300370071
:103a7c002e009000950007000000000000000000e0
:103a8c000080fa00000006000200fa00004f7800e7
:103a9c001e417800610221008248780080252100b7
:103aac008040eb0061689800000000000080fa0084
:103abc00000006000200fa00004f7800802521006b
:103acc0011c0b30061689800100020000080fa005b
:103adc00000006001a00fa00400f98008000eb006e
:103aec004e08900057070700609788007197880070
:103afc00410020004e089000520707008097880074
:103b0c0091978800810020004e0890004d07070017
:103b1c00a0978800b1978800c10020004e08900043
:103b2c0048070700e0988800f19888000101200000
:103b3c004e089000430707000099880011998800ef
:103b4c00410120004e0890003e0707002099880094
:103b5c00319988002699800037998000049980005b
:103b6c0015998000e2988000f398800000002000f6
:103b7c00812c2400809fbe0000002000812c24009a
:103b8c00809fbe0000002000812c2400809fbe007e
:103b9c00c031210057000700ec875700a697800022
:103bac00b79780008497800095978000629780007b
:103bbc007397800000002000812c2400809fbe00a1
:103bcc0000002000812c2400809fbe0000002000fb
:103bdc00812c2400809fbe00c02e210045000700d0
:103bec00ec87570060978000719780000001be0041
:103bfc008000eb000e0078003607070080978000ed
:103c0c00919780000001be00410020000e0078005a
:103c1c0030070700a0978000b19780000001be001c
:103c2c00810020000e0078002a070700e098800031
:103c3c00f19880000001be00c10020000e00780049
:103c4c002407070000998000119980000001be0034
:103c5c00010120000e0078001e070700209980004b
:103c6c00319980000001be00410120000e00780057
:103c7c00180707000e0178008101200000072000c2
:103c8c0070fe0700000000000080fa000000060033
:103c9c000200fa00000f78008000eb001e00780094
:103cac00e806070080958800919588004100200067
:103cbc001e007800e3060700a0958800b1958800e7
:103ccc00000000000080fa00000006000200fa006c
:103cdc00000f78008000eb001e007800d90607006a
:103cec0080a2880091a28800000000000080fa00e9
:103cfc00000006000e00fa00000f78001207980072
:103d0c002307980034079800450798005607980039
:103d1c00670798001e0078001e019000ae0190000d
:103d2c000288be001e0078003eb99700ceb99700fd
:103d3c0062009800730098001e0078003e0190000d
:103d4c00ce01900022009800330098001e007800ed
:103d5c001eb99700aeb99700020898001308980096
:103d6c001e0078005e019000ee0190004200980069
:103d7c00530098001e0078007eb197008eb9970012
:103d8c002208980033089800000000000080fa0018
:103d9c00000006001200fa00889fbe006007980021
:103dac0072079800030f98006e0090007e0190003f
:103dbc008e09900002109800131098006e0090006d
:103dcc0060019000f00190006e009000f0009000f7
:103ddc006000900001f0a2000202be000001be00d3
:103dec007e0090008e08900041060700008fbe00f8
:103dfc006e00900090009000100078001e0178007a
:103e0c009e019000a1f40700800178000101780068
:103e1c0003007800820078000001be006e00900064
:103e2c0022109800331098006e009000400c900007
:103e3c00d00c900002002000a33724007e009000dc
:103e4c008e089000b2f307000001780001007800a2
:103e5c00820178000001780003007800820078006d
:103e6c000001be000800be00c4f20700800178000b
:103e7c000101780003007800820078000001be0088
:103e8c006e00900042089800530898006e00900055
:103e9c00000a9000900a90006e009000b000900014
:103eac00200090000001be000400be0098f3070043
:103ebc00000178000100780082047800000478008a
:103ecc006e009000900890000008900001f0a20095
:103edc006e019000b2019000220190008cf307005b
:103eec000001780001007800820178000001780060
:103efc006e009000400b9000d00b900009007800f1
:103f0c00880078000002be00030078008200780070
:103f1c000001be000600be00f50507000001be0052
:103f2c006e00900042089800530898006e009000b4
:103f3c00400a9000d00a90006e009000b0009000f3
:103f4c00200090000001be000400be004ff40700ea
:103f5c00800178000101780003007800820078006d
:103f6c000001be006e0090004210980053109800a3
:103f7c006e009000f0089000600890000001be00f8
:103f8c007e0090008e08900073f20700000178000c
:103f9c000100780082027800000278000200200004
:103fac00a337240005007800840078000000be00d0
:103fbc0036f4070020079800310798006e00900037
:103fcc00200a9000b00a90006e009000d000900083
:103fdc00400090000001be000400be004cf307003e
:103fec000001780001007800820478000004780059
:103ffc006e009000b00890002008900001f0a20024
:10400c006e019000d20190004201900040f3070035
:10401c00000178000100780082017800000178002e
:10402c0009007800880078000002be0003007800c8
:10403c00820078000001be002e009000be009000af
:10404c00ab05070040079800510798006e009000e0
:10405c007e0190008e099000620898007308980009
:10406c006e009000d0009000400090004e01900037
:10407c00de01900005f40700800178000101780052
:10408c0003007800820078000001be006e009000f2
:10409c0062109800731098006e009000201290002f
:1040ac00b01290006e009000d01090004010900064
:1040bc000001be000400be0030f2070000017800d1
:1040cc000100780082027800000278006e009000f7
:1040dc00f0109000601090000001be000500780008
:1040ec00840078000000be0024f207000001780074
:1040fc0001007800820078008101780000017800ce
:10410c0003007800820078000000be004f04be005f
:10411c000080fa00000006000000fa008495800080
:10412c009595800080948000919480000001be00e1
:10413c000400be0008f2070080017800010178003d
:10414c0003007800820078000000be0060988800b0
:10415c0071988800a4958000b5958000a09480008b
:10416c00b19480000001be000400be00faf107000b
:10417c00800178000101780003007800820078004b
:10418c000000be00e0998800f199880060988000da
:10419c00719880000001be00c02e2100fdfe0700ba
:1041ac00e0958800f1958800e0998000f1998000f5
:1041bc000001be00c0312100f6fe0700c09588004a
:1041cc00d1958800c0958000d1958000e495800041
:1041dc00f59580000001be000400be0072fc0700d3
:1041ec0003000700000000000080fa000000060039
:1041fc003800fa0080988000919880000001be0081
:10420c008000eb000e007800b2050700a09880003b
:10421c00b19880000001be00410020000e00780023
:10422c00ac050700c0988000d19880000001be004a
:10423c00810020000e007800a6050700009a80007f
:10424c00119a80000001be00c10020000e00780011
:10425c00a0050700209a8000319a80000001be0062
:10426c00010120000e0078009a050700409a80009a
:10427c00519a80000001be00410120000e00780020
:10428c00940507000e017800810120001007200022
:10429c00ecfc0700c0978000d197800078024700a3
:1042ac000001be008000eb000400780089050700c7
:1042bc00e0978000f1978000780247000001be0073
:1042cc00410020000400780082050700009880005f
:1042dc0011988000780247000001be008100200088
:1042ec00040078007b0507004099800051998000fc
:1042fc00780247000001be00c100200004007800d5
:10430c00740507006099800071998000780247005d
:10431c000001be0001012000040078006d050700bb
:10432c008099800091998000780247000001be00be
:10433c004101200004007800660507000e0178009a
:10434c008101200020072000befc0700609880003f
:10435c0071988000040320000e0242000001be0090
:10436c008000eb00040078005a050700e0998000fb
:10437c00f1998000040320000e0242000001be00ef
:10438c004100200004007800520507000e0178005f
:10439c008100200030072000aafc0700000000006c
:1043ac000080fa00000006000000fa0005e1a900f8
:1043bc000421a9000068a9002068a80000828000e0
:1043cc00118280001e00070005e1a800000000001b
:1043dc000080fa00000006000000fa0013e1a900ba
:1043ec0011e1a9001061a8001021a900800880002b
:1043fc000040a1000050a100800888000a21ef00b5
:10440c000621ef00707220007008880000e0200088
:10441c0060088800204280000000a0000010a1006d
:10442c000020a100204288000108a9002108a80052
:10443c0011e1a800000000000080fa000000060056
:10444c000400fa00008fbe00200880000040a1008c
:10445c000050a100200888001e0178009e019000e9
:10446c00001c2e0041c6240029f207000001780030
:10447c0001007800820278000002780002f02f0020
:10448c00f377240005007800840078000000be005b
:10449c00d9f007000000e0008d00340020088000f7
:1044ac000040a0000050a100200888001e017800e8
:1044bc009e019000001c2e0041c6240014f207003f
:1044cc000001780001007800820278000002780078
:1044dc0002002000031024000500780084007800fe
:1044ec000000be000af2070000017800010078000d
:1044fc00820278000002780002f02f00f37724008b
:10450c0005007800840078000000be00baf00700b7
:10451c000000e00055003400200880000040a1009d
:10452c000050a000200888001e0178009e01900019
:10453c00001c2e0041c62400f5f107000001780094
:10454c00010078008202780000027800020020004e
:10455c000328240005007800840078000000be00c9
:10456c00ebf107000001780001007800820278006e
:10457c000002780002f02f00f37724000500780089
:10458c00840078000000be009bf007000000e000f3
:10459c001d003400200880000040a0000050a00046
:1045ac00200888001e0178009e019000001c2e003f
:1045bc0041c62400d6f10700000178000100780004
:1045cc0082027800000278000200200003382400e8
:1045dc0005007800840078000000be00ccf10700d4
:1045ec000001780001007800820178000001780059
:1045fc0003007800820078000000be0080f0070005
:10460c0010088800400037001e0178009e019000c1
:10461c00001c2e0041c62400bdf1070000017800eb
:10462c00010078008202780000027800020020006d
:10463c000328240005007800840078000000be00e8
:10464c00b3f10700000178000100780082017800c6
:10465c000001780003007800820078000000be00a2
:10466c0067f0070010088800270037001e0178004b
:10467c009e019000001c2e0041c62400a4f10700ee
:10468c0000017800010078008202780000027800b6
:10469c00020020000310240005007800840078003c
:1046ac000000be009af107000001780001007800bc
:1046bc008201780000017800030078008200780005
:1046cc000000be004ef00700100888000e003700f6
:1046dc001e0178009e019000001c2e0041c6240093
:1046ec008bf107000001780001007800820178004e
:1046fc000001780003007800820078000000be0002
:10470c003ff0070010088800000000000080fa004d
:10471c00000006000000fa001fe1a9001e21a900fc
:10472c000368a9002368a8001fe1a800000020006e
:10473c00a147240003000700000000000080fa00dd
:10474c00000006000400fa00008fbe00f008800094
:10475c000040a1000050a100f00888001e01780064
:10476c009e019000001c2e0041c6240068f1070039
:10477c0000017800010078008202780000027800c5
:10478c0002f02f00f37724000500780084007800f5
:10479c000000be0018f007000000e0008d0034009f
:1047ac00f00880000040a0000050a100f008880034
:1047bc001e0178009e019000001c2e0041c62400b2
:1047cc0053f10700000178000100780082027800a4
:1047dc00000278000200200003102400050078007d
:1047ec00840078000000be0049f107000001780049
:1047fc0001007800820278000002780002f02f009d
:10480c00f377240005007800840078000000be00d7
:10481c00f9ef07000000e00055003400f0088000bc
:10482c000040a1000050a000f00888001e01780094
:10483c009e019000001c2e0041c6240034f107009c
:10484c0000017800010078008202780000027800f4
:10485c000200200003282400050078008400780062
:10486c000000be002af1070000017800010078006a
:10487c00820278000002780002f02f00f377240007
:10488c0005007800840078000000be00daef070015
:10489c000000e0001d003400f00880000040a00083
:1048ac000050a000f00888001e0178009e019000c6
:1048bc00001c2e0041c6240015f1070000017800f1
:1048cc0001007800820278000002780002002000cb
:1048dc000338240005007800840078000000be0036
:1048ec000bf10700000178000100780082017800cc
:1048fc000001780003007800820078000000be0000
:10490c00bfef0700d0088800400037001e01780078
:10491c009e019000001c2e0041c62400fcf00700f4
:10492c000001780001007800820278000002780013
:10493c000200200003282400050078008400780081
:10494c000000be00f2f007000001780001007800c2
:10495c008201780000017800030078008200780062
:10496c000000be00a6ef0700d00888002700370023
:10497c001e0178009e019000001c2e0041c62400f0
:10498c00e3f0070000017800010078008202780053
:10499c0000027800020020000310240005007800bb
:1049ac00840078000000be00d9f0070000017800f8
:1049bc000100780082017800000178000300780083
:1049cc00820078000000be008def0700d008880040
:1049dc000e0037001e0178009e019000001c2e0076
:1049ec0041c62400caf007000001780001007800dd
:1049fc0082017800000178000300780082007800c2
:104a0c000000be007eef0700d00888000000000008
:104a1c000080fa00000006000000fa00c301a800a4
:104a2c00dca1ef00dea1ef00c1e1a8000000000056
:104a3c000080fa00000006000000fa00c305a80080
:104a4c00dca5ef00dea5ef00c1e5a800000000002a
:104a5c000080fa00000006000800fa00889fbe00e3
:104a6c008a9fbe00008080001180800040808800fa
:104a7c005180880020808000318080006080880018
:104a8c0071808800300e80008000eb00008fbe002b
:104a9c00500e80008000eb00c000dd000000200004
:104aac001e0f40005e974800302e80008000eb0007
:104abc002007980031079800502e80008000eb00f2
:104acc00c000dd000000200064014700e401470045
:104adc003319400023914800120278009202900092
:104aec0024079800350798001e0078009e0090005f
:104afc007fef0700c2532e007378230063f1070089
:104b0c000001780001007800820178000001780033
:104b1c0003007800820078000080880011808800f3
:104b2c002e009000be00900071ef0700c2532e00c3
:104b3c0073782b0055f10700000178000100780014
:104b4c008201780000017800030078008200780070
:104b5c0020808800318088000480800015808000cf
:104b6c0040808000518080000001be000400be0027
:104b7c0079ef0700000178000100780082017800cd
:104b8c0000017800030078008200780080808800a3
:104b9c0091808800248080003580800060808000b7
:104bac00718080000001be000400be006aef0700a7
:104bbc000001780001007800820178000001780083
:104bcc000300780082007800a0808800b180880003
:104bdc00808080009180800002002000a337240098
:104bec002af10700800178000101780003007800a9
:104bfc00820078000000be00409488005194880028
:104c0c00a0808000b180800002002000a337240027
:104c1c001ef1070080017800010178000300780084
:104c2c00820078000000be006094880071948800b7
:104c3c0044948000559480006094800071948000ae
:104c4c000001be000400be004cef0700000178001c
:104c5c000100780082027800000278000200200037
:104c6c000300240005007800840078000000be00da
:104c7c0027f007008001780001017800030078001c
:104c8c00820078000000be00809488009194880017
:104c9c00449480005594800060948000719480004e
:104cac000001be000400be002bef070000017800dd
:104cbc0001007800820278000002780042b62300de
:104ccc00f3e5230005007800840078000000be00a6
:104cdc000ff00700800178000101780003007800d4
:104cec00820078000000be00a0948800b194880077
:104cfc00c0948000d19480000095880011958800a4
:104d0c00e0948000f1948000209588003195880013
:104d1c0040958000519580006095880071958800c1
:104d2c0008958000199580008a9480009b948000df
:104d3c006095800071958000e4f207000001be00d0
:104d4c000a00be00d1f007000001780001007800d5
:104d5c00820278000002780002002000a3372400b1
:104d6c0005007800840078000000be00e8ef070022
:104d7c0000017800010078008201780000017800c1
:104d8c0003007800820078000001be000800be001d
:104d9c00faee07008001780001017800030078002a
:104dac00820078000000be00c0948800d194880076
:104dbc0028958000399580008a9480009b9480000f
:104dcc006095800071958000c5f307000001be005e
:104ddc000a00be00adf00700000178000100780069
:104dec00820278000002780002002000a337240021
:104dfc0005007800840078000000be00c4ef0700b6
:104e0c000001780001007800820178000001780030
:104e1c0003007800820078000001be000800be008c
:104e2c00d6ee0700800178000101780003007800bd
:104e3c00820078000000be00e0948800f1948800a5
:104e4c006895800079958000a0948000b1948000d2
:104e5c0002002000a3372400adef0700000178000a
:104e6c0001007800820178000001780003007800ce
:104e7c00820078000001be000800be00bfee0700f3
:104e8c00800178000101780003007800820078002e
:104e9c000000be0040958800519588004095800028
:104eac0051958000b2fd20009304240052ee0700bf
:104ebc000000e0000c00340040958000519580000b
:104ecc00b2fd2000930c2400a3ee070080017800b3
:104edc000101780003007800820078000000be0019
:104eec004095880051958800409580005195800030
:104efc00b2fd200093042c003dee07000000e00002
:104f0c00010035000c003700409580005195800061
:104f1c00b2fd2000930c240098ee0700800178006d
:104f2c000101780003007800820078000000be00c8
:104f3c004095880051958800000000004f05be0088
:104f4c004f04be000080fa00000006002000fa00aa
:104f5c00e0818000f18180000001780081017800ff
:104f6c008000eb000e00780077020700c0948000f0
:104f7c00d19480000001be00410020000e0078009a
:104f8c0054020700e0948000f19480000001be0000
:104f9c00810020000e0078004e0207004095800032
:104fac00519580000001be00c10020000e00780069
:104fbc004802070080948000919480000001be009c
:104fcc00010120000e00780042020700a09480002e
:104fdc00b19480000001be00410120000e00780059
:104fec003c02070040948000519480000001be00f8
:104ffc00810120000e0078003602070060948000ca
:10500c00719480000001be00c10120000e007800e8
:10501c00300207000e01780001022000100620006b
:10502c0088f90700000000000080fa00000006006c
:10503c001000fa00008fbe0022079800330798007a
:10504c004407980055079800660798007707980062
:10505c001e0178009e01900062a2880073a2880055
:10506c002e019000be01900002a3880013a38800bb
:10507c004e019000de01900042a3880053a38800eb
:10508c006e019000fe01900022a3880033a38800db
:10509c006000b80060a3880071a3880000000000c5
:1050ac000080fa00000006000000fa00889fbe0095
:1050bc008a9fbe0080a2800091a2800064a2800022
:1050cc0075a280000001be000400be00590207005a
:1050dc000002be0060a2800071a280000001be0030
:1050ec000400be001cee070080017800010178006e
:1050fc0003007800820078000000be00a0a28800a7
:10510c00b1a2880004a3800015a3800000a3800036
:10511c0011a380000001be000400be00dbef0700fd
:10512c000001780001007800820478000004780007
:10513c0040a3800051a380000001be000fee0700c9
:10514c0000017800010078008201780000017800ed
:10515c0003007800820078000001be00090078008e
:10516c00880078000000be00e9ee0700800178009e
:10517c000101780003007800820078000000be0076
:10518c00c0a28800d1a2880004a3800015a38000cf
:10519c0060a3800071a380000001be000400be006b
:1051ac00baef070080017800010178000300780055
:1051bc00820078000000be00e0a28800f1a2880006
:1051cc0000a3800011a380006011b80088ed0700d7
:1051dc000000e00005003d00c0a28000d1a28000cc
:1051ec0001f0a200c0a28800d1a28800c0a2800059
:1051fc00d1a280006011b8007fed07000000e00034
:10520c0006003500a0a28000b1a280006011b80099
:10521c0079ed07000000e0000c003d00c0a280000a
:10522c00d1a280006011b80071ed07000000e00011
:10523c0060003c00a0a28000b1a280006011b80008
:10524c006bed07000000e0005a003c00a0a28000bb
:10525c00b1a28000e30007000002be00c0a28000e3
:10526c00d1a280000001be000400be0062ed070068
:10527c000000e0004f003500a0a28000b1a2800029
:10528c006011b8005ced07000000e0002000340065
:10529c0028a3800039a380000aa380001ba38000f0
:1052ac0044a3800055a3800080a3800091a38000bc
:1052bc000001be000400be0095ee0700000178005e
:1052cc00010078008201780000017800030078006a
:1052dc00820078000001be000a00be00a7ed0700a6
:1052ec00000178000100780082027800000278004a
:1052fc000801be0005007800840078000000be00a4
:10530c00e400070000a3880011a388008000370088
:10531c00a0a28000b1a280006011b80034ed07009b
:10532c000000e000010035007900370020a3800068
:10533c0031a380000004be0009f0a2000aa3800083
:10534c001ba3800044a3800055a3800080a3800091
:10535c0091a380000001be000400be006cee0700ab
:10536c0000017800010078008201780000017800cb
:10537c0003007800820078000001be000a00be0025
:10538c0075ed0700000178000100780082027800ba
:10539c00000278000801be00050078008400780047
:1053ac000000be00a400070000a3880011a3880021
:1053bc005700370000a3800011a380006011b800d3
:1053cc000ded07000000e0001e00340008a3800073
:1053dc0019a3800044a3800055a3800080a3800003
:1053ec0091a380000001be000400be0048ee07003f
:1053fc00000178000100780082017800000178003b
:10540c0003007800820078000001be000800be0096
:10541c0051ed07000001780001007800820278004d
:10542c00000278006011b800050078008400780054
:10543c000000be009700070000a3880011a388009d
:10544c002300370000a3800011a380006011b80076
:10545c00e7ec07000000e0001d003d0008a3800001
:10546c0019a3800044a3800055a3800080a3800072
:10547c0091a380000001be000400be0024ee0700d2
:10548c0000017800010078008201780000017800aa
:10549c0003007800820078000001be000800be0006
:1054ac0036ed0700000178000100780082027800d8
:1054bc00000278006011b8000500780084007800c4
:1054cc000000be005c00070000a3880011a3880048
:1054dc00a0a28000b1a28000420007000004be0020
:1054ec00e0a28000f1a280003e0007000001be0097
:1054fc000800be00beec07000000e00004003d0008
:10550c00a0a28000b1a28000e0a28800f1a28800d5
:10551c0064a2800075a28000e0a28000f1a280004d
:10552c000001be000400be0014ed070080017800ed
:10553c000101780003007800820078000000be00b2
:10554c0060a2880071a2880000a3800011a38000d3
:10555c006011b800a6ec07000000e000010032006a
:10556c000d003700a0a28000b1a280001d00070032
:10557c00a2702d0033c223009dec07000000e00058
:10558c00010035000400370080a2800091a2800049
:10559c0060a2880071a28800000000004f05be00c8
:1055ac004f04be000080fa00000006000800fa005c
:1055bc0060a2800071a280000001be008000eb00a0
:1055cc000e007800c30007000e0178008100200057
:1055dc00000920001bf80700000000000080fa0002
:1055ec00000006000400fa00008fbe006011b80035
:1055fc001e0078009e0090007fec07000000e00089
:10560c00030035001e0078009e0090000300370058
:10561c001e0078009e00900001f0a200800178002e
:10562c000101780003007800820078000000be00c1
:10563c000080fa00000006000800fa00008fbe008f
:10564c0022079800330798002e019000be019000ad
:10565c001e0078009e00900067ec07000000e00040
:10566c00030034009e0078001e00900002003700fa
:10567c00ae0090003e00900081017800000178009f
:10568c0003007800820078000000be000080fa0061
:10569c00000006000800fa00008fbe0022079800e8
:1056ac00330798002e019000be0190001e00780078
:1056bc009e0090004eec07000000e00003003d004f
:1056cc009e0078001e00900002003700ae00900093
:1056dc003e00900081017800000178000300780002
:1056ec00820078000000be000080fa000000060076
