:020000040000fa
:080000000002040000000000f2
:020000040000fa
:040008009003000061
:020000040000fa
:04000c00900300005d
:020000040000fa
:040010009003000059
:020000040000fa
:040014009003000055
:020000040000fa
:040018009003000051
:020000040000fa
:04001c00900300004d
:020000040000fa
:040020009003000049
:020000040000fa
:040024009003000045
:020000040000fa
:040028009003000041
:020000040000fa
:04002c00900300003d
:020000040000fa
:040030009003000039
:020000040000fa
:04003400fa020000cc
:020000040000fa
:040038009003000031
:020000040000fa
:04003c00900300002d
:020000040000fa
:040040009003000029
:020000040000fa
:040044009003000025
:020000040000fa
:040048001c03000095
:020000040000fa
:04004c00900300001d
:020000040000fa
:040050009003000019
:020000040000fa
:040054009003000015
:020000040000fa
:040058009003000011
:020000040000fa
:04005c006a03000033
:020000040000fa
:040060009003000009
:020000040000fa
:040064009003000005
:020000040000fa
:040068009003000001
:020000040000fa
:04006c0090030000fd
:020000040000fa
:0400700090030000f9
:020000040000fa
:0400740090030000f5
:020000040000fa
:0400780090030000f1
:020000040000fa
:04007c0090030000ed
:020000040000fa
:0400800090030000e9
:020000040000fa
:0400840090030000e5
:020000040000fa
:0400880090030000e1
:020000040000fa
:04008c0090030000dd
:020000040000fa
:0400900090030000d9
:020000040000fa
:04009400260300003f
:020000040000fa
:0400980090030000d1
:020000040000fa
:04009c0090030000cd
:020000040000fa
:0400a00090030000c9
:020000040000fa
:0400a40090030000c5
:020000040000fa
:0400a80090030000c1
:020000040000fa
:0400ac0090030000bd
:020000040000fa
:0400b00090030000b9
:020000040000fa
:0400b40090030000b5
:020000040000fa
:0400b80090030000b1
:020000040000fa
:0400bc0090030000ad
:020000040000fa
:0400c00090030000a9
:020000040000fa
:0400c40090030000a5
:020000040000fa
:0400c80090030000a1
:020000040000fa
:0400cc00900300009d
:020000040000fa
:0400d0009003000099
:020000040000fa
:0400d4009003000095
:020000040000fa
:0400d8009003000091
:020000040000fa
:0400dc00900300008d
:020000040000fa
:0400e0009003000089
:020000040000fa
:0400e4009003000085
:020000040000fa
:0400e8009003000081
:020000040000fa
:0400ec00900300007d
:020000040000fa
:0400f0009003000079
:020000040000fa
:0400f4009003000075
:020000040000fa
:0400f8009003000071
:020000040000fa
:0400fc00900300006d
:020000040000fa
:040100009003000068
:020000040000fa
:040104009003000064
:020000040000fa
:040108009003000060
:020000040000fa
:04010c00900300005c
:020000040000fa
:040110009003000058
:020000040000fa
:040114009003000054
:020000040000fa
:040118009003000050
:020000040000fa
:04011c00900300004c
:020000040000fa
:040120009003000048
:020000040000fa
:040124009003000044
:020000040000fa
:040128009003000040
:020000040000fa
:04012c00900300003c
:020000040000fa
:040130009003000038
:020000040000fa
:040134009003000034
:020000040000fa
:040138009003000030
:020000040000fa
:04013c00900300002c
:020000040000fa
:040140009003000028
:020000040000fa
:040144009003000024
:020000040000fa
:040148009003000020
:020000040000fa
:04014c00900300001c
:020000040000fa
:040150009003000018
:020000040000fa
:040154009003000014
:020000040000fa
:040158009003000010
:020000040000fa
:04015c00900300000c
:020000040000fa
:040160009003000008
:020000040000fa
:040164009003000004
:020000040000fa
:040168009003000000
:020000040000fa
:04016c0090030000fc
:020000040000fa
:0401700090030000f8
:020000040000fa
:0401740090030000f4
:020000040000fa
:0401780090030000f0
:020000040000fa
:04017c0090030000ec
:020000040000fa
:0401800090030000e8
:020000040000fa
:0401840090030000e4
:020000040000fa
:0401880090030000e0
:020000040000fa
:04018c0090030000dc
:020000040000fa
:0401900090030000d8
:020000040000fa
:0401940090030000d4
:020000040000fa
:0401980090030000d0
:020000040000fa
:04019c0090030000cc
:020000040000fa
:0401a00090030000c8
:020000040000fa
:0401a40090030000c4
:020000040000fa
:0401a80090030000c0
:020000040000fa
:0401ac0090030000bc
:020000040000fa
:0401b00090030000b8
:020000040000fa
:0401b40090030000b4
:020000040000fa
:0401b80090030000b0
:020000040000fa
:0401bc0090030000ac
:020000040000fa
:0401c00090030000a8
:020000040000fa
:0401c40090030000a4
:020000040000fa
:0401c80090030000a0
:020000040000fa
:0401cc00900300009c
:020000040000fa
:0401d0009003000098
:020000040000fa
:0401d4009003000094
:020000040000fa
:0401d8009003000090
:020000040000fa
:0401dc00900300008c
:020000040000fa
:0401e0009003000088
:020000040000fa
:0401e4009003000084
:020000040000fa
:0401e8009003000080
:020000040000fa
:0401ec00900300007c
:020000040000fa
:0401f0009003000078
:020000040000fa
:0401f4009003000074
:020000040000fa
:0401f8009003000070
:020000040000fa
:0401fc00900300006c
:020000040000fa
:040200009003000067
:020000040000fa
:040204009003000063
:020000040000fa
:04020800900300005f
:020000040000fa
:04020c00900300005b
:020000040000fa
:040210009003000057
:020000040000fa
:040214009003000053
:020000040000fa
:04021800900300004f
:020000040000fa
:04021c00900300004b
:020000040000fa
:040220009003000047
:020000040000fa
:040224009003000043
:020000040000fa
:04022800900300003f
:020000040000fa
:04022c00900300003b
:020000040000fa
:040230009003000037
:020000040000fa
:040234009003000033
:020000040000fa
:04023800900300002f
:020000040000fa
:04023c00900300002b
:020000040000fa
:040240009003000027
:020000040000fa
:040244009003000023
:020000040000fa
:04024800900300001f
:020000040000fa
:04024c00900300001b
:020000040000fa
:040250009003000017
:020000040000fa
:040254009003000013
:020000040000fa
:04025800900300000f
:020000040000fa
:04025c00900300000b
:020000040000fa
:040260009003000007
:020000040000fa
:040264009003000003
:020000040000fa
:100400002f0621000eff27000e01880000000000cb
:10041000000020000000e000020032000001200087
:100420002002880014000700cd0007000000e00053
:1004300003003a00807c2100010020000200370008
:100440000000200001002000810f70000100320038
:100450000f000700000020000000e0000200320052
:1004600000000200000000005c0f0200000000001d
:100470000040da000000fe00800020000000e000e4
:1004800002003200002020009001880000000600d9
:10049000a1028800800478000000eb001f003700f4
:1004a000e284440054a0b4009905ba00e2844400f8
:1004b00054a0b4009906ba00e284440054a0b400e9
:1004c0000006eb00476fde00fd07b200ae018800ba
:1004d000636ce10003003a000ad801000000eb0061
:1004e0000e003700606ce10008003a00004deb00a0
:1004f0000a05e800020039003420ec000af0a000f0
:100500008b05e900f9ff3e00040037006168e10057
:10051000010032000086eb000b00070019c7ba008b
:100520000e04e0001905ba0003003a000a00e000da
:10053000dbff3a0000000600fe07b200ae028800b2
:100540008a047800f5ff37000cd0a300e20f4d00bd
:100550001c003b0089027800354dba000a05e8000e
:10056000020039003420ec000af0a0008b05e900fd
:100570000f003200254dba000a05e80002003900dc
:100580003420ec000af0a0008b05e90008003200de
:100590000c00e0000600320015cdba000a05e800a4
:1005a000020039003420ec000af0a0008b05e900bd
:1005b0008984e80054a0b4000b00e000e2ff3a0098
:1005c000000006009902ba00055d78008b05e9007d
:1005d000f7ff3200c82ade00055d78008b05e900d0
:1005e000f3ff32000c00e000f1ff320019ddba0029
:1005f000eeff37003600f800809fbe00829fbe00ed
:10060000849fbe00869fbe000000fa000068a9001b
:10061000b407070091090700000000000080fa00fd
:100620004f03be004f02be004f01be004f00be0090
:100630003600f900004006000000fa000108a90099
:10064000000000000080fa00004006003600f800bc
:10065000809fbe00829fbe00849fbe00869fbe001a
:100660000000fa000368a900d0808000e1808000cb
:1006700061004000e0804800d0808800e180880070
:1006800090808000a180800061004000e0804800f0
:1006900090808800a1808800b0808000c1808000a8
:1006a00061004000e0804800b0808800c180880080
:1006b00011060700000000000080fa004f03be0092
:1006c0004f02be004f01be004f00be003600f900d1
:1006d00000400600801f78000000fa0001a8a90071
:1006e00000188000c082880010188000d082880026
:1006f00020188000e082880030188000f082880096
:10070000401880000083880010c0b3002ff0b700ad
:10071000000000000080fa004f0078000040060052
:100720000040da000000fe00f03fb1000180b1009f
:1007300006003500ee03090000000000403fb10054
:100740000180b100fbff3d001000b000203fb00071
:1007500002003500008009000000000000000600d3
:100760000000050014002000ab033700f4ff2f0049
:10077000a90337000001be003d0007000470a70078
:1007800003f0a1006509b100160032000d0035002c
:100790006828e10006003500f0ff2f00f1ff270078
:1007a0000300e00013003b000100280000000500ea
:1007b00000004000818048008502e900fcff3a000b
:1007c00008003700f88f420002003c008000eb0078
:1007d000000005008100d1000080d3008502e80000
:1007e000fcff3a000300e00002003b006000100044
:1007f000e0801800000006000001be001c00070099
:100800000470a70003f0a10003f8a30013003a004e
:100810006509b10010003200090035006928e100c7
:100820000200350001002800000005000000400023
:10083000818048008502e900fcff3a0000000600c4
:10084000f88f4200050035008100d1000080d30000
:100850008502e800fcff3a00000006008000eb0083
:10086000000005004f89de00820178008503370013
:10087000c70ade00f107b200f50fb200080032002f
:10088000e1cf4200020032000170a0002400050008
:10089000810f7000010032000408050044000500cb
:1008a000810f700002003a00140005008502e90083
:1008b0000000400081c04800fcff3b000170a00028
:1008c0002400050007f82700078361000638e100cf
:1008d00004003a00f7072000878361008703710056
:1008e00001003a0003f0a200889fbe008a9fbe006c
:1008f0008c9fbe00470ade000480a100c71ade00fc
:100900000580a10007002800078560008785610039
:10091000f70f20000720e1009e0032000728e100c9
:100920009c003200010678000400e000b4003200b0
:10093000f7072000878060000170a0000500e0003c
:10094000c0003200f7072000878161000370a0001b
:10095000050652000f003a000b50e1000b00320078
:100960000308e10002003a000200e1007e003200cc
:100970000204500083845800040031000001fd008f
:100980008101fd008402fd008a05fd006044b8007d
:10099000210037000520e10005003d000001fd00b9
:1009a0008101fd008402fd008a05fd00050652005c
:1009b0007a60e100050035000170a1004722dd00ea
:1009c000848070008a807000630037006044b80043
:1009d000ef02660007ff2f00070666000500e00033
:1009e00006003400f08312008714dd000511de00dc
:1009f000071bdd00060171008519de007060e10053
:100a000005003500090478008204780003017800ad
:100a10008001eb00700656000b50e10003003a0025
:100a20000200400083804800040037006004140086
:100a3000e0841c0002005800838058000188a30055
:100a4000060032008100d1000080d3008984d300e9
:100a50000884d3000402e800270037000178a300cf
:100a600025003a000100e000030032008186cf003b
:100a7000698656000a0037008c0020000000e00064
:100a800004003a0009007800880478000004eb00b4
:100a9000700252008086cf000d0646000c06e90069
:100aa0007060e100060035008000780009007800e1
:100ab000880478000004eb007006560070025200b3
:100ac0000c00e0000c0034008c08dd00f003160080
:100ad0000703de00868070000c00dd00074bde009f
:100ae000060070008c4cdd000743de008684740035
:100af0000c44dd000c0252006120e10020003500b2
:100b0000610160000700280087816400f7ff27006b
:100b100087836400070374000300e00006003200ce
:100b200082037300040032000000e800e080480007
:100b30000188a3000e003a00f70f20000720e10013
:100b40004a003d000170a1004722dd0081007200d3
:100b50008a8070000000be004f06be004f05be0038
:100b60004f04be00000006006000b800faff370026
:100b70008100d1000080d3000402e800eeff3700be
:100b80000401780089017400a10107008a807000c7
:100b9000f1ff3700f7010700070278000001fd00b0
:100ba0008101fd00f30107008702780085037200d0
:100bb0000778a300040032000001fd008101fd0060
:100bc00006020700e4ff3700850362000768a30000
:100bd000080032000b50e10003003200f0ff2f004c
:100be000f1ff2700dcff37000001fd008101fd005f
:100bf000d9ff37000468a300d7ff3200faff37009f
:100c0000f8ff2700888360000b003a000000e00036
:100c100009003a00830364008283730002003200fb
:100c20000200be00ccff37000b50e100ceff3a00bf
:100c30000200be00c8ff37001400200081006400dd
:100c40003eff3700f8ff27008883610004003a0068
:100c50000200e00002003a008c007800beff37007e
:100c6000150020008301640039ff370001f82700d8
:100c70000000200081007500b7ff3700889fbe008c
:100c80008a9fbe008c9fbe001b0020000202be0097
:100c90000586680006002800060666004709de0093
:100ca000f20fb200820032000243e80080003200fe
:100cb000c729de00f30fb2007d0032000343e800d5
:100cc0007b003200f107b2000170a000f507b2000e
:100cd0000570a000c708dd004903de0086807000b3
:100ce0004700dd00c72add004923de00868272004e
:100cf0004722dd000305510004035000858358009e
:100d00000300310000004000818048000a05e9002e
:100d10008c1f78008a9fbe00040050008580580018
:100d20000402420085824a000000400081804800a1
:100d30000005eb000004be006033b8000406be00ee
:100d40000d48e10056003100110009004dccd800db
:100d50000c01b8000d02b8008481410060824a0095
:100d60008283530003045c0084845c0060055d00a2
:100d70000a00e00025003a00800578000d40e100ff
:100d80004900310088007800070078001100090050
:100d90004d88d8000c01b8000d02b80084814100d4
:100da00060824a006003110083835b0004045c00de
:100db000e0845c000900e00021003a004f01be0021
:100dc0000300e0002b003200e3016000070673001f
:100dd0008c81710001003200640070004200de006e
:100de0004e5edd000c007000c258de0001e0a00085
:100df00083010700cf017800818071004f06be009b
:100e00004f05be004f04be00000006008c83430067
:100e10000d044c00e0844c0060054d000000e9002a
:100e20000a00e000d4ff32008c8343000d044c0024
:100e3000e0844c0060054d000000e900ceff370063
:100e40000c0343008d834b0060044c00e0844c0095
:100e50000000e9000900e000d8ff32000c03430065
:100e60008d834b0060044c00e0844c000000e900de
:100e7000d2ff37004200de004e5edd000c00700045
:100e8000c258de0001e0a000cf0178000300e000be
:100e9000daff320060001000e0801800d7ff370052
:100ea000f0ff2f00aaff3700f0ff2f00b9ff370037
:100eb0000404be002f010700870678000004fd002f
:100ec0008104fd002b010700078366000678a3005c
:100ed000030032000960a7000800be002c003700a4
:100ee0000d78a300020032000800be002800370081
:100ef0000778a30026003a0001f0a10009f0a10044
:100f00000668a30003003200f1ff2700f0ff2f0066
:100f1000baff37000d68a300030032000800be00ce
:100f20008c807000b5ff37000768a30007003a0007
:100f30000648a30003003200f1ff2700f0ff2f0056
:100f4000aeff37000d48a300030032006000b80078
:100f50008c807000a9ff37000748a300040032000e
:100f600001f82700000020008c807000a3ff3700ec
:100f7000760107000004fd008104fd0002057800f1
:100f8000720107000802be008a01780059ff37008d
:100f90000160a000120220008281880097ff3700c4
:100fa0000100e000120032000500e00010003200f5
:100fb000889fbe008a9fbe008c9fbe000006eb008b
:100fc00001f8a3000300320060001000e080180068
:100fd0000cf0a00005f8a30003003200600212002c
:100fe000e0821a000cf0a2008005eb0041ff370000
:100ff0006000b800020005000383680007002800b5
:1010000007036300470ade000480a100c71ade0060
:101010000580a100f70f20000720e1004200320008
:101020000728e10040003200889fbe008a9fbe0072
:101030008c1f7800f107b200f307b2000400e00053
:10104000640032000170a0000500e000680032007a
:101050000370a00085054200eb07b1000204b80050
:101060000302b8008484440060854a00020ab80084
:10107000848444000a854a00030ab8000405450038
:10108000040033000804d0008984d2000a85d2000d
:101090008b05e9006158e1003d0035000210200099
:1010a000090161000308200089816100f707200021
:1010b0008783640008867300c84cde00c853dd00d7
:1010c000878474004855de000300e000060032000b
:1010d00082037600040032008904e80060054d00b8
:1010e0000a88a3000c003a00f70f20000758e1001f
:1010f00044003d000a70a100c75ddd000a8575004f
:101100008a007300090078004f0678004f05be0082
:101110004f04be00000006000a05d1008984d300f8
:101120008b05e800f0ff3700881f78000604780080
:1011300090000700070278000001fd008101fd001a
:101140008c00070087027800850372000778a300ef
:10115000050032000001fd008101fd009f00070035
:101160004f04780000000600850372000748a300c2
:1011700003003200f0ff2f00f1ff2700f8ff3700d7
:101180000000200001f8270088807000f4ff37007d
:10119000880178004848dd00808171004848de0001
:1011a000c850dd0001007000c850de000604780061
:1011b0000b0178001600070088807000d2ff37000e
:1011c0000500e00005003200170020003a0007008b
:1011d0009dff370081037000f9ff3a008600780018
:1011e0004f0678004f05be004f04be00000005000a
:1011f00083037100f9ff3200270020002e00070052
:1012000094ff370001f8270086807000f4ff370054
:101210000100e00026003200610111007810e100b9
:1012200023003c006022b8007010e100040035008b
:1012300080027800010078008000eb00700151000e
:101240000200e0000900340070031100062add00ee
:10125000822ade008603dd00878272000200de0043
:10126000860bdd00070070008208de0084817100bb
:10127000f4ff2700048262008481710004002800ca
:10128000848262006102600005f0a6000000060092
:1012900004827100070032000000e800e08048008e
:1012a000000006000002be006000b800efff37003b
:1012b0006000b80000000600889fbe000004eb003c
:1012c0006138e10016003a000100e00008003a0031
:1012d000c800de004800dd00880020000100e000ba
:1012e00003003a00c800de004800dd006804440046
:1012f0008184cf00e9845400060034008908dd00b1
:10130000f08314008703de00878070000900dd0091
:1013100009044400610214004f04be0000000600ee
:101320000300e00008003a00c811de004811dd00ab
:10133000880020000300e00003003a00c811de002e
:101340004811dd00680444008384cf00e984540020
:10135000060034008919dd00f08314008713de00d5
:10136000878171000911dd0009044400e1021400c5
:10137000e9ff37002700200001f0a7001700200038
:10138000470bde00f60fb200040032000643e8000f
:101390000a0032004702b300000006000103780093
:1013a000f607b2000603700002003a000703b3001c
:1013b000000006008702b300000006000103780069
:1013c000f607b20006037000020032000770a000aa
:1013d000000006000760a000000006000478a300db
:1013e000040032000578a300030032000168a30066
:1013f00001003a000200be000160a00000000600eb
:1014000081017000270032008002eb0001f8a30088
:101410000300320060001000e0801800150020007a
:10142000f40720000202420020003400f7032000ed
:101430008703600006042000000363000208200008
:10144000000161004700de00c909dd000080710075
:10145000c708de000600e0000800320087037100c4
:10146000060032001000b0000180b0000188a30027
:1014700002003200c108de000402e800f107b200f9
:10148000f30f20000320e10003003d004722dd00b0
:10149000810072002900370001f827000000eb00ee
:1014a000260037006000b800000006006802120045
:1014b0007f20e100020034006000b8001f00370008
:1014c0006011b8007020e100040035008001780050
:1014d000010078008000eb00700252000400e00080
:1014e00009003400f00312000719dd008419de0042
:1014f0000703dd00868171000400de00070bdd00bc
:10150000060070008408de00f7ff27008383630075
:101510008703710006002800030363000700320000
:101520000700e00003003a006101600002817300df
:10153000020032001000b0000180b0000500a600db
:101540000000060001f0a000000006004f0ade00c7
:101550004709de00f107b200f20fb2000b003200c3
:10156000f207b1000170a000c708dd00c901de006c
:10157000838070004700dd000400a6000000060024
:1015800060001000e080180000000600810f70006d
:1015900001003a00000006008182cf000500e00053
:1015a00010003e008082cf00ee8242007028e100f1
:1015b0000400390007003e00800078000000eb00c6
:1015c0000e003700708312008600de000500dd008b
:1015d0000a003700708352008600dd000000eb0037
:1015e00006003700e28252008508dd007083120099
:1015f0000603de00868070000500dd007507b00080
:101600000501ea000400a6000000060060001000ca
:10161000e080180000000600889fbe008a9fbe0080
:10162000841f78007c0007004f0078001100330011
:10163000f0ff2f00838f6c0006003b00040565005f
:101640000a00a7000800370009f0a60010002000db
:1016500008003700820f5400838f5c0003003900bc
:101660001000200001003e000000200009f0a7004b
:101670000000ea004f05be004f04be000000e0007d
:1016800000000600881f7800030478000300e000d3
:1016900007003d0060001000e080180060011900a4
:1016a000e081190002003b0001f02d00030037002b
:1016b0000400070008f0a70001f0a0004f04780024
:1016c00000000600889fbe008a9fbe000082700056
:1016d0000402710004827100260032000004be0082
:1016e0000200be006011b8006b09200095022000c6
:1016f0000182cf000a0039000541b1000082cf000d
:10170000070039000541b1000982cf00040039000b
:101710000541b1000882cf00010039000541b10048
:1017200005425200120032000a003b008281710023
:10173000610164008100d1000080d3008984d3005e
:101740000884d3008b05e8000442e800f7ff3a0064
:10175000070037000804440089844c00000048005a
:10176000818048008b05e9000442e900f9ff3a0056
:10177000030007004f05be004f04be000000060036
:1017800081002000618055000b003d000b0020000f
:1017900061fe2f000100e1001d0034008281710014
:1017a000610164008904d1000884d3000000e800ce
:1017b000faff3a007100200061006400030070002d
:1017c000020060000900320061044400e0844c0023
:1017d0000988a500050032008b05e8006808e100d3
:1017e00002003a008904d1000884d300f20f2000df
:1017f0000258e10005003d00c75ddd00f907b200b9
:101800008980750008007800000006000bf82700aa
:101810008b007800000005000004be0014fc0700e7
:101820000003be000405be000200be0010fc07005d
:08183000844f75000000060062
:020000040000fa
:10183800426f00006e6a00006f75000072000000c1
:020000040000fa
:101848000000fa0005e1a9000421a9000068a90028
:101858002068a80005e1a80010818000218180008f
:101868001d000700000000000080fa0000000600cc
:101878000000fa0013e1a90011e1a9001061a80015
:101888001021a900800880000040a1000050a1009c
:10189800800888000a21ef000621ef0070722000fe
:1018a8007008880000e0200060088800204280005e
:1018b8000000a0000010a1000020a1002042880024
:1018c8000108a9002108a80011e1a80000000000f3
:1018d8000080fa00000006000400fa00008fbe0035
:1018e800200880000040a1000050a10020088800c6
:1018f8001e0178009e019000001c2e0041c62400a5
:10190800dcfc070000017800010078008202780002
:101918000002780002f02f00f37724000500780019
:10192800840078000000be008efb07000000e00085
:101938008d003400200880000040a0000050a10065
:10194800200888001e0178009e019000001c2e00cf
:1019580041c62400c7fc0700000178000100780098
:1019680082027800000278000200200003102400a0
:1019780005007800840078000000be00bdfc070068
:1019880000017800010078008202780000027800e7
:1019980002f02f00f3772400050078008400780017
:1019a8000000be006ffb07000000e0005500340097
:1019b800200880000040a1000050a00020088800f6
:1019c8001e0178009e019000001c2e0041c62400d4
:1019d800a8fc070000017800010078008202780066
:1019e8000002780002002000032824000500780087
:1019f800840078000000be009efc0700000178000b
:101a080001007800820278000002780002f02f00be
:101a1800f377240005007800840078000000be00f9
:101a280050fb07000000e0001d0034002008800083
:101a38000040a0000050a000200888001e01780087
:101a48009e019000001c2e0041c6240089fc07005e
:101a58000001780001007800820278000002780016
:101a68000200200003382400050078008400780074
:101a78000000be007ffc070000017800010078002c
:101a88008201780000017800030078008200780065
:101a98000000be0035fb0700100888004000370032
:101aa8001e0178009e019000001c2e0041c62400f3
:101ab80070fc0700000178000100780082027800bd
:101ac80000027800020020000328240005007800a6
:101ad800840078000000be0066fc07000001780062
:101ae8000100780082017800000178000300780086
:101af800820078000000be001cfb07001008880068
:101b0800270037001e0178009e019000001c2e005f
:101b180041c6240057fc0700000178000100780046
:101b280082027800000278000200200003102400de
:101b380005007800840078000000be004dfc070016
:101b48000001780001007800820178000001780027
:101b580003007800820078000000be0003fb070045
:101b6800100888000e0037001e0178009e019000c2
:101b7800001c2e0041c624003efc0700000178002e
:101b880001007800820178000001780003007800e5
:101b9800820078000000be00f4fa070010088800f0
:101ba800000000000080fa00000006000000fa00b3
:101bb8001fe1a9001e21a9000368a9002368a80045
:101bc8001fe1a800f0808000018180000300070069
:101bd800000000000080fa00000006000400fa007f
:101be800008fbe00200880000040a1000050a10026
:101bf800200888001e0178009e019000001c2e001d
:101c080041c624001bfc0700000178000100780091
:101c1800820278000002780002f02f00f377240097
:101c280005007800840078000000be00cdfa0700a7
:101c38000000e0008d003400200880000040a00073
:101c48000050a100200888001e0178009e01900025
:101c5800001c2e0041c6240006fc07000001780085
:101c6800010078008202780000027800020020005b
:101c78000310240005007800840078000000be00ee
:101c8800fcfb070000017800010078008202780060
:101c98000002780002f02f00f37724000500780096
:101ca800840078000000be00aefa07000000e000e3
:101cb80055003400200880000040a1000050a0001a
:101cc800200888001e0178009e019000001c2e004c
:101cd80041c62400e7fb07000001780001007800f6
:101ce8008202780000027800020020000328240005
:101cf80005007800840078000000be00ddfb0700c6
:101d08000001780001007800820278000002780063
:101d180002f02f00f3772400050078008400780093
:101d28000000be008ffa07000000e0001d0034002c
:101d3800200880000040a0000050a0002008880073
:101d48001e0178009e019000001c2e0041c6240050
:101d5800c8fb0700000178000100780082027800c3
:101d680000027800020020000338240005007800f3
:101d7800840078000000be00befb07000001780068
:101d880001007800820178000001780003007800e3
:101d9800820078000000be0074fa0700d0088800ae
:101da800400037001e0178009e019000001c2e00a4
:101db80041c62400affb070000017800010078004d
:101dc8008202780000027800020020000328240024
:101dd80005007800840078000000be00a5fb07001d
:101de8000001780001007800820178000001780085
:101df80003007800820078000000be005bfa07004c
:101e0800d0088800270037001e0178009e01900046
:101e1800001c2e0041c6240096fb07000001780034
:101e28000100780082027800000278000200200099
:101e38000310240005007800840078000000be002c
:101e48008cfb07000001780001007800820178000f
:101e58000001780003007800820078000000be00ce
:101e680042fa0700d00888000e0037001e017800eb
:101e78009e019000001c2e0041c624007dfb070037
:101e880000017800010078008201780000017800e4
:101e980003007800820078000000be0033fa0700d3
:101ea800d0088800000000000080fa00000006004a
:101eb8000000fa0079030700ff0307006cfe070023
:101ec8005ffe070039ff07005301070024030700de
:101ed800c003070071002000c0c12800d603070016
:101ee80000a02500212620000dfa0700f9ff370081
:101ef8000000fa000ed0bf000080fb006100b900ae
:101f0800b200200003002000820f5000838f580089
:101f18006e003e00000601000b0037001400370079
:101f28001d00370027003700280037003100370030
:101f3800320037003b0037003c0037004d003700c7
:101f48004e0037005f0037001a30ef001c30ef00fa
:101f58000001eb006000b8004b01070012002000f0
:101f68006000b8004801070010c0b3000ef0b700c9
:101f7800d2808000e3808000803e200001002000a5
:101f8800800f5100818f59005200360020c0b300e5
:101f98000ef0b7004f0037000001eb0000002000f2
:101fa800011f240038010700120020000000200053
:101fb800011f24003401070030c0b3000ef0b70041
:101fc800490037004b000700470037000001eb00cd
:101fd80000002000011724002b0107001200200038
:101fe8006000b8002801070050c0b3000ef0b70029
:101ff8003d0037003f0007003b0037000001eb00c1
:102008006000b80020010700120020000000200036
:10201800011724001c01070070c0b3000ef0b700c0
:1020280031003700330007002f0037000001eb00b4
:1020380000002000011724001301070012002000ef
:102048000000200001172c000f010700b28080005b
:10205800c3808000401f200001002000800f510035
:10206800818f59001d00360090c0b3000ef0b700f4
:102078001a0037001f0007001b0037000001eb00a3
:102088000000200001172c00ff00070012002000ac
:102098000000200001172400fb0007009280800048
:1020a800a3808000401f200001002000800f510005
:1020b800818f59000b003600b0c0b3000ef0b70096
:1020c800080037000b000700070037000e70ef000c
:1020d8000500370000000000030037000000000082
:1020e8000100370000000000000000000080fa0036
:1020f800000006000000fa000c30ef00a08280000b
:10210800b182800002002000c320240093f9070058
:102118000000e00003003d00608080000000a00097
:102128006080880080828000918280000200200008
:102138000322240089f907000000e00003003d00a5
:10214800608080000010a0006080880060828000ad
:102158007182800002002000032224007ff907001a
:102168000000e00003003d00608080000020a00027
:102178006080880040828000518280000200200038
:102188000322240075f907000000e00003003d0069
:10219800608080000030a00060808800208280007d
:1021a8003182800002002000c32024006bf9070060
:1021b8000000e00003003d00608080000040a000b7
:1021c80060808800608080008000eb00f2012000c1
:1021d80003002000820f5000838f580081003e00ca
:1021e800000601001f0037002100370023003700d8
:1021f8002500370027003700290037002b0037005b
:102208002d0037002f00370031003700330037002a
:102218003500370037003700390037003b003700fa
:102228003d0037003f0037004100370043003700ca
:102238004500370047003700490037004b0037009a
:102248004d0037004f00370051003700530037006a
:102258005500370057003700590037005b0037003a
:102268005d00370020c0b3000af0b7005d003700fa
:1022780020c0b3000af0b7005a00370060c0b300ae
:102288000af0b7005700370060c0b3000af0b70083
:1022980054003700a0c0b3000af0b700510037005f
:1022a800a0c0b3000af0b7004e003700a0c0b300ca
:1022b8000af0b7004b003700a0c0b3000af0b7001f
:1022c8004800370040c0b3000af0b70045003700a7
:1022d80060c0b3000af0b7004200370060c0b30026
:1022e8000af0b7003f00370060c0b3000af0b7003b
:1022f8003c003700a0c0b3000af0b700390037002f
:10230800a0c0b3000af0b70036003700a0c0b30081
:102318000af0b70033003700a0c0b3000af0b700d6
:102328003000370020c0b3000af0b7002d00370096
:1023380020c0b3000af0b7002a00370040c0b3003d
:102348000af0b70027003700a0c0b3000af0b700b2
:1023580024003700a0c0b3000af0b70021003700fe
:10236800a0c0b3000af0b7001e003700a0c0b30039
:102378000af0b7001b003700a0c0b3000af0b7008e
:102388001800370040c0b3000af0b7001500370046
:10239800a0c0b3000af0b70012003700a0c0b30015
:1023a8000af0b7000f003700a0c0b3000af0b7006a
:1023b8000c003700a0c0b3000af0b70009003700ce
:1023c800a0c0b3000af0b70006003700a0c0b300f1
:1023d8000af0b70003003700a0c0b3000af0b70046
:1023e800000000000ad0bf000080fb00e1002100cf
:1023f800914078008180fb008100e900810f500046
:10240800020032000ad0bf000ef0b7000000000042
:102418000080fa00000006000000fa0002ccbf00ad
:102428000000a1000010a1000020a10002ecb700ec
:1024380000962000206088001061800000a0a000a5
:1024480000b0a0001061880023cca80023eca800ed
:1024580030002000206188001062800000a0a000e9
:1024680000b0a0001062880043cca80043eca8008c
:10247800300020002062880001eca8000000000065
:102488000080fa00000006000600fa00008fbe0077
:10249800220798002e009000e10f500005003a0036
:1024a8001e0178009e019000a2818800b3818800f7
:1024b800070037002e0090000000e00004003a00fa
:1024c8001e0178009e019000e2818800f381880057
:1024d800000000000080fa00000006000000fa007a
:1024e800889fbe008a9fbe00c4818000d58180007d
:1024f800a0818000b18180000001be000400be0000
:1025080096f807000000e00015003d00a881800053
:10251800b9818000ca818000db8180005081800001
:102528006100b900cdf807000001be000a00be0036
:10253800ebf80700000178000100780082027800bb
:10254800000278000801be000500780084007800c9
:102558000000be0011010700c0818800d1818800f9
:10256800c4818000d5818000a0818000b181800075
:102578000001be000400be007af807000000e00079
:1025880015003400a8818000b9818000ca818000cc
:10259800db818000508180006100b900aff807003e
:1025a8000001be000a00be00c4f807000001780060
:1025b8000100780082027800000278000801be005d
:1025c80005007800840078000000be00dc000700e9
:1025d800c0818800d1818800c0818000d1818000bd
:1025e8006011b8005ff807000000e0001e0034002a
:1025f800c0818000d181800002002000031c2400db
:102608007bfa070000017800010078008202780058
:102618000002780030818000418180000001be0006
:1026280005007800840078000000be00acf80700c0
:10263800000178000100780082017800000178002c
:1026480003007800820078000000be0068f80700e8
:1026580030618800308180004181800064f8070083
:10266800706188001e003700308180004181800041
:102678005ff8070030618800c0818000d181800048
:1026880001f0a20002002000031c240058fa0700f1
:1026980000017800010078008202780000027800ca
:1026a80030818000418180000001be000500780073
:1026b800840078000000be0089f807000001780057
:1026c800010078008201780000017800030078009a
:1026d800820078000000be0045f80700706188009d
:1026e8000482800015828000e0818000f1818000f2
:1026f8000001be000400be0018f807000000e0005a
:1027080015003d00e8818000f98180000a82800080
:102718001b828000508180006100b9004ff80700db
:102728000001be000a00be006df807000001780035
:102738000100780082027800000278000801be00db
:1027480005007800840078000000be0093000700b0
:10275800008288001182880004828000158280002f
:10276800e0818000f18180000001be000400be000d
:10277800fcf707000000e00015003400e881800045
:10278800f98180000a8280001b82800050818000cd
:102798006100b90031f807000001be000a00be0060
:1027a80046f80700000178000100780082027800ee
:1027b800000278000801be00050078008400780057
:1027c8000000be005e0007000082880011828800b9
:1027d80000828000118280006011b800e1f70700d4
:1027e8000000e0001e003500008280001182800099
:1027f80002002000031c2400fdf9070000017800f6
:1028080001007800820278000002780030818000a0
:10281800418180000001be00050078008400780036
:102828000000be002ef807000001780001007800c3
:1028380082017800000178000300780082007800a7
:102848000000be00eaf7070070628800308180004f
:1028580041818000e6f70700306288001e003700db
:102868003081800041818000e1f7070070628800b4
:10287800008280001182800001f0a2000200200086
:10288800031c2400daf90700000178000100780031
:102898008202780000027800308180004181800047
:1028a8000001be0005007800840078000000be002a
:1028b8000bf8070000017800010078008201780019
:1028c8000001780003007800820078000000be0054
:1028d800c7f7070030628800000000004f05be00ff
:1028e8004f04be000080fa00000006000400fa0051
:1028f800008fbe006011b8001e0078009e00900096
:1029080098f707000000e000030035001e0078007b
:102918009e009000030037001e0078009e00900083
:1029280001f0a2008001780001017800030078001e
:10293800820078000000be000080fa000000060057
:102948000800fa00008fbe0022079800330798009d
:102958002e019000be0190001e0078009e0090009d
:1029680080f707000000e000030034009e007800b4
:102978001e00900002003700ae0090003e0090005c
:102988008101780000017800030078008200780057
:102998000000be000080fa00000006000800fa00ef
:1029a800008fbe0022079800330798002e01900080
:1029b800be0190001e0078009e00900067f7070097
:1029c8000000e00003003d009e0078001e0090001b
:1029d80002003700ae0090003e00900081017800b0
:1029e8000001780003007800820078000000be0033
:1029f8000080fa00000006000c00fa00008fbe00fc
:102a08002207980033079800440798005507980054
:102a18004e019000de0190001e0078009e0090009c
:102a280050f707000000e000040034004e01900059
:102a3800de019000028fbe000a0037002e019000d0
:102a4800be0190001e0078009e00900043f707002a
:102a58000000e00003003d002e019000be01900040
:102a6800028fbe009e0078001e0090008101780051
:102a78000001780003007800820078000000be00a2
:102a88000080fa00000006000400fa00008fbe0073
:102a9800b2fd2000930424001e0078009e009000e0
:102aa80074f80700000178000100780082027800bd
:102ab800000278000200200043332400050078005b
:102ac800840078000000be0049f907000001780082
:102ad8000100780082007800810178000001780008
:102ae80003007800820078000000be000080fa0031
:102af800000006000400fa00008fbe00b2fd2000ae
:102b0800930424001e0078009e00900038f9070006
:102b18000001780001007800820278000002780045
:102b28000200200043332400050078008400780068
:102b38000000be004ff8070000017800010078008f
:102b48008200780081017800000178000300780095
:102b5800820078000000be000080fa000000060035
:102b68000000fa0021e3a9002143a8000019800011
:102b78000080a1000090a100001988002043a9004e
:102b8800001980000050a0000060a0000070a000a4
:102b9800001988001019800000d0a10000e0a100f1
:102ba80000f0a100101988002343a8001019800024
:102bb8000080a1000090a100101988001119800060
:102bc80030f82f00008060000040a0001019880035
:102bd8002203a9002223a90025e3a900f0c0b3001d
:102be80024e3b70021198000f00f2e0080806000d8
:102bf80000f0200001007000201988003303a900ac
:102c08001e0ea8001f0ea8001f2ea8001f4ea80009
:102c18001f6ea8003003a8003103a8003123a800c4
:102c28003143a8003163a8004119800000fe2f003d
:102c3800008060004019880028e3a90001a8a900c5
:102c480021a8a80021e3a800000000000080fa00e5
:102c5800000006000000fa002023a8000000000081
:102c68000080fa00000006000000fa00800521003c
:102c78000080fa00000006000000fa002fd0bf0014
:102c88000080fa00000006000000fa002f70ef0034
:102c9800000000000080fa00000006000000fa00b2
:102ca800817420009140780000ccb30000c060001f
:102cb8007041b30048e7b700313a800000e02f00c8
:102cc800808060008005200001007000303a880094
:102cd800203a80000060a1000070a100203a88001e
:102ce800213a800000fe2f00008060000000a00054
:102cf800203a880012c0b30080c7b300a1c9b3004e
:102d0800337420008049780081497800824978002e
:102d1800103a800000407800004178000204a000ca
:102d280060c4b30071c5b3002374200080497800e3
:102d3800814978008249780000000000103a80003c
:102d48004c00de0067406000e14f5000fbff3a0096
:102d58005927a800c03a80000000a0000010a10078
:102d68000020a100c03a88005ac7bf000000a00098
:102d78000010a0000020a0005ae7b700c03a800069
:102d88000050a1000060a0000070a000c03a8800b8
:102d980059a7a80059e7a80000000000c03a800021
:102da8004e00de0061406000e14f5000fbff3a003a
:102db80000000000103a80004500de00614060001d
:102dc800e14f5000fbff3a00000000000080fa00cd
:102dd800000006000000fa002002a900001180008f
:102de8000010a1000020a1000011880020a2a90065
:102df8002062a800100820004011880023a2a90022
:102e080023e2a9000188a9002188a90010118000e7
:102e18000060a1000070a100101188000168a900dd
:102e28002168a90021e2a8002342a80000000000b0
:102e38000080fa00000006000600fa00100798005b
:102e4800210798000040eb00004f78000040eb009d
:102e5800004f7800110037000000000010118000ba
:102e68004900de00614060000004e000fbff3a001a
:102e78009e0090000e80e8000108e800100178002c
:102e880012079800114078000080fb00201188008c
:102e98001e4078000040e800004f78001e80fb00cc
:102ea800ae009000808f5000ebff3c000000000057
:102eb8000080fa00000006000000fa000e2eef0065
:102ec8001e2eef003e2eef002e2eef004e2eef00ae
:102ed8006e2eef0080cea90080aea900808ea900da
:102ee800816ea900714ea900000ea900012ea9004b
:102ef80091eea900014ea900706ea900213680004c
:102f080000f82f00008060002001b3002036880000
:102f18008134800000fc2f00008060000000a000c9
:102f2800803488000e00070003000700000000003e
:102f38000080fa00000006000000fa00217420005a
:102f480062042000730520008248780083487800d6
:102f580042c7a800000000000080fa000000060038
:102f68000000fa002174200062042000730520008c
:102f7800824878008348780042c7a9000000000012
:082f88000080fa0000000600c1
:020000040000fa
:102f90000010000010000000800000002c10000055
:102fa0000200000082000000670600001010000010
:102fb0000e000000800000001e100000080000004d
:102fc0008200000000007a00440000004842000037
:102fd00032100000260000008000000026100000d3
:102fe00006000000820000000000480042050000ca
:102ff000581000000a000000800000002e100000a1
:1030000002000000800000003010000002000000fc
:08301000800000000000000038
:020000040000fa
:0200000401f009
:04000800cfffff0027
:020000040000fa
:0200000401f009
:04000c00f9ffff00f9
:020000040000fa
:0200000401f009
:040010005bffff0093
:020000040000fa
:0200000401f009
:040014007fffff006b
:020000040000fa
:0200000401f009
:04001800cfffff0017
:020000040000fa
:0200000401f009
:04001c00deffff0004
:020000040000fa
:0200000401f009
:04002000cfffff000f
:00000001FF
