:020000040000fa
:080000000002040000000000f2
:020000040000fa
:0400080004040000ec
:020000040000fa
:04000c0004040000e8
:020000040000fa
:0400100004040000e4
:020000040000fa
:0400140004040000e0
:020000040000fa
:0400180004040000dc
:020000040000fa
:04001c0004040000d8
:020000040000fa
:0400200004040000d4
:020000040000fa
:0400240004040000d0
:020000040000fa
:0400280004040000cc
:020000040000fa
:04002c0004040000c8
:020000040000fa
:0400300004040000c4
:020000040000fa
:04003400fa020000cc
:020000040000fa
:0400380004040000bc
:020000040000fa
:04003c0004040000b8
:020000040000fa
:0400400004040000b4
:020000040000fa
:0400440004040000b0
:020000040000fa
:04004800340300007d
:020000040000fa
:04004c0004040000a8
:020000040000fa
:0400500004040000a4
:020000040000fa
:04005400bc030000e9
:020000040000fa
:040058009003000011
:020000040000fa
:04005c006a03000033
:020000040000fa
:040060000404000094
:020000040000fa
:040064000404000090
:020000040000fa
:04006800040400008c
:020000040000fa
:04006c000404000088
:020000040000fa
:040070000404000084
:020000040000fa
:040074000404000080
:020000040000fa
:04007800040400007c
:020000040000fa
:04007c000404000078
:020000040000fa
:040080000404000074
:020000040000fa
:040084000404000070
:020000040000fa
:04008800040400006c
:020000040000fa
:04008c000404000068
:020000040000fa
:040090000404000064
:020000040000fa
:040094003e03000027
:020000040000fa
:04009800040400005c
:020000040000fa
:04009c000404000058
:020000040000fa
:0400a0000404000054
:020000040000fa
:0400a4000404000050
:020000040000fa
:0400a800040400004c
:020000040000fa
:0400ac000404000048
:020000040000fa
:0400b0000404000044
:020000040000fa
:0400b4000404000040
:020000040000fa
:0400b800040400003c
:020000040000fa
:0400bc000404000038
:020000040000fa
:0400c0000404000034
:020000040000fa
:0400c4000404000030
:020000040000fa
:0400c800040400002c
:020000040000fa
:0400cc000404000028
:020000040000fa
:0400d0000404000024
:020000040000fa
:0400d4000404000020
:020000040000fa
:0400d800040400001c
:020000040000fa
:0400dc000404000018
:020000040000fa
:0400e0000404000014
:020000040000fa
:0400e4000404000010
:020000040000fa
:0400e800040400000c
:020000040000fa
:0400ec000404000008
:020000040000fa
:0400f0000404000004
:020000040000fa
:0400f4000404000000
:020000040000fa
:0400f80004040000fc
:020000040000fa
:0400fc0004040000f8
:020000040000fa
:0401000004040000f3
:020000040000fa
:0401040004040000ef
:020000040000fa
:0401080004040000eb
:020000040000fa
:04010c0004040000e7
:020000040000fa
:0401100004040000e3
:020000040000fa
:0401140004040000df
:020000040000fa
:0401180004040000db
:020000040000fa
:04011c0004040000d7
:020000040000fa
:0401200004040000d3
:020000040000fa
:0401240004040000cf
:020000040000fa
:0401280004040000cb
:020000040000fa
:04012c0004040000c7
:020000040000fa
:0401300004040000c3
:020000040000fa
:0401340004040000bf
:020000040000fa
:0401380004040000bb
:020000040000fa
:04013c0004040000b7
:020000040000fa
:0401400004040000b3
:020000040000fa
:0401440004040000af
:020000040000fa
:0401480004040000ab
:020000040000fa
:04014c0004040000a7
:020000040000fa
:0401500004040000a3
:020000040000fa
:04015400040400009f
:020000040000fa
:04015800040400009b
:020000040000fa
:04015c000404000097
:020000040000fa
:040160000404000093
:020000040000fa
:04016400040400008f
:020000040000fa
:04016800040400008b
:020000040000fa
:04016c000404000087
:020000040000fa
:040170000404000083
:020000040000fa
:04017400040400007f
:020000040000fa
:04017800040400007b
:020000040000fa
:04017c000404000077
:020000040000fa
:040180000404000073
:020000040000fa
:04018400040400006f
:020000040000fa
:04018800040400006b
:020000040000fa
:04018c000404000067
:020000040000fa
:040190000404000063
:020000040000fa
:04019400040400005f
:020000040000fa
:04019800040400005b
:020000040000fa
:04019c000404000057
:020000040000fa
:0401a0000404000053
:020000040000fa
:0401a400040400004f
:020000040000fa
:0401a800040400004b
:020000040000fa
:0401ac000404000047
:020000040000fa
:0401b0000404000043
:020000040000fa
:0401b400040400003f
:020000040000fa
:0401b800040400003b
:020000040000fa
:0401bc000404000037
:020000040000fa
:0401c0000404000033
:020000040000fa
:0401c400040400002f
:020000040000fa
:0401c800040400002b
:020000040000fa
:0401cc000404000027
:020000040000fa
:0401d0000404000023
:020000040000fa
:0401d400040400001f
:020000040000fa
:0401d800040400001b
:020000040000fa
:0401dc000404000017
:020000040000fa
:0401e0000404000013
:020000040000fa
:0401e400040400000f
:020000040000fa
:0401e800040400000b
:020000040000fa
:0401ec000404000007
:020000040000fa
:0401f0000404000003
:020000040000fa
:0401f40004040000ff
:020000040000fa
:0401f80004040000fb
:020000040000fa
:0401fc0004040000f7
:020000040000fa
:0402000004040000f2
:020000040000fa
:0402040004040000ee
:020000040000fa
:0402080004040000ea
:020000040000fa
:04020c0004040000e6
:020000040000fa
:0402100004040000e2
:020000040000fa
:0402140004040000de
:020000040000fa
:0402180004040000da
:020000040000fa
:04021c0004040000d6
:020000040000fa
:0402200004040000d2
:020000040000fa
:0402240004040000ce
:020000040000fa
:0402280004040000ca
:020000040000fa
:04022c0004040000c6
:020000040000fa
:0402300004040000c2
:020000040000fa
:0402340004040000be
:020000040000fa
:0402380004040000ba
:020000040000fa
:04023c0004040000b6
:020000040000fa
:0402400004040000b2
:020000040000fa
:0402440004040000ae
:020000040000fa
:0402480004040000aa
:020000040000fa
:04024c0004040000a6
:020000040000fa
:0402500004040000a2
:020000040000fa
:04025400040400009e
:020000040000fa
:04025800040400009a
:020000040000fa
:04025c000404000096
:020000040000fa
:040260000404000092
:020000040000fa
:04026400040400008e
:020000040000fa
:100400004f2921000eff27000e0188000000000088
:10041000000020000000e000020032000001200087
:100420002002880014000700f90007000000e00027
:1004300003003a002085220001002000020037005e
:100440000000200001002000810f70000100320038
:100450000f000700000020000000e0000200320052
:1004600000000200000000007a11020000000000fd
:100470000040da000000fe00200020000000e00044
:1004800002003200100020009001880000000600e9
:10049000a1028800800478000000eb001f003700f4
:1004a000e284440054a0b4009905ba00e2844400f8
:1004b00054a0b4009906ba00e284440054a0b400e9
:1004c0000006eb00476fde00fd07b200ae018800ba
:1004d000636ce10003003a000ad801000000eb0061
:1004e0000e003700606ce10008003a00004deb00a0
:1004f0000a05e800020039003420ec000af0a000f0
:100500008b05e900f9ff3e00040037006168e10057
:10051000010032000086eb000b00070019c7ba008b
:100520000e04e0001905ba0003003a000a00e000da
:10053000dbff3a0000000600fe07b200ae028800b2
:100540008a047800f5ff37000cd0a300e20f4d00bd
:100550001c003b0089027800354dba000a05e8000e
:10056000020039003420ec000af0a0008b05e900fd
:100570000f003200254dba000a05e80002003900dc
:100580003420ec000af0a0008b05e90008003200de
:100590000c00e0000600320015cdba000a05e800a4
:1005a000020039003420ec000af0a0008b05e900bd
:1005b0008984e80054a0b4000b00e000e2ff3a0098
:1005c000000006009902ba00055d78008b05e9007d
:1005d000f7ff3200c82ade00055d78008b05e900d0
:1005e000f3ff32000c00e000f1ff320019ddba0029
:1005f000eeff37003600f800809fbe00829fbe00ed
:10060000849fbe00869fbe000000fa000068a9001b
:100610007a0a0700ac1107002e0d07002082800027
:100620008000e8002182880091012000010178000b
:10063000110009000200d8008000fd000000e00069
:1006400001003a00680e0700000000000080fa0078
:100650004f03be004f02be004f01be004f00be0060
:100660003600f900004006000000fa000108a90069
:10067000000000000080fa00004006003600f8008c
:10068000809fbe00829fbe00849fbe00869fbe00ea
:100690000000fa000368a900e0818000f181800079
:1006a00061004000e0804800e0818800f18188001e
:1006b00028080700000000000080fa004f03be0079
:1006c0004f02be004f01be004f00be003600f900d1
:1006d00000400600801f78000000fa0001a8a90071
:1006e00000188000509488001018800060948800e2
:1006f0002018800070948800301880008094880052
:10070000401880009094880010c0b30057f0b700e4
:10071000000000000080fa004f0078000040060052
:100720003600f800809fbe00829fbe00849fbe00fe
:10073000869fbe000000fa000188a9005181800058
:1007400040818000808f500002003200f7100700c7
:10075000010037003070ef00000000000080fa0058
:100760004f03be004f02be004f01be004f00be004f
:100770003600f900004006003600f800809fbe00f9
:10078000829fbe00849fbe00869fbe000000fa00cc
:100790000168a900101180004200de006140600085
:1007a000e14f500001003a002242a90010118000e0
:1007b0000000d10061406000e14f500005003a00a8
:1007c0002222a90003003700301180000040780089
:1007d000ea110700101180000040780061406000bd
:1007e000e14f5000f8ff3200000000000080fa00e6
:1007f0004f03be004f02be004f01be004f00be00bf
:100800003600f900004006000040da000000fe005b
:100810000000050014002000ad033700f4ff2f0096
:10082000ab0337000001be003f0007000470a700c3
:1008300003f0a1006509b100160032000d0035007b
:100840006828e10006003500f0ff2f00f1ff2700c7
:100850000300e00013003b00010028000000050039
:1008600000004000818048008502e900fcff3a005a
:1008700008003700f88f420002003c008000eb00c7
:10088000000005008100d1000080d3008502e8004f
:10089000fcff3a000300e00002003b006000100093
:1008a000e0801800000006000001be001e000700e6
:1008b0000470a70003f0a10003f8a30013003a009e
:1008c0006509b10010003200090035006928e10017
:1008d0000200350001002800000005000000400073
:1008e000818048008502e900fcff3a000000060014
:1008f000f88f4200050035008100d1000080d30050
:100900008502e800fcff3a00000006008000eb00d2
:10091000000005004f89de00820178008703370060
:100920006011b80095033700c70ade00f107b20076
:10093000f50fb20008003200e1cf420002003200a1
:100940000170a00024000500810f7000010032003a
:100950000408050044000500810f700002003a0001
:10096000140005008502e9000000400081c0480035
:10097000fcff3b000170a0002400050007f82700e1
:10098000078361000638e10004003a00f707200001
:10099000878361008703710001003a0003f0a20021
:1009a000889fbe008a9fbe008c9fbe00470ade0063
:1009b0000480a100c71ade000580a10007002800fe
:1009c0000785600087856100f70f20000720e100a0
:1009d0009e0032000728e1009c00320001067800ea
:1009e0000400e000b4003200f707200087806000b8
:1009f0000170a0000500e000c0003200f7072000f1
:100a0000878161000370a000050652000f003a00c4
:100a10000b50e1000b0032000308e10002003a0035
:100a20000200e1007e00320002045000838458007e
:100a3000040031000001fd008101fd008402fd0081
:100a40008a05fd006044b800210037000520e10060
:100a500005003d000001fd008101fd008402fd0054
:100a60008a05fd00050652007a60e10005003500a8
:100a70000170a1004722dd00848070008a80700030
:100a8000630037006044b800ef02660007ff2f00e4
:100a9000070666000500e00006003400f08312003f
:100aa0008714dd000511de00071bdd000601710063
:100ab0008519de007060e10005003500090478004a
:100ac00082047800030178008001eb007006560074
:100ad0000b50e10003003a00020040008380480010
:100ae0000400370060041400e0841c000200580079
:100af000838058000188a300060032008100d100e5
:100b00000080d3008984d3000884d3000402e80065
:100b1000270037000178a30025003a000100e0001b
:100b2000030032008186cf00698656000a00370034
:100b30008c0020000000e00004003a00090078006a
:100b4000880478000004eb00700252008086cf0019
:100b50000d0646000c06e9007060e1000600350055
:100b60008000780009007800880478000004eb0019
:100b700070065600700252000c00e0000c003400b9
:100b80008c08dd00f00316000703de00868070008d
:100b90000c00dd00074bde00060070008c4cdd0011
:100ba0000743de00868474000c44dd000c02520012
:100bb0006120e1002000350061016000070028008d
:100bc00087816400f7ff27008783640007037400b0
:100bd0000300e000060032008203730004003200cc
:100be0000000e800e08048000188a3000e003a0001
:100bf000f70f20000720e1004a003d000170a1002e
:100c00004722dd00810072008a8070000000be0073
:100c10004f06be004f05be004f04be000000060098
:100c20006000b800faff37008100d1000080d300d7
:100c30000402e800eeff3700040178008901740027
:100c4000a10107008a807000f1ff3700f70107005b
:100c5000070278000001fd008101fd00f30107009b
:100c600087027800850372000778a3000400320031
:100c70000001fd008101fd0006020700e4ff3700ce
:100c8000850362000768a300080032000b50e100f2
:100c900003003200f0ff2f00f1ff2700dcff3700d8
:100ca0000001fd008101fd00d9ff37000468a300a9
:100cb000d7ff3200faff3700f8ff27008883600073
:100cc0000b003a000000e00009003a0083036400d2
:100cd00082837300020032000200be00ccff3700a6
:100ce0000b50e100ceff3a000200be00c8ff370003
:100cf00014002000810064003eff3700f8ff270049
:100d00008883610004003a000200e00002003a001b
:100d10008c007800beff37001500200083016400be
:100d200039ff370001f8270000002000810075001e
:100d3000b7ff3700889fbe008a9fbe008c9fbe0011
:100d40001b0020000202be00058668000600280085
:100d5000060666004709de00f20fb200820032008c
:100d60000243e80080003200c729de00f30fb20022
:100d70007d0032000343e8007b003200f107b2003f
:100d80000170a000f507b2000570a000c708dd00e3
:100d90004903de00868070004700dd00c72add00c1
:100da0004923de00868272004722dd0003055100e0
:100db0000403500085835800030031000000400008
:100dc000818048000a05e9008c1f78008a9fbe00d8
:100dd00004005000858058000402420085824a00c9
:100de00000004000818048000005eb000004be00c8
:100df0006033b8000406be000d48e1005600310023
:100e0000110009004dccd8000c01b8000d02b8004b
:100e10008481410060824a008283530003045c00a5
:100e200084845c0060055d000a00e00025003a0053
:100e3000800578000d40e10049003100880078000d
:100e400007007800110009004d88d8000c01b80097
:100e50000d02b8008481410060824a0060031100e5
:100e600083835b0004045c00e0845c000900e00014
:100e700021003a004f01be000300e0002b003200c9
:100e8000e3016000070673008c81710001003200ed
:100e9000640070004200de004e5edd000c00700059
:100ea000c258de0001e0a00083010700cf017800f6
:100eb000818071004f06be004f05be004f04be008a
:100ec000000006008c8343000d044c00e0844c00bd
:100ed00060054d000000e9000a00e000d4ff320088
:100ee0008c8343000d044c00e0844c0060054d00f1
:100ef0000000e900ceff37000c0343008d834b0058
:100f000060044c00e0844c000000e9000900e000af
:100f1000d8ff32000c0343008d834b0060044c006b
:100f2000e0844c000000e900d2ff37004200de0000
:100f30004e5edd000c007000c258de0001e0a00033
:100f4000cf0178000300e000daff320060001000fb
:100f5000e0801800d7ff3700f0ff2f00aaff37000e
:100f6000f0ff2f00b9ff37000404be002f01070077
:100f7000870678000004fd008104fd002b010700b6
:100f8000078366000678a300030032000960a7000b
:100f90000800be002c0037000d78a30002003200cc
:100fa0000800be00280037000778a30026003a009a
:100fb00001f0a10009f0a1000668a30003003200bf
:100fc000f1ff2700f0ff2f00baff37000d68a300e4
:100fd000030032000800be008c807000b5ff3700af
:100fe0000768a30007003a000648a3000300320088
:100ff000f1ff2700f0ff2f00aeff37000d48a300e0
:10100000030032006000b8008c807000a9ff370038
:101010000748a3000400320001f827000000200068
:101020008c807000a3ff3700760107000004fd00ec
:101030008104fd0002057800720107000802be006d
:101040008a01780059ff37000160a00012022000d9
:10105000c282880097ff37000100e00012003200d2
:101060000500e00010003200889fbe008a9fbe008d
:101070008c9fbe000006eb0001f8a30003003200c5
:1010800060001000e08018000cf0a00005f8a3003c
:101090000300320060021200e0821a000cf0a2008d
:1010a0008005eb0041ff37006000b800020005003a
:1010b000038368000700280007036300470ade0077
:1010c0000480a100c71ade000580a100f70f2000f0
:1010d0000720e100420032000728e1004000320012
:1010e000889fbe008a9fbe008c1f7800f107b20067
:1010f000f307b2000400e000640032000170a000b9
:101100000500e000680032000370a0008505420081
:10111000eb07b1000204b8000302b8008484440065
:1011200060854a00020ab800848444000a854a00a7
:10113000030ab80004054500040033000804d00089
:101140008984d2000a85d2008b05e9006158e1004c
:101150003d00350002102000090161000308200055
:1011600089816100f7072000878364000886730087
:10117000c84cde00c853dd00878474004855de008b
:101180000300e00006003200820376000400320013
:101190008904e80060054d000a88a3000c003a00ad
:1011a000f70f20000758e10044003d000a70a1003d
:1011b000c75ddd000a8575008a00730009007800ac
:1011c0004f0678004f05be004f04be000000060029
:1011d0000a05d1008984d3008b05e800f0ff3700b1
:1011e000881f780006047800900007000702780046
:1011f0000001fd008101fd008c00070087027800de
:10120000850372000778a300050032000001fd008d
:101210008101fd009f0007004f04780000000600d8
:10122000850372000748a30003003200f0ff2f007f
:10123000f1ff2700f8ff37000000200001f8270029
:1012400088807000f4ff3700880178004848dd008e
:10125000808171004848de00c850dd000100700048
:10126000c850de00060478000b0178001600070065
:1012700088807000d2ff37000500e00005003200d2
:10128000170020003a0007009dff3700810370001f
:10129000f9ff3a00860078004f0678004f05be003f
:1012a0004f04be000000050083037100f9ff320007
:1012b000270020002e00070094ff370001f82700c8
:1012c00086807000f4ff37000100e0002600320045
:1012d000610111007810e10023003c006022b80099
:1012e0007010e100040035008002780001007800f1
:1012f0008000eb00700151000200e00009003400a2
:1013000070031100062add00822ade008603dd005c
:10131000878272000200de00860bdd00070070008d
:101320008208de0084817100f4ff270004826200dd
:1013300084817100040028008482620061026000e0
:1013400005f0a600000006000482710007003200cc
:101350000000e800e0804800000006000002be0037
:101360006000b800efff37006000b8000000060022
:10137000889fbe000004eb006138e10016003a00cf
:101380000100e00008003a00c800de004800dd006f
:10139000880020000100e00003003a00c800de00e1
:1013a0004800dd00680444008184cf00e9845400d3
:1013b000060034008908dd00f08314008703de0096
:1013c000878070000900dd000904440061021400f8
:1013d0004f04be00000006000300e00008003a00d1
:1013e000c811de004811dd00880020000300e00085
:1013f00003003a00c811de004811dd006804440013
:101400008384cf00e9845400060034008919dd008c
:10141000f08314008713de00878171000911dd005d
:1014200009044400e1021400e9ff3700270020000e
:1014300001f0a70017002000470bde00f60fb200f6
:10144000040032000643e8000a0032004702b300fd
:101450000000060001037800f607b20006037000e2
:1014600002003a000703b300000006008702b30041
:101470000000060001037800f607b20006037000c2
:10148000020032000770a000000006000760a00004
:10149000000006000478a300040032000578a300d1
:1014a000030032000168a30001003a000200be0000
:1014b0000160a000000006008101700027003200da
:1014c0008002eb0001f8a30003003200600010006e
:1014d000e080180015002000f407200002024200fe
:1014e00020003400f703200087036000060420007a
:1014f0000003630002082000000161004700de00d5
:10150000c909dd0000807100c708de000600e000a8
:101510000800320087037100060032001000b0009e
:101520000180b0000188a30002003200c108de0083
:101530000402e800f107b200f30f20000320e100ed
:1015400003003d004722dd008100720029003700c2
:1015500001f827000000eb00260037006000b8000b
:1015600000000600680212007f20e1000200340043
:101570006000b8001f0037006011b8007020e10063
:101580000400350080017800010078008000eb0045
:10159000700252000400e00009003400f003120061
:1015a0000719dd008419de000703dd008681710064
:1015b0000400de00070bdd00060070008408de007a
:1015c000f7ff27008383630087037100060028006c
:1015d00003036300070032000700e00003003a0045
:1015e0006101600002817300020032001000b0004f
:1015f0000180b0000500a6000000060001f0a00078
:10160000000006004f0ade004709de00f107b200c5
:10161000f20fb2000b003200f207b1000170a0001f
:10162000c708dd00c901de00838070004700dd00cf
:101630000400a6000000060060001000e080180012
:1016400000000600810f700001003a000000060053
:101650008182cf000500e00010003e008082cf00b4
:10166000ee8242007028e1000400390007003e00cd
:10167000800078000000eb000e003700708312003d
:101680008600de000500dd000a003700708352008e
:101690008600dd000000eb0006003700e282520009
:1016a0008508dd00708312000603de00868070006e
:1016b0000500dd007507b0000501ea000400a60082
:1016c0000000060060001000e08018000000060026
:1016d000889fbe008a9fbe00841f78007c000700a0
:1016e0004f00780011003300f0ff2f00838f6c0053
:1016f00006003b00040565000a00a700080037004b
:1017000009f0a6001000200008003700820f5400e6
:10171000838f5c00030039001000200001003e00b0
:101720000000200009f0a7000000ea004f05be00fd
:101730004f04be000000e00000000600881f780093
:10174000030478000300e00007003d006000100083
:10175000e080180060011900e081190002003b00e0
:1017600001f02d00030037000400070008f0a70077
:1017700001f0a0004f04780000000600889fbe0022
:101780008a9fbe0000827000040271000482710012
:10179000260032000004be000200be006011b80046
:1017a0006b092000950220000182cf000a00390059
:1017b0000541b1000082cf00070039000541b100aa
:1017c0000982cf00040039000541b1000882cf0032
:1017d000010039000541b1000542520012003200fb
:1017e0000a003b0082817100610164008100d10028
:1017f0000080d3008984d3000884d3008b05e800df
:101800000442e800f7ff3a000700370008044400ec
:1018100089844c0000004800818048008b05e90065
:101820000442e900f9ff3a00030007004f05be003b
:101830004f04be00000006008100200061805500ba
:101840000b003d000b00200061fe2f000100e100b5
:101850001d00340082817100610164008904d1009f
:101860000884d3000000e800faff3a00710020006d
:101870006100640003007000020060000900320093
:1018800061044400e0844c000988a5000500320092
:101890008b05e8006808e10002003a008904d100e5
:1018a0000884d300f20f20000258e10005003d003b
:1018b000c75ddd00f907b200898075000800780077
:1018c000000006000bf827008b00780000000500e0
:1018d0000004be0014fc07000003be000405be00a7
:1018e0000200be0010fc0700844f750000000600d7
:1018f0000400fa00000178008101780003f0a100e3
:10190000a4fd200095f42300840f5100858f590019
:101910000e003e00f4ff2f00f5972300840f5100c6
:10192000858f59003a003e000200200003b82700ce
:101930001bfc0700e0bf9f00f1bf9f0000002000dc
:1019400001f823000080fa00000006004f0ade00c4
:1019500005002000163d2500b7072400860f510022
:10196000878f59001b003e0036be2c006701240003
:10197000860f5100878f59000a003600b2fd200003
:10198000930424000400e0000400320004fc07007b
:101990005b01070001f0a200eaff3700f7fb070038
:1019a000fbff37000400e00005003200b2fd20001c
:1019b00093fc2300fafb0700dc010700e1ff37007e
:1019c0000001be00b0fd200091fc2300ebfb0700ee
:1019d000f9ff3700561d2300270e2400860f510003
:1019e000878f590014003e00f6dd2e00f70a240010
:1019f000860f5100878f590009003600b2fd200084
:101a0000930c24000400e00003003200e4fb070014
:101a10003b010700cbff3700d8fb0700fcff370076
:101a20000400e0000100320001f0a20042be2c00e0
:101a300063092400e5ff3700f4ff2f00f5f72700c6
:101a4000840f5100858f5900040036000001be004c
:101a50000200be00c9fb0700baff370064815700cf
:101a60005b010700630160006fb89700ffb8970043
:101a7000e10f510005003200e20f5100c4ff3200b7
:101a80000200e000ccff3a00e1ff370001f0a200c5
:101a9000c9ff37000400fa00889fbe008a9fbe007d
:101aa0000203410083834900e00f5300e08f5b0095
:101ab00010003200020278008302780005f0a100d5
:101ac0000800200009f82700880f5200898f5a006b
:101ad00008003e00a0bf9f00b1bf9f00470dde0081
:101ae0000b002000f40f20000a056200840f55004f
:101af00007003a006efd07000001be008dfc0700e4
:101b00004f05be004f04be000080fa000000060032
:101b10000002400081824800840f5300858f5b00e3
:101b200006003900840f5300858f5b00f4ff3a00f4
:101b30006011b8005efd0700f1ff37000a00e00009
:101b40004c003a002fbb9700bfbb9700493add001d
:101b5000c732de00850272004932dd00e00f52001c
:101b6000e08f5a003f003d00610215002fbb970037
:101b7000bfbb9700040478000804e90003003300a9
:101b80000603430087834b00fbff37000602be00bd
:101b9000471bde00070020000683fb000600e00074
:101ba0003d003a00491cdd00c714de0089047400c2
:101bb0004914dd00e00f5400e08f5c0032003d006e
:101bc000e10313000204be008703e90003003300b1
:101bd0000804440089844c00fbff370008015200d0
:101be00089815a00860f55002f003c00e00f5100fc
:101bf000e08f590004003500e00f5100e08f5900dc
:101c0000cbff32000202be004728de0001002000a8
:101c1000e00f5000e08f58002e0032000a00e00074
:101c2000300034000000200001f82f0004024000c2
:101c3000858248006150b900c700dd000000200027
:101c400004007000858070006022b8000200280047
:101c5000bfb99700830261000000720081807200aa
:101c6000a7ff37000a05e9000402420085824a0006
:101c7000baff37002fba9700bfba9700f507b20036
:101c80000570a000c2ff37000603e9000804440005
:101c900089844c00c7ff37000204be00f907b20078
:101ca0000970a000cdff3700e00f5100e08f590010
:101cb00004003500e00f5100e08f59009cff320016
:101cc0000202be000402420085824a000a05e900c1
:101cd000c2ff37000402420085824a000a05e9007b
:101ce000c9ff3700610515000400be000a05e900c0
:101cf000030033008100d1000080d300fbff3700d8
:101d0000d1ff37000400fa00889fbe000004be0027
:101d10008900780001f0a100a4fd200095f42300c3
:101d2000840f5000858f58001e003e00f4ff2f00e6
:101d3000f5972300840f5000858f580016003e0051
:101d40006000b80003f8270089806100e00f5000b0
:101d5000e08f58000b003a000200200003382000fa
:101d60000800be00d2fc07000001be00c2bf9f00f9
:101d7000d3bf9f000800be004f04be000080fa00e1
:101d8000000006000200200003b827000800be0083
:101d900003fb0700f4ff37000800be00e300070064
:101da000180037004f49de0003002000143d2500d5
:101db000b5072400840f5000858f58001d003e0099
:101dc00034be2c0065012400840f5000858f58001c
:101dd0000e003e000800be000200e000b2fd200040
:101de00093fc230005003200edfa070044000700d1
:101df0000004be0009f0a200deff3700dffa070092
:101e00003f0007000004be00daff37000800be00f4
:101e10000200e000b2fd2000930424000300320021
:101e2000dffa070001f0a200dcff3700d3fa070059
:101e3000fcff3700541d2300250e2400840f5000a2
:101e4000858f580017003e00f4dd2e00f50a2400af
:101e5000840f5000858f580009003e000800be0026
:101e60000200e00042be2c006309240002003200a0
:101e7000cbfa0700e2ff3700c0fa0700dbff3700ac
:101e80000800be000200e000b2fd2000930c240018
:101e900002003200c2fa0700c0ff3700b7fa07009d
:101ea000beff3700f2ff2f00f3f72700820f50002c
:101eb000838f5800050036000801be000800be00f0
:101ec000aefa07000004be00aaff37006881570081
:101ed0000800be003e000700630160004fb8970095
:101ee000dfb89700e10f5100c5ff3200e20f51004b
:101ef000ccff32000200e000bcff3a00a7ff370031
:101f00000400fa00889fbe008a9fbe008c9fbe001e
:101f10000001be0066fc07000004be000001be0018
:101f200063fc07000005be000200200003f02b0048
:101f30000800be005efc07000200200003f823003a
:101f400097fa07000006be00f2a92a00a3d22300d8
:101f50000a00be0056fc07000001be000c00be00d7
:101f60008ffa07000002be0072a12900c37c230083
:101f70000800be0084bf9f0095bf9f004cfc070077
:101f8000f243200063ab23007cfa07000006be008a
:101f90000a01be000800be0045fc07000001be00ab
:101fa0000c00be0042fc07000001be000fba970003
:101fb0009fba97000400be0079fa07004f06be00e2
:101fc0004f05be004f04be000080fa00000006006e
:101fd0000400fa00889fbe008a9fbe008c9fbe004e
:101fe00000067800810478008206780001f0a100e4
:101ff000a2fd200093dc2400820f5000838f580044
:1020000023003e0032982f0023f22300890078003d
:1020100027fc07000200200003b4240060fa070038
:102020000200200003b4240054fa07000005be009b
:10203000fcf9070000047800a2fd200093fc2300b7
:102040000a00be001afc07000001be000c00780068
:102050008900780049fa07000002be00325a2800c1
:10206000832823000a00be0084bf9f0095bf9f0005
:102070000ffc07000001be000fba97009fba97003f
:102080000400be003dfa0700808ebe000b00370042
:10209000f2ff2f00f3f72700820f5000838f5800c4
:1020a0000c00360000017800890178008900780072
:1020b00032fa0700808ebe000004eb0008007800b2
:1020c0004f06be004f05be004f04be000080fa0060
:1020d00000000600890078004c0007000005be00e3
:1020e00032982f0023f22300f1fb070002002000aa
:1020f00003f023002afa07005500070000047800c7
:102100008efd070032982f0023f2230009fb070001
:102110000001be000a00be0018fa07006000b80007
:10212000a0069800b1069800d7ff37000400fa0017
:10213000889fbe008a9fbe008c9fbe000006be0026
:102140000001be00dafb07000004be000001be0073
:102150000c00be00d6fb07000005be000801be0053
:102160000800be00d2fb07000a01be00d0fb07003a
:102170000002be00c2c32600636323000800be0045
:1021800084bf9f0095bf9f00c9fb0700f27c200021
:1021900003952300f9f907000001be000fba97006c
:1021a0009fba97000400be00c1fb07000002be00fa
:1021b0004288280083c023000800be0084bf9f001f
:1021c00095bf9f00bafb0700b2aa2a00a3e2230032
:1021d000eaf907000a01be00b5fb07000c01be00ca
:1021e000eff907000001be000fba97009fba9700f1
:1021f0000400be00eaf907004f06be004f05be000e
:102200004f04be000080fa00000006000400fa003f
:102210006011b800e2bf9f00f3bf9f006fbb970043
:10222000ffbb97000002be00f0ff2f00f1ff2f0060
:10223000f2ff2f00f3ff27000000620081806200a0
:1022400002016300838163000080fa000000060041
:102250000003be00b4f907006011b8000470a700c5
:1022600007f0a1006509b1001b0032001200350023
:10227000860220000628e10008003500f3ff270051
:10228000f2ff2f006110b9000700e00018003b00ca
:10229000030028006000b8000200050000004000b4
:1022a0008180480002014900838149008502e900dc
:1022b000faff3a0008003700f88f420002003c00a5
:1022c0008000eb00000005008100d1000080d300f9
:1022d0008502e800fcff3a000700e00004003b0034
:1022e00060001000e080180060011900e081190012
:0422f00000000600e4
:020000040000fa
:1022f4000600fa00850a0700d20a07005404070002
:1023040041040700210507007d020700300a070089
:102314009e0b0700de050700e5050700854ea800b3
:10232400a00521008040eb00616098006e0a070060
:10233400e14f5000fdff3a006f0a0700660a0700ec
:10234400000f78001e007800100078008000eb0079
:1023540072f90700323323003305240053fb0700ce
:102364000001780001007800820278000002780001
:10237400020020000358240005007800840078003f
:102384000000be006afa07001007980021079800b1
:102394001e019000ae019000000020008120240066
:1023a40063fa0700000178000100780082027800d7
:1023b4000002780002002000030a240005007800cf
:1023c400840078000000be006bf9070080017800eb
:1023d4000101780003007800820078000000be004c
:1023e400e0838800f18388001e80e80010007800f4
:1023f4008000eb0049f90700323323003305240041
:102404002afb0700000178000100780082027800ae
:102414000002780002002000035824000500780020
:10242400840078000000be0041fa070010079800fd
:10243400210798001e019000ae01900000002000ca
:10244400812024003afa0700000178000100780096
:10245400820278000002780002002000030a2400af
:1024640005007800840078000000be0042f90700ef
:102474008001780001017800030078008200780070
:102484000000be00c0838800d18388004100200082
:102494001e804000100078008000eb001ff9070048
:1024a400323323003305240000fb070000017800c9
:1024b4000100780082027800000278000200200007
:1024c4000358240005007800840078000000be0052
:1024d40017fa070010079800210798001e019000c2
:1024e400ae019000000020008120240010fa0700b3
:1024f4000001780001007800820278000002780070
:1025040002002000030a24000500780084007800fb
:102514000000be0018f9070080017800010178006e
:1025240003007800820078000000be00a0838800c9
:10253400b1838800610020001e80400010007800f4
:102544008000eb00f5f80700323323003305240044
:10255400d6fa0700000178000100780082027800b2
:1025640000027800020020000358240005007800cf
:10257400840078000000be00edf907001007980001
:10258400210798001e019000ae0190000000200079
:1025940081202400e6f9070000017800010078009a
:1025a400820278000002780002002000030a24005e
:1025b40005007800840078000000be00eef80700f3
:1025c400800178000101780003007800820078001f
:1025d4000000be0080838800918388008100200071
:1025e4001e804000100078008000eb00cbf807004c
:1025f4003233230033052400acfa070000017800cd
:1026040001007800820278000002780002002000b5
:102614000358240005007800840078000000be0000
:10262400c3f9070010079800210798001e019000c5
:10263400ae0190000000200081202400bcf90700b6
:10264400000178000100780082027800000278001e
:1026540002002000030a24000500780084007800aa
:102664000000be00c4f80700800178000101780072
:1026740003007800820078000000be0060838800b8
:1026840071838800e0838000f183800002002000d1
:10269400031f240060f807000000e000020034007b
:1026a40084cea9000100370084cea800c083800036
:1026b400d183800002002000031f240056f8070085
:1026c4000000e0000200340084aea90001003700dd
:1026d40084aea800a0838000b183800002002000a3
:1026e400031f24004cf807000000e000020034003f
:1026f400848ea90001003700848ea80080838000a6
:102704009183800002002000031f240042f8070088
:102714000000e00002003400856ea90001003700cb
:10272400856ea80060838000718380000200200011
:10273400031f240038f807000000e0000200340002
:10274400754ea900f9fe3700754ea800f7fe370054
:102754000000fa0026d0bf000080fb006100b90031
:10276400b200200003002000820f5000838f580025
:1027740086003e00000601000b00370014003700fd
:10278400210037002b0037003000370039003700b4
:102794003e003700470037004c0037005d0037002b
:1027a40062003700730037003c30ef003e30ef002a
:1027b4000001eb006000b800fa01070012002000dd
:1027c4006000b800f701070010c0b30026f0b7009e
:1027d400a005210060609000e14f50006d003a00b8
:1027e400e2818000f3818000803e2000010020000f
:1027f400800f5100818f59006600360020c0b3005d
:1028040026f0b700630037000001eb000000200051
:10281400011f2400e3010700120020000000200033
:10282400011f2400df01070030c0b30026f0b70009
:1028340067003700a005210060609000e14f500060
:1028440056003a0065000700540037000001eb0011
:102854000000200001172400d2010700120020000c
:102864006000b800cf01070050c0b30026f0b700e5
:1028740057003700a005210060609000e14f500030
:1028840048003a0055000700460037000001eb00fd
:102894006000b800c30107001200200000002000ff
:1028a40001172400bf01070070c0b30026f0b70071
:1028b40047003700a005210060609000e14f500000
:1028c4003a003a0045000700380037000001eb00e9
:1028d4000000200001172400b201070012002000ac
:1028e4000000200001172c00ae010700e2818000e7
:1028f400f3818000401f200001002000800f510060
:10290400818f59002b00360090c0b30026f0b70029
:1029140028003700a005210060609000e14f5000be
:1029240026003a002d000700240037000001eb00c8
:102934000000200001172c009a010700120020005b
:10294400000020000117240096010700e2818000a6
:10295400f3818000401f200001002000800f5100ff
:10296400818f590017003600b0c0b30026f0b700bd
:1029740014003700a005210060609000e14f500072
:1029840012003a0015000700100037002670ef000f
:102994000f003700000000000d00370000000000a9
:1029a4000b003700000000000900370000000000a1
:1029b4000700370000000000050037000000000099
:1029c4000300370000000000010037000000000091
:1029d400000000000080fa00000006000000fa0079
:1029e4002430ef00e0838000f183800002002000a7
:1029f400c320240086f707000000e00003003d0028
:102a0400208180000000a00020818800c083800015
:102a1400d183800002002000032224007cf70700f9
:102a24000000e00003003d00208180000010a000b1
:102a340020818800a0838000b183800002002000f0
:102a44000322240072f707000000e00003003d00a9
:102a5400208180000020a0002081880080838000e5
:102a640091838000020020000322240068f70700fd
:102a74000000e00003003d00208180000030a00041
:102a84002081880060838000718380000200200020
:102a9400c32024005ef707000000e00003003d00af
:102aa400208180000040a0002081880020818000d7
:102ab4008000eb00f201200003002000820f500090
:102ac400838f580081003e00000601001f0037007c
:102ad4002100370023003700250037002700370086
:102ae400290037002b0037002d0037002f00370056
:102af4003100370033003700350037003700370026
:102b0400390037003b0037003d0037003f003700f5
:102b140041003700430037004500370047003700c5
:102b2400490037004b0037004d0037004f00370095
:102b34005100370053003700550037005700370065
:102b4400590037005b0037005d00370020c0b30038
:102b540022f0b7005d00370020c0b30022f0b700b8
:102b64005a00370060c0b30022f0b70057003700a6
:102b740060c0b30022f0b70054003700a0c0b30017
:102b840022f0b70051003700a0c0b30022f0b70014
:102b94004e003700a0c0b30022f0b7004b0037004e
:102ba400a0c0b30022f0b7004800370040c0b30013
:102bb40022f0b7004500370060c0b30022f0b70030
:102bc4004200370060c0b30022f0b7003f00370076
:102bd40060c0b30022f0b7003c003700a0c0b300cf
:102be40022f0b70039003700a0c0b30022f0b700cc
:102bf40036003700a0c0b30022f0b700330037001e
:102c0400a0c0b30022f0b7003000370020c0b300ea
:102c140022f0b7002d00370020c0b30022f0b70027
:102c24002a00370040c0b30022f0b7002700370065
:102c3400a0c0b30022f0b70024003700a0c0b30046
:102c440022f0b70021003700a0c0b30022f0b70083
:102c54001e003700a0c0b30022f0b7001b003700ed
:102c6400a0c0b30022f0b7001800370040c0b30082
:102c740022f0b70015003700a0c0b30022f0b7005f
:102c840012003700a0c0b30022f0b7000f003700d5
:102c9400a0c0b30022f0b7000c003700a0c0b300fe
:102ca40022f0b70009003700a0c0b30022f0b7003b
:102cb40006003700a0c0b30022f0b70003003700bd
:102cc400a0c0b30022f0b7000000000022d0bf0073
:102cd4000080fb0061022100914078008180fb00ac
:102ce4008100e900810f50000200320022d0bf00b1
:102cf40026f0b700000000000080fa000000060083
:102d04000000fa0002ccbf000000a1000010a100e6
:102d14000020a10002ecb70000962000206088008b
:102d24001061800000a0a00000b0a0001061880025
:102d340023cca80023eca8003000200020618800e8
:102d44001062800000a0a00000b0a0001062880003
:102d540043cca80043eca800300020002062880087
:102d640001eca800000000000080fa00000006004a
:102d74000600fa00008fbe00220798006011b80018
:102d84001e0078009e009000a1f607000000e000fd
:102d940043003d001e0078009e00900001f0a20058
:102da400008fbe002e009000e10f50001e003a007c
:102db40002002000031c24001e0078009e009000e6
:102dc400baf8070000017800010078008202780058
:102dd4000002780030828000418280000001be0041
:102de40005007800840078000000be00ebf60700c0
:102df4000001780001007800820178000001780069
:102e040003007800820078000000be00a5f60700e9
:102e1400706288003082800041828000a1f6070041
:102e2400306288005c00370002002000031c24008c
:102e34001e0078009e0090009cf8070000017800b6
:102e4400010078008202780000027800308280005d
:102e5400418280000001be000500780084007800f3
:102e64000000be00cdf607000001780001007800e4
:102e74008201780000017800030078008200780065
:102e84000000be0087f607003061880030828000b1
:102e94004182800083f60700706188003e0037009d
:102ea4002e009000e10f50001e003a0002002000a6
:102eb400031c24001e0078009e0090007bf807008d
:102ec4000001780001007800820278000002780096
:102ed40030828000418280000001be00050078003d
:102ee400840078000000be00acf607000001780002
:102ef4000100780082017800000178000300780066
:102f0400820078000000be0066f607007061880049
:102f1400308280004182800062f6070030618800c0
:102f24001d00370002002000031c24001e0078004e
:102f34009e0090005df80700000178000100780011
:102f44008202780000027800308280004182800092
:102f54000001be0005007800840078000000be0077
:102f64008ef60700000178000100780082017800e5
:102f74000001780003007800820078000000be00a1
:102f840048f6070030628800308280004182800069
:102f940044f6070070628800000000000080fa0018
:102fa400000006000600fa00008fbe002207980009
:102fb4002e009000e10f500005003a001e01780039
:102fc4009e019000e2828800f382880007003700a7
:102fd4002e0090000000e00004003a001e0178007a
:102fe4009e01900022838800338388000000000043
:102ff4000080fa00000006000000fa00889fbe006e
:103004008a9fbe000483800015838000e0828000d4
:10301400f18280000001be000400be00fcf5070040
:103024000000e00015003d00e8828000f982800085
:103034000a8380001b838000508280006100b900f5
:1030440033f607000001be000a00be0053f6070075
:103054000001780001007800820278000002780004
:103064000801be0005007800840078000000be005e
:10307400850507000083880011838800048380008d
:1030840015838000e0828000f18280000001be0090
:103094000400be00e0f507000000e0001500340065
:1030a400e8828000f98280000a8380001b8380000c
:1030b400508280006100b90015f607000001be00cf
:1030c4000a00be002cf60700000178000100780019
:1030d40082027800000278000801be000500780032
:1030e400840078000000be005005070000838800bb
:1030f4001183880000838000118380006011b80070
:10310400c5f507000000e0001e00340000838000c5
:103114001183800002002000031c2400e3f7070051
:103124000001780001007800820278000002780033
:1031340030828000418280000001be0005007800da
:10314400840078000000be0014f607000001780037
:103154000100780082017800000178000300780003
:10316400820078000000be00cef5070030618800c0
:103174003082800041828000caf5070070618800b7
:103184001e0037003082800041828000c5f50700b0
:1031940030618800008380001183800001f0a20068
:1031a40002002000031c2400c0f70700000178007f
:1031b40001007800820278000002780030828000ea
:1031c400418280000001be00050078008400780080
:1031d4000000be00f1f5070000017800010078004e
:1031e40082017800000178000300780082007800f2
:1031f4000000be00abf507007061880044838000c6
:103204005583800020838000318380000001be004c
:103214000400be007ef507000000e00015003d003c
:1032240028838000398380004a8380005b83800088
:10323400508280006100b900b5f507000001be00ae
:103244000a00be00d5f507000001780001007800ef
:1032540082027800000278000801be0005007800b0
:10326400840078000000be00070507004083880042
:10327400518388004483800055838000208380002c
:10328400318380000001be000400be0062f5070027
:103294000000e0001500340028838000398380009a
:1032a4004a8380005b838000508280006100b90003
:1032b40097f507000001be000a00be00aef5070046
:1032c4000001780001007800820278000002780092
:1032d4000801be0005007800840078000000be00ec
:1032e400d204070040838800518388004083800013
:1032f400518380006011b80047f507000000e0002a
:103304001e003500408380005183800002002000ad
:10331400031c240065f70700000178000100780011
:1033240082027800000278003082800041828000ae
:103334000001be0005007800840078000000be0093
:1033440096f50700000178000100780082017800fa
:103354000001780003007800820078000000be00bd
:1033640050f507007062880030828000418280003e
:103374004cf50700306288001e0037003082800060
:103384004182800047f50700706288004083800016
:103394005183800001f0a20002002000031c2400dd
:1033a40042f70700000178000100780082027800eb
:1033b4000002780030828000418280000001be005b
:1033c40005007800840078000000be0073f5070053
:1033d4000001780001007800820178000001780083
:1033e40003007800820078000000be002df507007d
:1033f40030628800000000004f05be004f04be008c
:103404000080fa00000006000000fa0005e1a900af
:10341400200880000040a1000050a000200888007f
:103424000421a90060ea2000100888000068a900af
:103434002068a80005e1a8000082800011828000b5
:103444001d000700000000000080fa0000000600d4
:103454000000fa0013e1a90011e1a9001061a8001d
:103464001021a900800880000040a1000050a100a4
:10347400800888000a21ef000621ef007072200006
:103484007008880000e02000600888002042800066
:103494000000a0000010a1000020a100204288002c
:1034a4000108a9002108a80011e1a80000000000fb
:1034b4000080fa00000006000400fa00008fbe003d
:1034c400200880000040a1000050a10020088800ce
:1034d4001e0178009e019000001c2e0041c62400ad
:1034e40013f60700000178000100780082027800da
:1034f4000002780002f02f00f37724000500780022
:10350400840078000000be00c3f407000000e0005f
:103514008d003400200880000040a0000050a1006d
:10352400200888001e0178009e019000001c2e00d7
:1035340041c62400fef50700000178000100780070
:1035440082027800000278000200200003102400a8
:1035540005007800840078000000be00f4f5070040
:1035640000017800010078008202780000027800ef
:1035740002f02f00f377240005007800840078001f
:103584000000be00a4f407000000e0005500340071
:10359400200880000040a1000050a00020088800fe
:1035a4001e0178009e019000001c2e0041c62400dc
:1035b400dff507000001780001007800820278003e
:1035c400000278000200200003282400050078008f
:1035d400840078000000be00d5f5070000017800e3
:1035e40001007800820278000002780002f02f00c7
:1035f400f377240005007800840078000000be0002
:1036040085f407000000e0001d003400200880005d
:103614000040a0000050a000200888001e0178008f
:103624009e019000001c2e0041c62400c0f5070036
:10363400000178000100780082027800000278001e
:10364400020020000338240005007800840078007c
:103654000000be00b6f50700000178000100780004
:10366400820178000001780003007800820078006d
:103674000000be006af4070010088800400037000c
:103684001e0178009e019000001c2e0041c62400fb
:10369400a7f5070000017800010078008202780095
:1036a40000027800020020000328240005007800ae
:1036b400840078000000be009df50700000178003a
:1036c400010078008201780000017800030078008e
:1036d400820078000000be0051f407001008880042
:1036e400270037001e0178009e019000001c2e0068
:1036f40041c624008ef5070000017800010078001f
:1037040082027800000278000200200003102400e6
:1037140005007800840078000000be0084f50700ee
:10372400000178000100780082017800000178002f
:1037340003007800820078000000be0038f407001f
:10374400100888000e0037001e0178009e019000ca
:10375400001c2e0041c6240075f507000001780006
:1037640001007800820178000001780003007800ed
:10377400820078000000be0029f4070010088800c9
:10378400000000000080fa00000006000000fa00bb
:103794001fe1a9001e21a9000368a9002368a8004d
:1037a4001fe1a80000002000a14724000300070037
:1037b400000000000080fa00000006000400fa0087
:1037c400008fbe00f00880000040a1000050a1005e
:1037d400f00888001e0178009e019000001c2e0055
:1037e40041c6240052f5070000017800010078006a
:1037f400820278000002780002f02f00f3772400a0
:1038040005007800840078000000be0002f4070080
:103814000000e0008d003400f00880000040a000ab
:103824000050a100f00888001e0178009e0190005d
:10383400001c2e0041c624003df50700000178005d
:103844000100780082027800000278000200200063
:103854000310240005007800840078000000be00f6
:1038640033f5070000017800010078008202780037
:103874000002780002f02f00f3772400050078009e
:10388400840078000000be00e3f307000000e000bd
:1038940055003400f00880000040a1000050a00052
:1038a400f00888001e0178009e019000001c2e0084
:1038b40041c624001ef507000001780001007800cd
:1038c400820278000002780002002000032824000d
:1038d40005007800840078000000be0014f507009d
:1038e400000178000100780082027800000278006c
:1038f40002f02f00f377240005007800840078009c
:103904000000be00c4f307000000e0001d00340006
:10391400f00880000040a0000050a000f0088800db
:103924001e0178009e019000001c2e0041c6240058
:10393400fff407000001780001007800820278009b
:1039440000027800020020000338240005007800fb
:10395400840078000000be00f5f407000001780040
:1039640001007800820178000001780003007800eb
:10397400820078000000be00a9f30700d008880088
:10398400400037001e0178009e019000001c2e00ac
:1039940041c62400e6f40700000178000100780025
:1039a400820278000002780002002000032824002c
:1039b40005007800840078000000be00dcf40700f5
:1039c400000178000100780082017800000178008d
:1039d40003007800820078000000be0090f3070026
:1039e400d0088800270037001e0178009e0190004f
:1039f400001c2e0041c62400cdf40700000178000d
:103a040001007800820278000002780002002000a1
:103a14000310240005007800840078000000be0034
:103a2400c3f40700000178000100780082017800e7
:103a34000001780003007800820078000000be00d6
:103a440077f30700d00888000e0037001e017800c5
:103a54009e019000001c2e0041c62400b4f407000f
:103a640000017800010078008201780000017800ec
:103a740003007800820078000000be0068f30700ad
:103a8400d0088800000000000080fa000000060052
:103a94000000fa00c301a800dca1ef00dea1ef00e2
:103aa400c1e1a800000000000080fa000000060048
:103ab4000000fa00c305a800dca5ef00dea5ef00b6
:103ac400c1e5a800000000000080fa000000060024
:103ad4000800fa00889fbe008a9fbe000080800014
:103ae4001180800040808800518088002080800000
:103af400318080006080880071808800300e8000f2
:103b04008000eb00008fbe00500e80008000eb00b0
:103b1400c000dd00000020001e0f40005e9748003a
:103b2400302e80008000eb002007980031079800b9
:103b3400502e80008000eb00c000dd00000020005b
:103b440064014700e4014700331940002391480011
:103b5400120278009202900024079800350798001a
:103b64001e0078009e00900069f30700c2532e00e7
:103b7400737823004df507000001780001007800f8
:103b84008201780000017800030078008200780048
:103b940000808800118088002e009000be009000f4
:103ba4005bf30700c2532e0073782b003ff5070028
:103bb400000178000100780082017800000178009b
:103bc400030078008200780020808800318088001b
:103bd4000480800015808000408080005180800037
:103be4000001be000400be0063f30700000178007a
:103bf4000100780082017800000178000300780059
:103c04008200780080808800918088002480800071
:103c14003580800060808000718080000001be00db
:103c24000400be0054f3070000017800010078008e
:103c34008201780000017800030078008200780097
:103c4400a0808800b18088008480800095808000f6
:103c540080828000918280000001be000400be00ca
:103c640012f5070080017800010178000300780054
:103c7400820078000000be0010848800218488003f
:103c8400a4808000b58080008082800091828000c2
:103c94000001be000400be0004f5070080017800a6
:103ca4000101780003007800820078000000be0063
:103cb4003084880041848800148480002584800036
:103cc40030848000418480000001be000400be00f6
:103cd40032f30700000178000100780082027800c6
:103ce4000002780002002000030024000500780090
:103cf400840078000000be000df407008001780005
:103d04000101780003007800820078000000be0002
:103d14005084880061848800148480002584800095
:103d240030848000418480000001be000400be0095
:103d340011f3070000017800010078008202780086
:103d44000002780042b62300f3e523000500780062
:103d5400840078000000be00f5f3070080017800bd
:103d64000101780003007800820078000000be00a2
:103d7400708488008184880090848000a1848000fd
:103d8400d0848800e1848800b0848000c1848000ed
:103d9400f0848800018588001085800021858000da
:103da4003085880041858800d8848000e9848000bb
:103db4005a8480006b8480003085800041858000b7
:103dc400caf607000001be000a00be00b7f40700ef
:103dd4000001780001007800820278000002780077
:103de40080828000918280000001be00050078007e
:103df400840078000000be00cdf3070000017800c5
:103e04000100780082017800000178000300780046
:103e1400820078000001be000800be00dff2070047
:103e240080017800010178000300780082007800a6
:103e34000000be0090848800a1848800f88480007b
:103e4400098580005a8480006b848000308580005e
:103e540041858000aaf707000001be000a00be00e9
:103e640092f40700000178000100780082027800d3
:103e74000002780080828000918280000001be00f0
:103e840005007800840078000000be00a8f3070055
:103e940000017800010078008201780000017800b8
:103ea40003007800820078000001be000800be0014
:103eb400baf207008001780001017800030078005d
:103ec400820078000000be00b0848800c1848800ad
:103ed4003885800049858000748480008584800052
:103ee40080828000918280000001be000400be0038
:103ef4008ff3070000017800010078008201780048
:103f04000001780003007800820078000001be0000
:103f14000800be00a1f207008001780001017800ca
:103f240003007800820078000000be00108588003d
:103f3400218588001085800021858000b2fd200045
:103f44009304240034f207000000e0000c00340065
:103f54001085800021858000b2fd2000930c240090
:103f640085f20700800178000101780003007800e1
:103f7400820078000000be0010858800218588003a
:103f84001085800021858000b2fd200093042c0060
:103f94001ff207000000e000010035000c003700ac
:103fa4001085800021858000b2fd2000930c240040
:103fb4007af207008001780001017800030078009c
:103fc400820078000000be001085880021858800ea
:103fd400000000004f05be004f04be000080fa0040
:103fe400000006002000fa00e0818000f1818000da
:103ff40000017800810178008000eb000e00780059
:104004004e02070090848000a18480000001be005d
:10401400410020000e0078002b020700b0848000cd
:10402400c18480000001be00810020000e007800e1
:104034002502070010858000218580000001be0054
:10404400c10020000e0078001f0207005084800089
:10405400618480000001be00010120000e00780090
:104064001902070070848000818480000001be0072
:10407400410120000e007800130207001084800024
:10408400218480000001be00810120000e00780020
:104094000d02070030848000418480000001be00ce
:1040a400c10120000e007800070207000e0178000d
:1040b4000102200010062000390007000000000063
:1040c4000080fa00000006000a00fa0020079800a9
:1040d40031079800420798000040eb00004f780039
:1040e4009e407800e0cfb30000c06800004f780025
:1040f4002e0090004800de00804078001e407800ca
:1041040000c06800004f78002e00900080407800c6
:104114001e40780000c06800004f78003e00900008
:104124004800de00804078001e40780000c068002f
:10413400004f78003e009000804078001e407800d8
:1041440000c06800004f78000000eb0010079800e2
:104154000c0037001e009000e800470011004000ea
:10416400104078009e40780000c06800004f78003e
:104174000e80e8008e80e8001108e80090007800c6
:10418400110798009e0090003e009000808f500020
:10419400f0ff35001e4078000080fa0000000600a1
:1041a4001200fa00889fbe0060079800710798000b
:1041b400020f98000f0478000f0078008004780044
:1041c40064004700ee00470062002000110841002f
:1041d40090017800230798002e0090008000e900e9
:1041e400310798000000e8000000d1008000400082
:1041f4000f00780081874700600040004007980066
:104204000000eb00100798009e0090000e80e8006c
:104214000108e80010017800120798004e00900091
:1042240001004000e1cfb300014878006e00900027
:10423400c880de001e0190000e80e8000208e8003d
:104244009001780013079800814078004e00900098
:1042540002004000014878009e0090000e80e800b3
:104264000108e80010017800120798006e00900021
:10427400004178004e0090000100400002487800a0
:104284007e009000c880de001e0190000e80e800d1
:104294000208e80090017800130798008140780034
:1042a4004e00900002004000014878009e009000fb
:1042b4000e80e8000108e800100178001207980059
:1042c4007e009000004178004e0090000100400004
:1042d400024878000000eb00000f78000d00370062
:1042e4001e007800f0004700910040001e0190007d
:1042f4000e80e8000208e800900178001307980097
:10430400914078004e00900002004000014878007f
:104314001e0fe8007e0090009e007800808f500001
:10432400efff35000e099000fe0090006e00900033
:1043340065ff0700204f98009e0090000e80e80063
:104344000108e80010017800120798004e00900060
:1043540001004000ae499000034878004e009000f0
:10436400ae009000b001070089077800000000004b
:10437400880778004f04be000080fa0000000600a1
:104384000400fa0020479800c0818000e30f500029
:1043940026003200e30f500007003c00e10f5000fc
:1043a40013003200e10f500018003c000000e00050
:1043b400080032005b003700e50f50003700320080
:1043c400e50f500020003500e60f50004100320098
:1043d400540037002e409000e24f40004e003a0057
:1043e4003630ef0010002000c08188004a003700fa
:1043f4000e80e8001080fb004800dd0090818800fa
:1044040020002000c0818800460037000e80e800ac
:104414001080fb00918180000080700090818800f2
:1044240030002000c08188003e0037000e80e80084
:104434001080fb004800dd00a081880040002000bf
:10444400c0818800370037000e80e8001080fb0030
:10445400a181800000807000a08188003630ef00c8
:10446400a08180000000e00003003a00600020000a
:10447400c08188002b003700a1818000f03f20001c
:10448400808f500003003c0050002000c081880051
:10449400240037003830ef0022003700b18180005b
:1044a4000100e800b0818800a02021000100400044
:1044b400ae40900001487800b1818000a081800066
:1044c400808f50001600350060002000c0818800f5
:1044d40013003700a181800090818000a220210078
:1044e400f9fe0700004f78002e4090009e407800af
:1044f40080cf500006003a00a08180008040780000
:104504009081800000407800a2202100080007006c
:104514003830ef00030037000000000001003700ce
:1045240000000000000000000080fa000000060007
:104534000600fa00004f78002147980022079800ef
:104544001e80fb0011052000810f50000400320082
:1045540021052000810f50000500320008003700bb
:104564002e00900010407800080007000400370077
:104574002e009000104078000f000700000000009b
:10458400000000000080fa00000006000200fa00ab
:10459400004f78001e4178006102210082487800b3
:1045a400a00521008040eb0061609800000000003d
:1045b4000080fa00000006000200fa00004f7800b4
:1045c400a005210011c0b300616098001000200014
:1045d4000080fa00000006000400fa00008fbe000c
:1045e4006011b8001e0078009e0090008af0070059
:1045f4000000e000030035001e0078009e009000db
:10460400030037001e0078009e00900001f0a20015
:1046140080017800010178000300780082007800ae
:104624000000be000080fa00000006000800fa0046
:10463400008fbe0022079800330798002e019000d7
:10464400be0190001e0078009e00900072f00700ea
:104654000000e000030034009e0078001e0090007b
:1046640002003700ae0090003e0090008101780007
:104674000001780003007800820078000000be008a
:104684000080fa00000006000800fa00008fbe0057
:1046940022079800330798002e019000be01900075
:1046a4001e0078009e00900059f007000000e00012
:1046b40003003d009e0078001e00900002003700b9
:1046c400ae0090003e009000810178000001780067
:1046d40003007800820078000000be000080fa0029
:1046e400000006000c00fa00008fbe0022079800ac
:1046f4003307980044079800550798002e0190004e
:10470400be0190001e0078009e00900040f007005b
:104714000000e00003003d00ae0090003e00900069
:104724000c0037004e019000de0190001e0078005e
:104734009e00900038f007000000e0000300340001
:10474400ce0090005e009000020037009e007800ca
:104754001e009000810178000001780003007800b9
:10476400820078000000be000080fa00000006000d
:104774000800fa002007980031079800b2fd2000d5
:10478400930424002e009000be0090007af00700ed
:1047940000017800010078008202780000027800ad
:1047a400b2fd2000930c24000500780084007800fa
:1047b4000000be00b6f40700b2fd200093042400fc
:1047c40076f00700008fbe00b2fd200093042400a1
:1047d4001e0078009e00900070f007000001780031
:1047e400010078008202780000027800b2fd200007
:1047f400930c240005007800840078000000be00bb
:10480400a3f40700b2fd2000930424005af007002b
:1048140000017800010078008200780081017800ae
:104824000001780003007800820078000000be00d8
:104834000080fa00000006000a00fa003007980021
:10484400410798004e009000e6004700110f400019
:104854001e00780010017800900190001207980063
:10486400230798009e0090002e009000810178009c
:104874000001780003007800820078000000be0088
:104884000080fa00000006000600fa0010079800f5
:10489400210798002e0090008e80e800110f400040
:1048a4001e007800900078001000900081017800cc
:1048b4000001780003007800820078000000be0048
:1048c4000080fa00000006000c00fa00200798009f
:1048d4003107980042079800530798000e80e800bb
:1048e4006808470090007800110798000000eb006a
:1048f400000f78000b0037001e0078008e80e8005f
:104904009100400066004700100178001e0041003d
:10491400640147001200400091407800014878008b
:104924001e0fe8001e007800e30f5000f2ff340071
:10493400000000000080fa00000006000c00fa00ed
:104944002007980031079800420798005307980001
:104954000e80e8006808470090007800110798006e
:104964000000eb00000f78000c003700300020003e
:104974001e0050008e80e800910040006600470051
:10498400100178001e00410064014700120040003d
:1049940091407800014878001e0fe8001e0078005e
:1049a400e30f5000f1ff3400000000000080fa0023
:1049b400000006000c00fa00200798003107980058
:1049c40042079800530798000e80e80068084700e3
:1049d40090007800110798000000eb00000f7800a9
:1049e4000b0037001e0078008e80e8009100400024
:1049f40066004700100178001e0041006401470072
:104a04001200400091407800014878001e0fe80031
:104a14001e007800e70f5000f2ff34000000000091
:104a24000080fa00000006000600fa001007980053
:104a3400210798000040eb00004f78005b0007005e
:104a4400ae009000808f500013003d000040eb004a
:104a5400004f7800080037001e80fb008e80e800bd
:104a640011004000104078000e0007001e4078003e
:104a74000040e800004f78001e80fb00ae0090006c
:104a8400808f5000f4ff3c00310007000004e00078
:104a940001003a0024000700000000000080fa0032
:104aa400000006000200fa00004f780041818000f7
:104ab400a0102100010040001e48780040818000c1
:104ac4000000e8004081880041818000f007200058
:104ad400808f5000010034002830ef0000000000f7
:104ae4000080fa00000006000200fa0051818000f4
:104af400a010210001004000104f78005081800078
:104b04000000e8005081880051818000f0072000f7
:104b1400808f5000010034002a30ef001e407800de
:104b24000080fa00000006000200fa0010c0b30082
:104b340030f0b700ecff0700004f78001e80fb0048
:104b440020118800000000000080fa000000060028
:104b54000000fa0030d0bf000080fa000000060018
:104b64000200fa004181800050818000808f500053
:104b74000500350041818000508180000080500094
:104b8400000f7800060037005181800040818000ca
:104b9400808050000008200001005000000f7800c1
:104ba4001e0078000080fa00000006000200fa00ef
:104bb400ebff07008000780000082000010050008f
:104bc400000f78001e0078000080fa000000060044
:104bd4000000fa0021e3a9002143a8000019800085
:104be4000080a1000090a100001988002043a900c2
:104bf400001980000050a0000060a0000070a00018
:104c0400001988001019800000d0a10000e0a10064
:104c140000f0a100101988002343a8001019800097
:104c24000080a1000090a1001019880011198000d3
:104c340030f82f00008060000040a00010198800a8
:104c44002203a9002223a90025e3a900f0c0b30090
:104c540024e3b70021198000f00f2e00808060004b
:104c640000f0200001007000201988003303a9001f
:104c74001e0ea8001f0ea8001f2ea8001f4ea8007d
:104c84001f6ea8003003a8003103a8003123a80038
:104c94003143a8003163a8004119800000fe2f00b1
:104ca400008060004019880028e3a90001a8a90039
:104cb40021a8a80021e3a800000000000080fa0059
:104cc400000006000000fa002023a80000000000f5
:104cd4000080fa00000006000000fa00a02821006d
:104ce4000080fa00000006000000fa0057d0bf0060
:104cf4000080fa00000006000000fa005770ef0080
:104d0400000000000080fa00000006000000fa0025
:104d1400817420009140780000ccb30000c0600092
:104d24007041b30048e7b700313a800000e02f003b
:104d3400808060008005200001007000303a880007
:104d4400203a80000060a1000070a100203a880091
:104d5400213a800000fe2f00008060000000a000c7
:104d6400203a880012c0b30080c7b300a1c9b300c1
:104d740033742000804978008149780082497800a2
:104d8400103a800000407800004178000204a0003e
:104d940060c4b30071c5b300237420008049780057
:104da400814978008249780000000000103a8000b0
:104db4004c00de0067406000e14f5000fbff3a000a
:104dc4005927a800c03a80000000a0000010a100ec
:104dd4000020a100c03a88005ac7bf000000a0000c
:104de4000010a0000020a0005ae7b700c03a8000dd
:104df4000050a1000060a0000070a000c03a88002c
:104e040059a7a80059e7a80000000000c03a800094
:104e14004e00de0061406000e14f5000fbff3a00ad
:104e240000000000103a80004500de006140600090
:104e3400e14f5000fbff3a00000000000080fa0040
:104e4400000006000000fa000e2eef001e2eef00f8
:104e54003e2eef002e2eef004e2eef006e2eef00b2
:104e640080cea90080aea900808ea900816ea90021
:104e7400714ea900000ea900012ea90091eea9000f
:104e8400014ea900706ea900814ea90030000700f0
:104e94002136800000f82f00008060002001b3005c
:104ea400203688008134800000fc2f0000806000e0
:104eb4000000a000803488000136800000f82f0034
:104ec4008080600010062000010070000036880019
:104ed40001368000f00f2800808060000010270059
:104ee4000100700000368800e135800000f82f00d2
:104ef40080806000e007200001007000e035880039
:104f0400e1358000f00f28008080600000c0270099
:104f140001007000e0358800030007000000000075
:104f24000080fa00000006000000fa00217420004e
:104f340062042000730520008248780083487800ca
:104f440042c7a800000000000080fa00000006002c
:104f54000000fa0021742000620420007305200080
:104f6400824878008348780042c7a9000000000006
:104f74000080fa00000006000200fa00004f7800ea
:104f84003e0007000000e0000c0034006182800055
:104f9400a0182100010040001e48780060828000b3
:104fa4000000e8006082880061828000f007200031
:104fb400808f5000010034004c30ef0000000000ee
:104fc4000080fa00000006000200fa0071828000ee
:104fd400a018210001004000104f7800708280006a
:104fe4000000e8007082880071828000f0072000d1
:104ff400808f5000010034004e30ef001e407800d6
:105004000080fa00000006000000fa0061828000bf
:1050140070828000808f50000200320010c0b30004
:10502400010037000040eb000080fa000000060099
:105034000200fa006182800070828000808f50003c
:10504400050035006182800070828000008050007d
:10505400000f7800060037007182800060828000b3
:10506400808050000008200001005000000f7800ec
:105074001e0078000080fa00000006000200fa001a
:10508400ebff0700800078000008200001005000ba
:10509400000f78001e0078000080fa00000006006f
:020000040000fa
:1050a40018100000100000008000000054100000e0
:1050b4000200000082000000670600003a100000b1
:1050c4000600000080000000401000000600000000
:1050d4008200000000007a00430100005a10000022
:1050e400b000000080000000461000000600000030
:1050f4008200000000004800420500008a120000ff
:105104000a000000800000005610000002000000a9
:10511400800000000a1100008000000080000000f0
:10512400281000000a000000800000008a1100001e
:1051340080000000800000004c100000040000000b
:10514400800000000a1200008000000080000000bf
:105154003210000008000000800000000010000071
:10516400180000008000000050100000040000003f
:105174008200000000007a00430000005810000084
:0c5184000200000080000000000000009d
:020000040000fa
:105190000000fa002002a900001180000010a10008
:1051a0000020a1000011880020a2a9002062a80010
:1051b000100820004011880023a2a90023e2a900c2
:1051c0000188a9002188a800101180000060a100ba
:1051d0000070a100101188000168a9002168a800d2
:1051e00021e2a8002342a800000000000080fa008d
:1051f000000006000600fa0010079800210798003a
:105200000040eb00004f78000040eb00004f7800ba
:105210001100370000000000101180004900de007e
:10522000614060000004e000fbff3a009e00900037
:105230000e80e8000108e8001001780012079800cd
:10524000114078000080fb00201188001e4078008b
:105250000040e800004f78001e80fb00ae00900088
:10526000808f5000ebff3c00000000000080fa003f
:10527000000006001a00fa00600798007207980004
:10528000030f9800140f9800250f9800360f980010
:10529000470f98006e0090007e0190008e099000ec
:1052a0000288be006e0090001e0178009e019000f2
:1052b00062009800730098006e0090001e09900034
:1052c000ae09900022009800330098006e00900014
:1052d0002e019000be01900002089800130898006b
:1052e0006e0090003e099000ce09900042009800a8
:1052f000530098006e0090004e019000de01900077
:105300002208980033089800000000000080fa008e
:045310000000060093
:020000040000fa
:0200000401f009
:04000800cfffff0027
:020000040000fa
:0200000401f009
:04000c00f9ffff00f9
:020000040000fa
:0200000401f009
:040010005bffff0093
:020000040000fa
:0200000401f009
:040014007fffff006b
:020000040000fa
:0200000401f009
:04001800cfffff0017
:020000040000fa
:0200000401f009
:04001c00deffff0004
:020000040000fa
:0200000401f009
:04002000cfffff000f
:00000001FF
